:020000040800F2
:10000000B0050020D9010008251C0008BD1A000811
:10001000211C00086F070008612100080000000093
:10002000000000000000000000000000291C000883
:100030007307000800000000271C00082B1C0008A4
:10004000F3010008F3010008F3010008F3010008C0
:10005000F3010008F3010008F3010008F3010008B0
:10006000F3010008F3010008F3010008F3010008A0
:10007000F3010008F3010008F3010008F301000890
:10008000F3010008F3010008F3010008F301000880
:10009000F3010008F3010008F3010008F301000870
:1000A000F3010008F3010008F3010008F301000860
:1000B000F3010008F3010008F3010008F301000850
:1000C000F3010008F3010008F3010008F301000840
:1000D000F3010008F3010008F3010008F301000830
:1000E000F3010008F3010008F3010008F301000820
:1000F000F3010008F3010008F3010008F301000810
:10010000F3010008F3010008F3010008F3010008FF
:10011000F3010008F3010008F3010008F3010008EF
:10012000F3010008F3010008F3010008F3010008DF
:10013000F30100080000000000000000F3010008C7
:10014000F3010008F3010008F3010008F3010008BF
:10015000F3010008F3010008F3010008F3010008AF
:10016000F3010008F3010008F3010008F30100089F
:10017000F3010008F3010008F3010008000000008B
:1001800000000000F3010008000000000000000073
:10019000F30100080000000000000000F301000867
:1001A000000000000000000000000000F301000853
:1001B000F3010008F3010008F3010008F30100084F
:1001C000F3010008DFF80CD000F050FA00480047B7
:1001D00081350008B00500200648804706480047E2
:1001E000FEE7FEE7FEE7FEE7FEE7FEE7FEE7FEE7E7
:1001F000FEE7FEE7F11C0008C50100082DE9F05FED
:100200000546002092469B46884606468146402485
:100210001BE0284641464746224600F05EF853461A
:100220005A46C01A914110D311461846224600F092
:1002300045F82D1A67EB01084F46224601200021A0
:1002400000F03CF817EB00094E41201EA4F1010418
:10025000DFDC484631462A464346BDE8F09FD2B22D
:1002600001E000F8012B491EFBD270470022F6E79F
:1002700010B513460A4604461946FFF7F0FF20461C
:1002800010BD421C10F8011B0029FBD1801A7047D9
:1002900030B50B46014600202022012409E021FA56
:1002A00002F59D4205D303FA02F5491B04FA02F553
:1002B0002844151EA2F10102F1DC30BD202A04DB26
:1002C000203A00FA02F1002070479140C2F1200369
:1002D00020FA03F3194390407047202A04DB203AA8
:1002E00021FA02F00021704721FA02F3D040C2F156
:1002F000200291400843194670472DE9FE4F804681
:1003000081EA0300C00F0C46009021F0004123F069
:100310000045B8EB0200A94105D24046214690466F
:100320001C460B46024623F00040104347D0270DE1
:10033000C7F30A00C3F30A510290401A0190402803
:100340006BDAC3F3130040F4801B0098924620B18F
:100350000023D2EB030A63EB0B0B01985946C0F163
:1003600040025046FFF7AAFF06460D465046594642
:10037000019A00F08DF910EB08006141002487EA32
:10038000115284EAE7731A4340D0009A62B3019A8B
:10039000012A4FEA075215DC001B61EB02014FF006
:1003A000004202EA0752CDE90042001C41F58011EB
:1003B00032462B4600F08DF903B0BDE8F08F404681
:1003C0002146F9E7001B61EB0201001C41F5801397
:1003D00000185B412018A2F5001747EB030140EA23
:1003E000D570B6196D4111E06D084FEA360645EA41
:1003F000C0754FEA0752001B61EB0201001C41F57A
:10040000801149084FEA30000019514132462B460D
:1004100003B0BDE8F04F00F04DB900980122400054
:100420000023D0EB020263EBE073009821464FEA11
:10043000E074B8EB000061EB0401E9E783F00043EE
:100440005BE781F0004158E72DE9FE4F81EA0304A4
:1004500004F0004421F0004100944FF0000B23F021
:10046000004350EA01045ED052EA03045BD0C3F3B8
:100470000A54C1F30A552C44A4F2F3340194A0FBAE
:100480000254C1F3130141F48011C3F3130343F485
:10049000801301FB024400FB034E840A970A44EADE
:1004A000815447EA8357A4FB076802958D0A05FB30
:1004B00007854FEA932C04FB0C542705029D4FEA55
:1004C000065847EA1637B5EB08056EEB070C870EA2
:1004D000920E47EA811742EA8312A7FB0201B6EBAC
:1004E0000B0164EB00042B0D43EA0C335E1844EB64
:1004F0001C50DA465146E7FB0201C5F313044FEAEC
:100500000B3343EA14534FEA0432019C43EA0603D7
:10051000A4F10C040294009CCDE900B400F0D9F8D9
:1005200003B0BDE8F08F00200146F9E72DE9F04D5A
:1005300081EA030404F0004B21F0004514464FF01B
:10054000000A23F0004150EA050220D054EA0102DB
:100550001DD0C5F30A570246C5F31303C1F31300B8
:10056000C1F30A5640F4801543F48013A7EB060844
:10057000101BD64608F2FD3873EB050002D308F1D4
:10058000010801E092185B41B8F1000F03DA002086
:100590000146BDE8F08D00204FF4801106468446E8
:1005A0000EE0171B73EB050705D3121B63EB050366
:1005B00006434CEA010C49084FEA300092185B41AF
:1005C00050EA0107EDD152EA030012D082EA04009A
:1005D00083EA0501084305D0101BAB4106D2012276
:1005E000002306E000224FF0004302E06FF001021A
:1005F00053101AEB06004CEB085110EB0A0041EBCC
:100600000B01BDE8F04D00F055B8C1F30A52C1F33B
:10061000130140F2FF3341F480119A4202DA0020C4
:100620000146704740F233439A42A2F2334202DC61
:100630005242FFF752BEFFF741BE000030B5041E24
:1006400071F1000404DB4FF00044404264EB01010F
:10065000141E73F1000405DB1C464FF000435242A8
:1006600063EB0403994208BF904230BD064C074D2E
:1006700006E0E06840F0010394E807009847103472
:10068000AC42F6D3FFF7A2FD88360008A836000872
:10069000202A06DBCB17203A41FA02F043EAE07346
:1006A00006E041FA02F3D040C2F120029140084333
:1006B0001946704710B5141E73F1000408DA401C87
:1006C00041F1000192185B411A4301D120F0010071
:1006D00010BD2DE9F04D92469B4611B1B1FA81F261
:1006E00002E0B0FA80F220329046FFF7E7FD0446C0
:1006F0000F4640EA0A0041EA0B0153465A460843B6
:1007000013D0114653EA010019D0C8F140025046F7
:10071000FFF7E3FD05460E46504659464246FFF7B1
:10072000CDFD084305D0012004E020463946BDE850
:10073000F08D0020054346EAE0762C4337430A98C3
:100740006305E40AA0EB08000022FD0A44EA4754CE
:100750000A3002D500200146E9E701051019694178
:10076000DDE9084500196941BDE8F04DA2E700BF89
:10077000FEE770477047000010B5002201B909E09C
:10078000012901D10A0205E0022901D10A0201E092
:100790004FF440720E4B1B6823F440730C4C2360E3
:1007A00023461B681343236023461B6823F0F8038A
:1007B000236023461B68022444EAC0042343044CFC
:1007C000236023461B6843F48033236010BD000080
:1007D000103C02401C48006800F40070B0B11A4898
:1007E000006820F400701849086000BF08460068DF
:1007F00040F4006008600846006820F4006008606B
:1008000000BF0846006840F4007008600E480068A9
:1008100000F48060B0B10C48006820F480600A49A0
:10082000086000BF0846006840F480500860084631
:10083000006820F48050086000BF0846006840F45B
:100840008060086070470000003C02400A4A12685D
:1008500022F44072084B1A601A46126842F00402F1
:100860001A601A4612684FF4803343EA00231A4391
:10087000014B1A6070470000103C0240074A1268A2
:1008800022F44072054B1A601A4612681A601A4622
:10089000126842F001021A6001707047103C024079
:1008A00010B50D49096821F440710B4C21602146B7
:1008B000096841F4407121602146096841F0010155
:1008C0002160026000BF00BF00BFBFF36F8F00BF99
:1008D00000BF00BF436010BD103C0240084A1268D0
:1008E00022F44072064B1A601A46126842F4807273
:1008F0001A601A46126842F001021A6001807047BD
:10090000103C0240084A126822F44072064B1A60FA
:100910001A46126842F400721A601A46126842F0CF
:1009200001021A6001607047103C02402A480068CA
:1009300000F0100040B12948C06940F0100027497C
:10094000C8611020244908602348006800F0200096
:1009500040B12248C06940F008002049C861202009
:100960001D4908601C48006800F0400040B11B4869
:10097000C06940F004001949C86140201649086068
:100980001548006800F0800040B11448C06940F08C
:1009900002001249C86180200F4908600E480068B3
:1009A00000F4807048B10D48C06940F001000B4967
:1009B000C8614FF48070084908600748006800F07B
:1009C000020040B10548C06940F020000349C861F9
:1009D00002200149086070470C3C02408C01002055
:1009E00070B50446002500201449C86100F034FAAF
:1009F000054609E0601C38B124B100F02DFA401B17
:100A0000A04201D9032070BD0D48006800F4803079
:100A10000028EFD10A48006800F0010010B1012061
:100A2000074908600648006800F4F97018B1FFF73C
:100A30007DFF0120E7E70020E5E700008C010020B2
:100A40000C3C024070B503460C46002002255D7147
:100A5000002104E054F821501E683560491C914281
:100A6000F8D31D68286801255D7170BD10B5044676
:100A70000CB9012010BD607920B9002020712046FA
:100A800000F004F8012060710020F3E708B50A4A7D
:100A9000016891420FD100BF002100910749096808
:100AA00041F48051054A11601146096801F48051F2
:100AB000009100BF00BF08BD003002403038024046
:100AC0002DE9F04104460E460127002500BF2548C8
:100AD000007E012802D10220BDE8F08101202149D9
:100AE000087600BF4CF25030FFF77AFF0746002F20
:100AF00031D1401E3060206801280FD1207C616810
:100B0000FFF7A4FE4CF25030FFF76AFF0746164885
:100B1000006820F00400144908601AE0A56812E09B
:100B2000217C2846FFF728FE4CF25030FFF758FF93
:100B300007460D48006820F0FA000B4908600FB125
:100B4000356005E06D1CD4E902100844A842E7D8DE
:100B500000BFFFF73FFE00BF00200249087600BF3C
:100B60003846B9E78C010020103C02400348006879
:100B700040F000400149086000207047103C0240EE
:100B80002DE9F04106460F4614461D464FF0010878
:100B900000BF1F48007E012802D10220BDE8F0817D
:100BA00001201B49087600BF4CF25030FFF718FFB8
:100BB0008046B8F1000F23D126B9E1B23846FFF7DD
:100BC0005DFE12E0012E04D1A1B23846FFF786FE89
:100BD0000BE0022E04D121463846FFF793FE04E0D5
:100BE00022462B463846FFF75BFE4CF25030FFF7AB
:100BF000F7FE80460748006820F0010005490860BC
:100C000000BF00200249087600BF4046C6E700004A
:100C10008C010020103C024000200949096801F0C5
:100C2000004159B10749064A0C3A11600649116062
:100C30000349096801F0004101B10120704700003B
:100C4000103C024023016745AB89EFCDF8B5024661
:100C50000B460025002400200021D7E0012606FADB
:100C600001F51E6806EA0504AC4273D15E68012EE8
:100C700008D05E68022E05D05E68112E02D05E6834
:100C8000122E13D190684F000326BE40B0434F0090
:100C9000DE68BE4030439060506801268E40B0430D
:100CA0001E79C6F300168E4030435060D0684F0066
:100CB0000326BE40B0434F009E68BE403043D06024
:100CC0005E68022E02D05E68122E13D1CF0802F1A8
:100CD000200656F827004E07F70E0F26BE40B043F9
:100CE0004F07FF0E1E69BE403043CF0802F12006B9
:100CF00046F8270010684F000326BE40B0431E7917
:100D000006F003064F00BE40304310605E6806F0F8
:100D10008056B6F1805F78D100BF002600963D4E28
:100D2000366846F480463B4F3E603E46366806F4E1
:100D30008046009600BF00BF374E8F0856F8270048
:100D40008E07370F0F26BE40B043344EB24202D159
:100D500000261FE059E0324EB24201D1012619E0CF
:100D6000304EB24201D1022614E02F4EB24201D1E0
:100D700003260FE02D4EB24201D104260AE02C4E8C
:100D8000B24201D1052605E02A4EB24201D1062623
:100D900000E007268F073F0FBE4030431E4E8F08EE
:100DA00046F82700244E3068A0435E6806F480367B
:100DB000B6F5803F00D120431F4E3060361D3068AD
:100DC000A0435E6806F40036B6F5003F00D120432C
:100DD000194E361D3060361D3068A0435E6806F43B
:100DE0008016B6F5801F00D12043134E08363060C0
:100DF000361D3068A0435E6806F40016B6F5001F85
:100E000000D120430C4E0C363060491C1029FFF4F1
:100E100025AFF8BD443802400838014000000240C8
:100E20000004024000080240000C02400010024092
:100E30000014024000180240003C014002461369C1
:100E40000B400BB1012000E0002070470AB1816126
:100E500001E00B048361704701480068704700009F
:100E60003400002003480068034909780844014918
:100E700008607047340000203C00002010B50D4889
:100E8000006840F400700B4908600846006840F4B0
:100E9000806008600846006840F4807008600320A5
:100EA00000F096F8002000F007F800F02BF8002082
:100EB00010BD0000003C024070B504460E480078AA
:100EC0004FF47A71B1FBF0F00C490968B1FBF0F511
:100ED000284600F045FC08B1012070BD102C07D257
:100EE00000222146501E00F035F80548046001E05C
:100EF0000120F2E70020F0E73C0000204000002045
:100F00003800002008B500BF00200090104800689D
:100F100040F480400E4908600846006800F48040B4
:100F2000009000BF00BF00BF00200090081F0068B5
:100F300040F08050091F08600846006800F08050AB
:100F4000009000BF00BF072000F042F808BD00007D
:100F5000443802402DE9F05F80460D4616460027D2
:100F600001F012F9074639462A46334601F00700D8
:100F7000C0F1070ABAF1040F02D94FF0040A01E0E8
:100F8000C0F1070AD14600F1040ABAF1070F02D2F4
:100F90004FF0000A01E0A0F1030AD4464FF0010A25
:100FA0000AFA09FAAAF1010A0AEA020A0AFA0CFA8A
:100FB0004FF0010B0BFA0CFBABF1010B0BEA030B2F
:100FC0004AEA0B042146404601F0E6F8BDE8F09FEE
:100FD00000BF00F00702064B19684FF6FF031940E7
:100FE000044B0B4343EA0221014B196000BF7047D9
:100FF0000CED00E00000FA0570B504460D460CB992
:10100000012070BD5848006800F00F00A84209D2C6
:1010100055490D700846006800F00F00A84201D045
:101020000120EEE7207800F0020002281DD1207890
:1010300000F00400042805D14C48006840F4E0505A
:101040004A490860207800F00800082805D1474880
:10105000006840F46040454908604448006820F05A
:10106000F000A168084341490860207800F00100C1
:10107000A8B36068012807D13C4808380068C0F36D
:101080004040B8B90120BCE76068022802D060681F
:10109000032807D1354808380068C0F3406048B9D4
:1010A0000120AEE7314808380068C0F3400008B9B5
:1010B0000120A6E72D48006820F00300616808437E
:1010C0002A490860FFF7C8FE064609E0FFF7C4FE9C
:1010D000801B41F28831884202D9032091E707E062
:1010E0002248006800F00C006168B0EB810FEDD180
:1010F0001D48006800F00F00A84209D91A490D7078
:101100000846006800F00F00A84201D0012078E7EF
:10111000207800F00400042807D11448006820F467
:10112000E050E168084311490860207800F00800A9
:10113000082808D10D48006820F46040216940EA81
:10114000C1000A49086000F03FF808490968C1F386
:101150000311074A515CC840064908600648006808
:10116000FFF7AAFE00204CE7003C0240083802408E
:101170007036000840000020380000200148006858
:10118000704700004000002000B5FFF7F7FF04495A
:101190000968C1F38221034A515CC84000BD0000C8
:1011A000083802408036000800B5FFF7E7FF044921
:1011B0000968C1F34231034A515CC84000BD0000D8
:1011C00008380240803600082DE9F0470024002549
:1011D0000026A146A2463F48006800F00C0030B14E
:1011E000042807D0082808D00C286BD138E0DFF895
:1011F000E8A06AE0DFF8E4A067E03648001F006876
:1012000000F03F043348001F006800F4800078B10C
:1012100032483049091F0968C1F38811A0FB0170E9
:101220000146224600233846FEF7E8FF05460DE05A
:1012300029482849091F0968C1F38811A0FB0171D9
:10124000224600233846FEF7D9FF05462148001FF5
:101250000068C0F30140401C4600B5FBF6FA34E0DC
:101260001C48001F006800F03F041A48001F006877
:1012700000F4800078B119481649091F0968C1F3C4
:101280008811A0FB01700146224600233846FEF774
:10129000B5FF05460EE010480E49091F0968C1F365
:1012A0008811A0FB01700146224600233846FEF754
:1012B000A5FF05460748001F0068C0F30279B5FB8B
:1012C000F9FA02E0DFF810A000BF00BF5046BDE809
:1012D000F0870000083802400024F40000127A0071
:1012E000F8B504460025207800F0010000286FD0F2
:1012F000FD48006800F00C0004281BD0FA48006884
:1013000000F00C00082807D1F748001F006800F41F
:101310008000B0F5800F0DD0F348006800F00C009D
:101320000C2813D1F048001F006800F48000B0F5CD
:10133000800F0BD1EC4808380068C0F3404000280B
:1013400059D06068002856D10120F8BD00BF606800
:10135000B0F5803F08D1E4480838006840F4803098
:10136000E149083908601EE06068B0F5A02F0DD192
:10137000DD480838006840F48020DB4908390860FF
:101380000846006840F4803008600CE0D648083811
:10139000006820F48030D4490839086008460068A5
:1013A00020F48020086000BF606890B1FFF754FD12
:1013B000054606E0FFF750FD401B642801D90320D5
:1013C000C3E7C94808380068C0F340400028F1D09E
:1013D00011E0FFF741FD054606E0FFF73DFD401B2C
:1013E000642801D90320B0E7BF4808380068C0F37B
:1013F00040400028F1D1207800F0020002286BD193
:10140000B948006800F00C00B8B1B748006800F0B7
:101410000C00082805D1B448001F006800F48000C3
:1014200058B1B148006800F00C000C281CD1AE483F
:10143000001F006800F48000B0B9AB4808380068AD
:10144000C0F3400020B1E068012801D001207CE712
:10145000A5480838006820F0F800216940EAC1007A
:10146000A1490839086037E0E06800B301209F49CE
:101470000860FFF7F1FC054606E0FFF7EDFC401BB6
:10148000022801D9032060E7974808380068C0F3B4
:1014900040000028F1D094480838006820F0F80097
:1014A000216940EAC10090490839086014E0002031
:1014B0008E490860FFF7D0FC054606E0FFF7CCFC3C
:1014C000401B022801D903203FE7874808380068FD
:1014D000C0F340000028F1D1207800F0080008286F
:1014E0002CD16069A8B1012081490860FFF7B4FCE4
:1014F000054606E0FFF7B0FC401B022801D9032097
:1015000023E779486C300068C0F340000028F1D030
:1015100014E0002076490860FFF79EFC054606E0CF
:10152000FFF79AFC401B022801D903200DE76E4803
:101530006C300068C0F340000028F1D1207800F042
:101540000400042870D1002667483830006800F095
:10155000805090B900BF0020009063483830006888
:1015600040F080506049383108600846006800F05B
:101570008050009000BF00BF01265E48006800F464
:101580008070B0B95B48006840F4807059490860C9
:10159000FFF762FC054606E0FFF75EFC401B0228F1
:1015A00001D90320D1E65348006800F48070002878
:1015B000F2D000BFA068012808D14B48683000680D
:1015C00040F001004849683108601DE0A068052826
:1015D0000DD145486830006840F004004249683148
:1015E00008600846006840F0010008600CE03E48D2
:1015F0006830006820F001003B4968310860084607
:10160000006820F00400086000BFA068A8B1FFF7E0
:1016100023FC054609E0FFF71FFC401B41F288311F
:10162000884202D9032090E626E02F4868300068FF
:10163000C0F340000028EED013E0FFF70DFC054694
:1016400008E0FFF709FC401B41F28831884201D9CC
:1016500003207AE6244868300068C0F34000002880
:10166000EFD1012E07D120483830006820F080509B
:101670001D493831086000BFA069E8B31A48006806
:1016800000F00C00082862D0A06902284AD100208E
:1016900016490866FFF7E0FB054606E0FFF7DCFBAE
:1016A000401B022801D903204FE60F480838006884
:1016B000C0F340600028F1D1D4E907010843616A12
:1016C00040EA81110122A06AC2EB500041EA0041C8
:1016D0002C20005D41EA00613020005D41EA00708D
:1016E0000149091F086008E008380240000047422D
:1016F000800E4742007000402BE00120164908662A
:10170000FFF7AAFB054606E0FFF7A6FB401B0228F1
:1017100001D9032019E611480068C0F34060002891
:10172000F2D016E000200C490866FFF795FB05464D
:1017300006E0FFF791FB401B022801D9032004E6D5
:1017400006480068C0F340600028F2D101E00120A3
:10175000FBE50020F9E500000000474200380240A8
:1017600070B504462546681EB0F1807F01D3012084
:101770000FE0681E4FF0E02148610F214FF0FF306D
:1017800000F00AFD00204FF0E02188610720086189
:10179000002070BD10B504460CB9012010BDA06931
:1017A00000B100E000BF94F8390028B9002084F8A7
:1017B0003800204600F028F8242084F839002068FA
:1017C000C06820F400502168C860204600F09EFAEE
:1017D0002068006920F49040216808612068406911
:1017E00020F02A00216848612068C06840F4005059
:1017F0002168C8600020E063202084F8390084F864
:101800003A000020CAE7000010B586B00446142153
:1018100001A8FEF72BFD36492068884230D100BF71
:10182000002000903348006840F4003031490860DF
:101830000846006800F40030009000BF00BF00BF01
:10184000002000902B481038006840F00100294922
:10185000103908600846006800F00100009000BFE1
:1018600000BF0C2001900220029001200390032071
:1018700004900720059001A91F48FFF7E7F934E01D
:101880001E492068884230D100BF002000901948CE
:10189000006840F48020174908600846006800F49A
:1018A0008020009000BF00BF00BF002000901148C2
:1018B0001038006840F004000E49103908600846EE
:1018C000006800F00400009000BF00BF4FF44060CB
:1018D0000190022002900120039003200490072031
:1018E000059001A90648FFF7B1F906B010BD000048
:1018F00000440040403802400000024000480040E0
:10190000000802402DE9F84304460D4616461F46DE
:101910004FF0000994F83A00202861D105B116B9BA
:101920000120BDE8F88300BF94F83800012801D1F8
:101930000220F6E7012084F8380000BF0020E063B1
:10194000222084F83A00FFF787FA8146A685E685CB
:1019500000BF002084F8380000BF39E0E08D401E51
:10196000E085A068B0F5805F1BD14B4600222021A6
:101970002046009700F0BEFB08B10320D1E7A8463F
:10198000206938B920684068C0F30800A8F8000052
:10199000AD1C1DE020684068C0B2A8F800006D1CB6
:1019A00016E04B46002220212046009700F0A2FBC3
:1019B00008B10320B5E7206920B92068406805F820
:1019C000010B05E02068406800F07F0005F8010B7E
:1019D000E08D0028C2D1202084F83A000020A0E742
:1019E00002209EE72DE9F84304460D4616461F46A1
:1019F0004FF0000994F8390020285DD105B116B9DF
:101A00000120BDE8F88300BF94F83800012801D117
:101A10000220F6E7012084F8380000BF0020E063D0
:101A2000212084F83900FFF717FA8146A684E6845E
:101A300000BF002084F8380000BF2BE0E08C401E7F
:101A4000E084A068B0F5805F16D14B46002280216B
:101A50002046009700F04EFB08B10320D1E7A846CE
:101A6000B8F80000C0F3080021684860206908B990
:101A7000AD1C0FE06D1C0DE04B460022802120467E
:101A8000009700F037FB08B10320BAE715F8010B07
:101A900021684860E08C0028D0D14B4600224021CC
:101AA0002046009700F026FB08B10320A9E720207C
:101AB00084F839000020A4E70220A2E700BFFEE777
:101AC00010B50548054908600846FEF7CFFF08B184
:101AD000FEF750FE10BD0000003002400000002064
:101AE00000B587B0142102A8FEF7C0FB00BF00209C
:101AF00001902B48006840F004002949086008461E
:101B0000006800F00400019000BF00BF00BF00208B
:101B100001900846006840F08000086008460068B0
:101B200000F08000019000BF00BF00BF00200190C6
:101B30000846006840F0010008600846006800F0B0
:101B40000100019000BF00BF00BF002001900846C7
:101B5000006840F0020008600846006800F00200DB
:101B6000019000BF00BF002220210E48FFF76EF950
:101B70004FF4005002900C4803900020049002A9FA
:101B80000A48FFF763F8202002900120039000200C
:101B90000490059002A90348FFF758F807B000BD6C
:101BA00030380240000002400000211000080240CE
:101BB00010B50B480B4908604FF4E1304860002134
:101BC00008488160C16001610C214161002181618F
:101BD000C161FFF7DFFD08B1FEF7CCFD10BD0000CD
:101BE000004400404400002010B50B480B49086039
:101BF0004FF4E1304860002108488160C160016114
:101C00000C21416100218161C161FFF7C3FD08B171
:101C1000FEF7B0FD10BD0000004800408400002029
:101C200000BFFEE770477047704710B5FFF71AF91D
:101C300010BD000000B593B0342106A8FEF716FBD6
:101C4000142101A8FEF712FB00BF002000902648D7
:101C5000006840F08050244908600846006800F0A1
:101C60008050009000BF00BF00BF002000901F48C0
:101C7000006820F4404040F480401C490860084659
:101C8000006800F44040009000BF00BF02200690B2
:101C90000120099010200A9002200C9000210D9143
:101CA00010210E914FF4A8710F910421109102217F
:101CB0001191129106A8FFF713FB08B1FEF75AFD28
:101CC0000F20019002200290002003904FF48050DA
:101CD000049000200590022101A8FFF78DF908B1BA
:101CE000FEF748FD13B000BD4038024000700040D0
:101CF0000548006840F47000034908604FF0006038
:101D0000014980390860704788ED00E02DE9F84FFF
:101D100004462068006920F44050E16808432168C7
:101D200008612169A068084361690843E1690843C3
:101D300000902068C06849F20C618843009908430C
:101D40002168C8602068406920F44070A169084398
:101D500021684861E069B0F5004F75D1E34920681A
:101D6000884203D0E249206888426FD1FFF71CFA0D
:101D7000814602206168A0FB01510B461920A9FB96
:101D800000712A463846FEF739FA6421B0FBF1F0BB
:101D90004FEA001A02206168A0FB01510B4619208E
:101DA000A9FB00712A463846FEF728FA07460220AA
:101DB0006168A0FB01510B461920A9FB00B12A461E
:101DC0005846FEF71BFA6421B0FBF1F000EBC001AE
:101DD00001EB0010A7EB8000322101EBC000642171
:101DE000B0FBF1F000F0F8000AEB400A0220616855
:101DF000A0FB01510B461920A9FB00712A46384669
:101E0000FEF7FCF9074602206168A0FB01510B4672
:101E10001920A9FB00B12A465846FEF7EFF96421C4
:101E2000B0FBF1F000EBC00101EB0010A7EB80006C
:101E3000322101EBC0006421B0FBF1F000F007009B
:101E40005044216888604FE16EE0FFE7FFF79CF99E
:101E5000814602206168A0FB01510B461920A9FBB5
:101E600000712A463846FEF7C9F96421B0FBF1F04B
:101E70004FEA001A02206168A0FB01510B461920AD
:101E8000A9FB00712A463846FEF7B8F9074602203A
:101E90006168A0FB01510B461920A9FB00B12A463D
:101EA0005846FEF7ABF96421B0FBF1F000EBC0013E
:101EB00001EB0010A7EB8000322101EBC000642190
:101EC000B0FBF1F000F0F8000AEB400A0220616874
:101ED000A0FB01510B461920A9FB00712A46384688
:101EE000FEF78CF9074602206168A0FB015003460B
:101EF0001920A9FB00B12A465846FEF77FF9642154
:101F0000B0FBF1F000EBC00101EB0010A7EB80008B
:101F1000322101EBC0006421B0FBF1F000F00700BA
:101F2000504421688860DFE070492068884203D00F
:101F30006F49206888426BD1FFF736F9814604204B
:101F40006168A0FB01510B461920A9FB00712A46CC
:101F50003846FEF753F9824604206168A0FB015120
:101F60000B461920A9FB00712A463846FEF746F9B0
:101F70006421B0FBF1F000EBC00101EB0010AAEB13
:101F80008000322101EB00106421B0FBF1F000F081
:101F9000F00A04206168A0FB015003461920A9FB48
:101FA00000712A463846FEF729F96421B0FBF1F0AA
:101FB0000AEB001A04206168A0FB01510B461920AE
:101FC000A9FB00712A463846FEF718F90746042097
:101FD0006168A0FB015003461920A9FB00B12A4605
:101FE0005846FEF70BF96421B0FBF1F000EBC0019D
:101FF00001EB0010A7EB8000322101EB00106421FF
:10200000B0FBF1F000F00F005044216888606BE0F5
:10201000FFF7BAF8814604206168A0FB015003462F
:102020001920A9FB00712A463846FEF7E7F88246D8
:1020300004206168A0FB015003461920A9FB007130
:102040002A463846FEF7DAF86421B0FBF1F000EBDF
:10205000C00101EB0010AAEB8000322101EB00105F
:102060006421B0FBF1F000F0F00A04206168A0FBED
:10207000015003461920A9FB00712A463846FEF795
:10208000BDF86421B0FBF1F00AEB001A042061688E
:10209000A0FB017003461920A9FB005001463A46F7
:1020A0002846FEF7ABF8074604206168A0FB015004
:1020B00003461920A9FB00B12A465846FEF79EF8B0
:1020C0006421B0FBF1F000EBC00101EB0010A7EBC5
:1020D0008000322101EB00106421B0FBF1F000F030
:1020E0000F00504421688860BDE8F88F001001405F
:1020F000001401402DE9F04104460D46174698466C
:10210000069E21E0701CF8B12EB1FEF7A5FEA0EBF3
:102110000800B04218D92068C06820F4D070216847
:10212000C8602068406920F00100216848612020D3
:1021300084F8390084F83A0000BF002084F83800A1
:1021400000BF0320BDE8F081206800682840A84255
:1021500001D1012000E00020B842D3D00020F1E7F7
:1021600000BFFEE737B514460846064B6A462146CF
:1021700000F0F8F804466946002000F08AFC20468A
:102180003EBD0000932A000802480068C0F3022008
:10219000704700000CED00E010B5002804DB0A07D2
:1021A000130E054A135406E00A07140E034A00F002
:1021B0000F031B1FD45410BD00E400E018ED00E035
:1021C00002E008C8121F08C1002AFAD17047704700
:1021D000002001E001C1121F002AFBD1704700005E
:1021E0002DE9FF5F82B00021DDE90430020DDDF84A
:1021F00040B0034318D044F61050A2F2FF324243DD
:102200001514119801281FD0A5EB0B00401C5FEAA4
:10221000000A4FF000064E4FDFF83891B0465046A6
:1022200015D5CAF1000413E0119801244AA301282E
:1022300001D16FEA0B010298119AC0E90031C0E99F
:10224000024206B0BDE8F09FCBF10000DFE7044694
:102250000021404A491842EB0450CDE9001012E039
:10226000E00707D032463B4640464946FEF7ECF8C9
:102270008046894632463B4610461946FEF7E4F84A
:1022800006460F466410002CEAD1DDE90401DDE9C1
:102290000023BAF1000F06DAFEF7D6F842464B46A5
:1022A000FEF7D2F805E0FEF741F942464B46FEF74D
:1022B0003DF904460E460022284BFEF7BFF903D82D
:1022C0004FF0FF30014607E00022254B2046314603
:1022D000FEF713F8FEF799F9102409E0002C0ADB49
:1022E0000A220023FDF78AFF039B30321A55641E31
:1022F00050EA0102F2D1641C039AC4F111031444A0
:10230000119A012A03D0012208430DD10AE00843A3
:1023100004D000204FF0110B119072E7A3EB0B05D6
:102320006D1E0DE05B4504DD4FF0000205F1010577
:1023300004E003DA4FF00002A5F10105002AECD019
:1023400002981199C0E90231C0E9004579E700001F
:10235000000014400000F03F300000000000F04397
:102360000000E03F2DE9FF4F95B09B4689460646A9
:1023700000250FE2252877D100242746F84A0121BD
:10238000059400E0044316F8013F203B01FA03F0F6
:102390001042F7D130782A2811D06FF02F0330780F
:1023A000A0F13002092A16D8059A44F0020402EB83
:1023B000820203EB42021044761C0590EFE759F8C5
:1023C000042B0592002A03DA504244F4005405908D
:1023D00044F00204761C30782E2816D116F8010F2E
:1023E00044F004042A280DD06FF02F023078A0F1B9
:1023F0003003092B09D807EB870302EB4303C71807
:10240000761CF3E759F8047B761C30786C280FD0E3
:1024100006DC4C2817D068280DD06A2814D104E0B7
:10242000742810D07A280FD10DE044F400140AE08B
:1024300044F4801401E044F440147278824202D1E2
:1024400004F58014761C761C307866280BD013DCDB
:10245000582877D009DC002875D04528F6D04628C2
:10246000F4D047281AD19DE118E0632835D06428BC
:1024700079D0652812D195E1702873D008DC6728DF
:10248000F1D069286FD06E280DD06F2806D1B5E045
:1024900073282CD0752875D0782874D05A4617998F
:1024A00090476D1C75E1C4F30250022809D003283F
:1024B0000DD0D9F8001004280DD00D6009F10409E1
:1024C00067E1D9F80010EA17C1E90052F6E7D9F838
:1024D00000100D80F2E70D70F0E719F8041B8DF87D
:1024E000001000208DF80100EA46012003E059F8B1
:1024F00004AB4FF0FF3061074FF0000102D40DE054
:1025000008F101018846B9420FDA8045F8DB1AF874
:1025100008100029F4D108E008F101018846814241
:10252000FADB1AF808100029F6D105985B46A0EBF3
:10253000080721463846179A00F094FA284400EB21
:10254000080507E04DE029E10DE01AF8010B5A46B5
:1025500017999047B8F10108F7D25B4621463846F3
:10256000179A13E142E00A220092C4F302524FF09C
:10257000000A022A08D059F804CB032A4FEAEC716A
:102580000AD00DE029E02AE009F1070121F0070255
:10259000F2E802C1914609E00FFA8CFC4FEAEC71B7
:1025A000042A03D14FFA8CFC4FEAEC71002907DAB8
:1025B0000A460021DCF1000C61EB02012D2202E051
:1025C000220504D52B228DF80420012203E0E20726
:1025D00001D02022F7E7904659E00A2102E01022BC
:1025E0000DE010214FF0000A00910BE010224FF097
:1025F000000A44F004040827009203E008224FF088
:10260000000A0092C4F30252022A05D059F804CB02
:102610000021032A08D009E009F1070121F007028F
:10262000F2E802C1914605E01FFA8CFC042A01D1B0
:102630000CF0FF0C4FF00008220728D5702806D0B8
:10264000009B83F0100353EA0A0305D00EE04022FA
:102650008DF80420012208E05CEA010206D0302255
:102660008DF804208DF8050002229046009B83F02F
:10267000080353EA0A030AD15CEA010201D16207A6
:1026800005D530228DF804204FF001087F1E582810
:1026900004D034A003900EA802900DE036A0F9E714
:1026A00053466046009AFDF7A9FD84460398825C74
:1026B0000298401E029002705CEA0100F0D102987C
:1026C00006A9081A00F1200A600702D524F4803414
:1026D00000E00127574502DDA7EB0A0000E00020DB
:1026E00000EB0A01009005984144401A0590E00370
:1026F00006D45B462146179A059800F0B3F90544C5
:10270000002706E001A85A46C05D179990476D1C46
:102710007F1C4745F6DBE0030CD55B462146179A44
:10272000059800F09FF9054404E030205A461799B7
:1027300090476D1C0099481E00900029F5DC08E0C8
:10274000029802995A460078491C029117999047BD
:102750006D1CBAF10001AAF1010AF1DC65E100008B
:102760000928010030313233343536373839616267
:10277000636465660000000030313233343536372B
:1027800038394142434445460000000000F058F902
:102790000544761C307800287FF4ECAD19B028464B
:1027A000BDE8F08F620700D4062709F1070222F086
:1027B000070CFCE80223E14603F000485FEA080C3E
:1027C00002D00FF2702C0DE05FEA045C02D50FF22C
:1027D000682C07E05FEAC47C02D00FF2602C01E0B5
:1027E000AFF2700C4FF0FF3823F00043CDF850C02B
:1027F00065280CD006DC452809D046281DD047287E
:102800003DD13DE0662818D067287ED138E0002110
:10281000112F01DB112000E0781CCDE9000106A991
:102820000EA8FFF7DDFCDDE90F010E9A03910021F0
:10283000009207F1010A04914DE04FF0004000972B
:10284000CDE9011006A90EA8FFF7CAFCDDE90F02C9
:1028500003920E9B11990022DDF80CA000930492C4
:1028600011B9791C00EB010AB7EB0A0004D4C0F1DE
:10287000FF3007F1010A0490AAEB0700019044E041
:10288000012F00DA01270021112F01DD112000E0C6
:102890003846CDE9000106A90EA8FFF7A1FCDDE945
:1028A0000F010E9A0391002104910092BA4621076C
:1028B0000CD40399514500DA8A46BAF1010F05DDBF
:1028C000009AAAF10101515C302908D0B84202DA1D
:1028D00010F1040F06DA0121CDE9011015E0AAF18B
:1028E0000101E9E7002805DC049901440491AAEB01
:1028F000000102E0411C514500DD8A460499401A5E
:10290000401C01904FF000400290200704D4019831
:10291000504501DBCDF8048000208DF84F0002986F
:102920000DF14F07B0F1004F25D02B200E900298EB
:102930004FF0020800280CDA404202902D200E9041
:1029400007E00A210298FDF7A3FC3031029007F856
:10295000011DB8F10001A8F10108F2DC029800287D
:10296000EFD1791E0E980870307800F0200040F00A
:10297000450007F8020D12A8C01B00F107081498C3
:10298000007800B1012000EB0A01019801EBE07131
:1029900005984144401A401E0590E00306D45B466A
:1029A0002146179A059800F05DF8054414980078C0
:1029B00018B15A46179990476D1CE00324D55B4621
:1029C0002146179A059800F04DF805441CE004983C
:1029D000002807DBDDE90301884203DD0098405C45
:1029E000179901E0179930205A469047049805F14D
:1029F0000105401C04900198401E019004D12E2036
:102A00005A46179990476D1CBAF10001AAF1010AC4
:102A1000DDDC05E017F8010B5A46179990476D1C4D
:102A2000B8F10001A8F10108F4DC5B462146179AD1
:102A30000598ABE62D0000002B00000020000000F0
:102A40002DE9F041044600251E461746880404D4AB
:102A500005E039462020B0476D1C641EF9D5284694
:102A6000BDE8F0812DE9F041044600251E46904660
:102A7000C80301D5302700E02027880404D505E0ED
:102A800041463846B0476D1C641EF9D52846BDE85E
:102A9000F0810A68531C0B601070704770477047D4
:102AA000F8B5044618A000F0C5FD2078451C601953
:102AB00050F8046C291F3246204600F0B9FC00286B
:102AC0001BD11FA000F0B6FD2078012100F002FC10
:102AD000E278A17822A000F0ADFDE178A07800F0C6
:102AE000F1FC00909DF8002011462DA000F0A2FD01
:102AF0000121684600F08EFC04E037A000F09AFD4A
:102B000000F0FAFBF8BD0000424C5F4445425547D7
:102B10005F4D53473A626F6F746C6F6164657220EA
:102B200068616E646C6520666C61736820657261B3
:102B3000736520537461747573200A0D00000000E2
:102B4000424C5F44454255475F4D53473A63686581
:102B5000636B73756D20737563636573200A0D0075
:102B6000424C5F44454255475F4D53473A73656356
:102B7000746F7220616E64206E6F206F66207365C3
:102B800063746F722020202020202020202020200D
:102B90002009093A2025642025640A0D0000000060
:102BA000424C5F44454255475F4D53473A666C611E
:102BB0007368206572617365207374617475732026
:102BC00020202020202020202020202009093A2019
:102BD00025642025780A0D00424C5F444542554744
:102BE0005F4D53473A636865636B5F73756D20662D
:102BF00061696C200A0D0000F8B5044614A000F0CD
:102C000019FD2078451C601950F8046C291F3246C4
:102C1000204600F00DFCA8B918A000F00BFD2078AC
:102C2000022100F057FB00F045FC0090BDF80020A9
:102C300011461AA000F0FEFC02273946684600F053
:102C4000E9FB04E01DA000F0F5FC00F055FBF8BD29
:102C5000424C5F44454255475F4D53473A626F6F60
:102C6000746C6F616465722068616E646C65206766
:102C7000657420766572200A0D000000424C5F44A6
:102C8000454255475F4D53473A636865636B7375BB
:102C90006D20737563636573200A0D00424C5F44B9
:102CA000454255475F4D53473A424C5F7665722027
:102CB0003A2025642025780A0D000000424C5F442C
:102CC000454255475F4D53473A636865636B5F7391
:102CD000756D206661696C200A0D000070B50446B0
:102CE0000FA000F0A7FC2078451C601950F8046C78
:102CF000291F3246204600F09BFB58B913A000F074
:102D000099FC20780C2100F0E5FA0C21174800F01E
:102D100081FB04E016A000F08DFC00F0EDFA70BD20
:102D2000424C5F44454255475F4D53473A626F6F8F
:102D3000746C6F616465722068616E646C65206795
:102D400065742068656C7020200A0D00424C5F4459
:102D5000454255475F4D53473A636865636B7375EA
:102D60006D20737563636573200A0D0026000020D3
:102D7000424C5F44454255475F4D53473A6368654F
:102D8000636B5F73756D206661696C200A0D0000CE
:102D9000F8B5044614A000F04DFC2078451C6019DD
:102DA00050F8046C291F3246204600F041FBA0B9C0
:102DB00019A000F03FFC2078012100F08BFA00F010
:102DC00071FB00909DF8002011461BA000F032FC22
:102DD0000121684600F01EFB04E020A000F02AFC60
:102DE00000F08AFAF8BD0000424C5F444542554766
:102DF0005F4D53473A626F6F746C6F616465722008
:102E000068616E646C65205244502053746174751F
:102E100073200A0D00000000424C5F4445425547B4
:102E20005F4D53473A636865636B73756D207375C7
:102E300063636573200A0D00424C5F444542554769
:102E40005F4D53473A524450205354417475732098
:102E50003A2025642025780A0D000000424C5F448A
:102E6000454255475F4D53473A636865636B5F73EF
:102E7000756D206661696C200A0D0000F8B5044686
:102E800014A000F0D7FB2078451C601950F8046CA2
:102E9000291F3246204600F0CBFAA0B918A000F056
:102EA000C9FB2078022100F015FA00F039FB0090F0
:102EB0009DF8002011461AA000F0BCFB01216846D5
:102EC00000F0A8FA04E01EA000F0B4FB00F014FA31
:102ED000F8BD0000424C5F44454255475F4D5347A3
:102EE0003A626F6F746C6F616465722068616E64C2
:102EF0006C652067657420766572200A0D000000FD
:102F0000424C5F44454255475F4D53473A636865BD
:102F1000636B73756D20737563636573200A0D00B1
:102F2000424C5F44454255475F4D53473A424C5FE0
:102F3000766572203A2025642025780A0D0000006D
:102F4000424C5F44454255475F4D53473A6368657D
:102F5000636B5F73756D206661696C200A0D0000FC
:102F60002DE9FC41044600200190012000901CA0A6
:102F700000F060FB2078461CA01950F8047C311F3B
:102F80003A46204600F054FA002822D120A000F052
:102F900051FB2078012100F09DF9D4F80250284619
:102FA00000F0C0FA9DF8041088420AD1012101A85E
:102FB00000F030FA6D1CA8461DA000F03BFBC04796
:102FC0000CE025A000F036FB0121684600F022FA53
:102FD00004E02AA000F02EFB00F08EF9BDE8FC8191
:102FE000424C5F44454255475F4D53473A626F6FCD
:102FF000746C6F616465722068616E646C652052E8
:10300000445020537461747573200A0D0000000051
:10301000424C5F44454255475F4D53473A636865AC
:10302000636B73756D20737563636573200A0D00A0
:10303000424C5F44454255475F4D53473A6A756D70
:1030400070696E6720746F207468652061646472B3
:10305000657373200A0D0000424C5F44454255479A
:103060005F4D53473A6164647265737320697320DE
:10307000696E76616C6964200A0D0000424C5F4401
:10308000454255475F4D53473A636865636B5F73CD
:10309000756D206661696C200A0D000070470000A4
:1030A0002DE9FC5F044600200190002701200090DC
:1030B0004FF0000B4FF0000894F8008094F8069051
:1030C000D4F8025014F808B01DA000F0B3FA20782C
:1030D000461CA01950F804AC311F5246204600F09F
:1030E000A7F9002825D122A000F0A4FA2078012118
:1030F00000F0F0F8294626A000F09CFA284600F0DF
:1031000011FAB8420DD12DA000F094FAE9B24A4666
:10311000E01D00F0ABF90190012101A800F07AF95F
:103120000CE02EA000F086FA0121684600F072F94A
:1031300004E033A000F07EFA00F0DEF8BDE8FC9F6A
:10314000424C5F44454255475F4D53473A626F6F6B
:10315000746C6F616465722068616E646C65206D6B
:10316000656D6F7279207772697465200A0D0000B1
:10317000424C5F44454255475F4D53473A6368654B
:10318000636B73756D20737563636573200A0D003F
:10319000424C5F44454255475F4D53473A206D6569
:1031A0006D6F7279207772697465206164647265ED
:1031B0007373202564200A0D00000000424C5F4418
:1031C000454255475F4D53473A2076616C6964200C
:1031D00061646472657373200A0D0000424C5F44A1
:1031E000454255475F4D53473A6164647265737356
:1031F00020697320696E76616C6964200A0D000095
:10320000424C5F44454255475F4D53473A636865BA
:10321000636B5F73756D206661696C200A0D000039
:103220007047704770B50BA000F004FA15480468A9
:10323000214615A000F0FEF9204680F3088800BF63
:10324000104845682E46294617A000F0F3F9B0470C
:1032500070BD0000424C5F44454255475F4D5347A7
:103260003A626F6F744C6F61646572206A756D703D
:1032700020746F20207573657220617070760A0D5E
:103280000000000000800008424C5F444542554762
:103290005F4D53473A6D73622076616C7565203AD5
:1032A0002025780A0D000000424C5F4445425547F6
:1032B0005F4D53473A726573657468616E646C65FF
:1032C000725F61646472657373203A2025780A0D19
:1032D0000000000038B505460C46A5208DF800001A
:1032E0008DF801404FF0FF33022269460148FEF796
:1032F00079FB38BD8400002008B57F2000904FF096
:10330000FF33012269460248FEF76CFB08BD00004E
:10331000840000202BA000F08DF951E04FF0FF3326
:1033200001222F492F48FEF7EDFA2D4804784FF07F
:10333000FF332246411C2B48FEF7E4FA2848407828
:1033400051380C2837D2DFE800F0060A0E12161AA0
:103350001E22262A2E322248FFF790FD2FE0204819
:10336000FFF7BCFC2BE01E48FFF746FC27E01C489B
:10337000FFF70EFD23E01A48FFF7F2FD1FE01848A3
:10338000FFF78EFB1BE01648FFF78AFE17E0144894
:10339000FFF785FB13E01248FFF780FE0FE01048AF
:1033A000FFF73FFF0BE00E48FFF73AFF07E00C483E
:1033B000FFF774FB03E00CA000F03CF900BF00BF76
:1033C000ACE7000077656C6C636F6D6520746F20EF
:1033D000636F6D6D616E64206C696E65200A0D000F
:1033E000C400002084000020496E76616C6964206E
:1033F000636F6D6D616E6420636F646520726563D9
:10340000697665642066726F6D20686F73740A0D4B
:103410000000000070B504460D464FF0FF332A4609
:1034200021460248FEF7DEFA70BD0000840000204D
:103430002DE9F84306460C4617464FF0FF080025D5
:1034400008E0705D0090224669460748FDF7FAFAE9
:1034500080466D1CA542F4D3B84502D10020BDE8DA
:10346000F8830120FBE70000000000202DE9F04177
:1034700005460E4617464FF00008FDF7CDFB002429
:1034800009E015F804C03119624600231846FDF71B
:1034900077FB8046641CBC42F3D3FDF767FB4046D4
:1034A000BDE8F081002002490A68C2F30720704796
:1034B00000C0FF1F00200249096888B27047000061
:1034C000002004E070B586B004460D46082C02D9F1
:1034D000002006B070BDFF2C01D0082C1ED2FF2C9E
:1034E00002D1012001900CE0C5F10801C8B285426B
:1034F00000D905460021019103940495022105910C
:1035000000BF01200290FDF787FB694601A8FDF787
:10351000D7FA0646FDF72AFB3046DAE70120D8E75E
:10352000AA2070470146B1F1005F04D30F488142E1
:1035300001D8002070470D48814204D30C488142D5
:1035400001D80020F6E70B48814204D30A488142A3
:1035500001D80020EEE7B1F1006F04D307488142A3
:1035600001D80020E6E70120E4E7000000C00120C8
:10357000000002200040024000800240FFFF0708D8
:1035800010B5FDF77BFCFEF755FBFEF7A9FAFEF739
:103590000FFBFEF729FBFEF793FA4FF400510848A2
:1035A000FDF74CFC20B907A000F044F8FFF7B2FE8D
:1035B00011A000F03FF8FFF735FE002010BD00001D
:1035C00000080240424C5F44454255475F4D534717
:1035D0003A427574746F6E2069732050726573730C
:1035E00065642E2E2E676F696E6720746F20426CA3
:1035F000206D6F64650A0D00424C5F44454255479B
:103600005F4D53473A427574746F6E206973206E34
:103610006F7420507265737365642E2E2E65786505
:10362000637574696E67207573657220617070765A
:103630000A0D00000FB410B596B019A8019002A8A9
:10364000019A1899FEF78EFD02A8FCF71AFE84B2C3
:103650004FF0FF33224602A90448FEF7C3F90020C9
:10366000019016B010BC5DF814FB0000440000206F
:103670000000000000000000010203040607080922
:103680000000000001020304A8360008000000202A
:1036900044000000C0210008EC360008440000206F
:1036A0006C050000D02100080000000000000000B0
:1036B00048656C6C6F207468697320697320746549
:1036C0007374696E6720756172740D0A000051523F
:1036D000535455565758595A5B5C0000000000007F
:0C36E00010000000010000000024F400B5
:04000005080001C529
:00000001FF
