:020000040800F2
:1080000070040020D98100089D9100087D9000082F
:1080100099910008F5820008DD9600080000000034
:10802000000000000000000000000000A191000816
:10803000F9820008000000009F910008A391000849
:10804000F3810008F3810008F3810008F381000840
:10805000F3810008F3810008F3810008F381000830
:10806000F3810008F3810008F3810008F381000820
:10807000F3810008F3810008F3810008F381000810
:10808000F3810008F3810008F3810008F381000800
:10809000F3810008F3810008F3810008F3810008F0
:1080A000F3810008F3810008F3810008F3810008E0
:1080B000F3810008F3810008F3810008F3810008D0
:1080C000F3810008F3810008F3810008F3810008C0
:1080D000F3810008F3810008F3810008F3810008B0
:1080E000FB820008F3810008F3810008F381000897
:1080F000F3810008F3810008F3810008F381000890
:10810000F3810008F3810008F3810008F38100087F
:10811000F3810008F3810008F3810008F38100086F
:10812000F3810008F3810008F3810008F38100085F
:10813000F38100080000000000000000F381000847
:10814000F3810008F3810008F3810008F38100083F
:10815000F3810008F3810008F3810008F38100082F
:10816000F3810008F3810008F3810008F38100081F
:10817000F3810008F3810008F3810008000000008B
:1081800000000000F3810008000000000000000073
:10819000F38100080000000000000000F3810008E7
:1081A000000000000000000000000000F381000853
:1081B000F3810008F3810008F3810008F3810008CF
:1081C000F3810008DFF80CD000F082F80048004787
:1081D0003997000870040020064880470648004789
:1081E000FEE7FEE7FEE7FEE7FEE7FEE7FEE7FEE767
:1081F000FEE7FEE769920008C58100082DE9F05FFF
:108200000546002092469B46884606468146402405
:108210001BE0284641464746224600F048F85346B0
:108220005A46C01A914110D311461846224600F012
:108230002FF82D1A67EB01084F4622460120002136
:1082400000F026F817EB00094E41201EA4F10104AE
:10825000DFDC484631462A464346BDE8F09FD2B2AD
:1082600001E000F8012B491EFBD270470022F6E71F
:1082700010B513460A4604461946FFF7F0FF20469C
:1082800010BD421C10F8011B0029FBD1801A704759
:10829000202A04DB203A00FA02F1002070479140C6
:1082A000C2F1200320FA03F3194390407047202ABB
:1082B00004DB203A21FA02F00021704721FA02F390
:1082C000D040C2F120029140084319467047000097
:1082D000064C074D06E0E06840F0010394E8070013
:1082E00098471034AC42F6D3FFF770FF8C97000824
:1082F000AC97000800BFFEE7704710B54FF4005080
:1083000000F018F810BD704770B5044600F01EF973
:1083100006462546681C10B104480078054400BF95
:1083200000F014F9801BA842FAD370BD2800002089
:108330007047000010B5044604480068204020B192
:10834000024804602046FFF7F3FF10BD143C0140D3
:10835000F8B502460B460025002400200021D7E096
:10836000012606FA01F51E6806EA0504AC4273D13F
:108370005E68012E08D05E68022E05D05E68112E60
:1083800002D05E68122E13D190684F000326BE40C3
:10839000B0434F00DE68BE40304390605068012615
:1083A0008E40B0431E79C6F300168E4030435060B5
:1083B000D0684F000326BE40B0434F009E68BE40C9
:1083C0003043D0605E68022E02D05E68122E13D158
:1083D000CF0802F1200656F827004E07F70E0F26A9
:1083E000BE40B0434F07FF0E1E69BE403043CF086A
:1083F00002F1200646F8270010684F000326BE4011
:10840000B0431E7906F003064F00BE4030431060B3
:108410005E6806F08056B6F1805F78D100BF002616
:1084200000963D4E366846F480463B4F3E603E46E1
:10843000366806F48046009600BF00BF374E8F08AE
:1084400056F827008E07370F0F26BE40B043344E34
:10845000B24202D100261FE059E0324EB24201D1B1
:10846000012619E0304EB24201D1022614E02F4E0F
:10847000B24201D103260FE02D4EB24201D10426B3
:108480000AE02C4EB24201D1052605E02A4EB24246
:1084900001D1062600E007268F073F0FBE4030437C
:1084A0001E4E8F0846F82700244E3068A0435E68B1
:1084B00006F48036B6F5803F00D120431F4E306071
:1084C000361D3068A0435E6806F40036B6F5003FFE
:1084D00000D12043194E361D3060361D3068A04350
:1084E0005E6806F48016B6F5801F00D12043134E57
:1084F00008363060361D3068A0435E6806F400160A
:10850000B6F5001F00D120430C4E0C363060491CDC
:108510001029FFF425AFF8BD443802400838014067
:10852000000002400004024000080240000C02402B
:10853000001002400014024000180240003C0140BC
:108540000AB1816101E00B04836170470148006852
:1085500070470000200000200348006803490978A4
:1085600008440149086070472000002028000020CE
:1085700010B50D48006840F400700B4908600846CB
:10858000006840F4806008600846006840F480702D
:108590000860032000F0A6F8002000F007F800F0C3
:1085A0002BF8002010BD0000003C024070B50446CE
:1085B0000E4800784FF47A71B1FBF0F00C4909686D
:1085C000B1FBF0F5284600F055FC08B1012070BD64
:1085D000102C07D200222146501E00F045F8054815
:1085E000046001E00120F2E70020F0E7280000200D
:1085F0002C0000202400002008B500BF00200090BF
:108600001048006840F480400E4908600846006841
:1086100000F48040009000BF00BF00BF0020009029
:10862000081F006840F08050091F08600846006875
:1086300000F08050009000BF00BF072000F052F80B
:1086400008BD00004438024001460846002809DB06
:1086500000F01F0301229A4043099B0003F1E0232D
:10866000C3F8002100BF70472DE9F05F80460D463A
:108670001646002701F034F8074639462A463346A5
:1086800001F00700C0F1070ABAF1040F02D94FF058
:10869000040A01E0C0F1070AD14600F1040ABAF168
:1086A000070F02D24FF0000A01E0A0F1030AD446FE
:1086B0004FF0010A0AFA09FAAAF1010A0AEA020AC3
:1086C0000AFA0CFA4FF0010B0BFA0CFBABF1010BA1
:1086D0000BEA030B4AEA0B042146404601F008F876
:1086E000BDE8F09F00BF00F00702064B19684FF687
:1086F000FF031940044B0B4343EA0221014B19606D
:1087000000BF70470CED00E00000FA0570B50446AC
:108710000D460CB9012070BD5848006800F00F00EC
:10872000A84209D255490D700846006800F00F00B4
:10873000A84201D00120EEE7207800F002000228D4
:108740001DD1207800F00400042805D14C480068B1
:1087500040F4E0504A490860207800F008000828FA
:1087600005D14748006840F46040454908604448E6
:10877000006820F0F000A1680843414908602078B3
:1087800000F00100A8B36068012807D13C48083810
:108790000068C0F34040B8B90120BCE76068022817
:1087A00002D06068032807D1354808380068C0F354
:1087B000406048B90120AEE7314808380068C0F38E
:1087C000400008B90120A6E72D48006820F003000A
:1087D000616808432A490860FFF7B8FE064609E0C9
:1087E000FFF7B4FE801B41F28831884202D9032092
:1087F00091E707E02248006800F00C006168B0EBE8
:10880000810FEDD11D48006800F00F00A84209D982
:108810001A490D700846006800F00F00A84201D008
:10882000012078E7207800F00400042807D11448DC
:10883000006820F4E050E16808431149086020789E
:1088400000F00800082808D10D48006820F46040B6
:10885000216940EAC1000A49086000F03FF8084970
:108860000968C1F30311074A515CC8400649086012
:1088700006480068FFF79AFE00204CE7003C0240E3
:1088800008380240749700082C00002024000020C3
:1088900001480068704700002C00002000B5FFF779
:1088A000F7FF04490968C1F38221034A515CC840BB
:1088B00000BD0000083802408497000800B5FFF7AB
:1088C000E7FF04490968C1F34231034A515CC840DB
:1088D00000BD000008380240849700082DE9F047E9
:1088E000002400250026A146A2463F48006800F06B
:1088F0000C0030B1042807D0082808D00C286BD110
:1089000038E0DFF8E8A06AE0DFF8E4A067E0364886
:10891000001F006800F03F043348001F006800F4A7
:10892000800078B132483049091F0968C1F38811C5
:10893000A0FB01700146224600233846FFF75EFC8B
:1089400005460DE029482849091F0968C1F3881127
:10895000A0FB0171224600233846FFF74FFC054675
:108960002148001F0068C0F30140401C4600B5FBD1
:10897000F6FA34E01C48001F006800F03F041A4873
:10898000001F006800F4800078B119481649091FDB
:108990000968C1F38811A0FB01700146224600233B
:1089A0003846FFF72BFC05460EE010480E49091F1C
:1089B0000968C1F38811A0FB01700146224600231B
:1089C0003846FFF71BFC05460748001F0068C0F348
:1089D0000279B5FBF9FA02E0DFF810A000BF00BF92
:1089E0005046BDE8F0870000083802400024F4003B
:1089F00000127A00F8B504460025207800F0010046
:108A000000286FD0FD48006800F00C0004281BD03F
:108A1000FA48006800F00C00082807D1F748001F4A
:108A2000006800F48000B0F5800F0DD0F3480068B6
:108A300000F00C000C2813D1F048001F006800F46F
:108A40008000B0F5800F0BD1EC4808380068C0F307
:108A50004040002859D06068002856D10120F8BD58
:108A600000BF6068B0F5803F08D1E448083800686E
:108A700040F48030E149083908601EE06068B0F5D4
:108A8000A02F0DD1DD480838006840F48020DB4974
:108A9000083908600846006840F4803008600CE03F
:108AA000D6480838006820F48030D4490839086076
:108AB0000846006820F48020086000BF606890B11C
:108AC000FFF744FD054606E0FFF740FD401B642824
:108AD00001D90320C3E7C94808380068C0F3404003
:108AE0000028F1D011E0FFF731FD054606E0FFF761
:108AF0002DFD401B642801D90320B0E7BF4808388A
:108B00000068C0F340400028F1D1207800F0020056
:108B100002286BD1B948006800F00C00B8B1B74822
:108B2000006800F00C00082805D1B448001F006858
:108B300000F4800058B1B148006800F00C000C2827
:108B40001CD1AE48001F006800F48000B0B9AB48EB
:108B500008380068C0F3400020B1E068012801D067
:108B600001207CE7A5480838006820F0F80021695A
:108B700040EAC100A1490839086037E0E06800B365
:108B800001209F490860FFF7E1FC054606E0FFF77A
:108B9000DDFC401B022801D9032060E79748083814
:108BA0000068C0F340000028F1D0944808380068FD
:108BB00020F0F800216940EAC100904908390860B6
:108BC00014E000208E490860FFF7C0FC054606E06F
:108BD000FFF7BCFC401B022801D903203FE7874870
:108BE00008380068C0F340000028F1D1207800F078
:108BF000080008282CD16069A8B1012081490860CB
:108C0000FFF7A4FC054606E0FFF7A0FC401B022886
:108C100001D9032023E779486C300068C0F3400095
:108C20000028F1D014E0002076490860FFF78EFCA0
:108C3000054606E0FFF78AFC401B022801D9032005
:108C40000DE76E486C300068C0F340000028F1D199
:108C5000207800F00400042870D1002667483830DE
:108C6000006800F0805090B900BF00200090634879
:108C70003830006840F0805060493831086008465C
:108C8000006800F08050009000BF00BF01265E48E1
:108C9000006800F48070B0B95B48006840F48070F0
:108CA00059490860FFF752FC054606E0FFF74EFC05
:108CB000401B022801D90320D1E65348006800F484
:108CC00080700028F2D000BFA068012808D14B486E
:108CD0006830006840F001004849683108601DE0D4
:108CE000A06805280DD145486830006840F00400B0
:108CF0004249683108600846006840F00100086099
:108D00000CE03E486830006820F001003B496831C3
:108D100008600846006820F00400086000BFA068F2
:108D2000A8B1FFF713FC054609E0FFF70FFC401B55
:108D300041F28831884202D9032090E626E02F488C
:108D400068300068C0F340000028EED013E0FFF761
:108D5000FDFB054608E0FFF7F9FB401B41F28831B7
:108D6000884201D903207AE6244868300068C0F3BD
:108D700040000028EFD1012E07D12048383000688C
:108D800020F080501D493831086000BFA069E8B369
:108D90001A48006800F00C00082862D0A069022878
:108DA0004AD1002016490866FFF7D0FB054606E0C9
:108DB000FFF7CCFB401B022801D903204FE60F48E8
:108DC00008380068C0F340600028F1D1D4E90701F9
:108DD0000843616A40EA81110122A06AC2EB500097
:108DE00041EA00412C20005D41EA00613020005D35
:108DF00041EA00700149091F086008E00838024094
:108E000000004742800E4742007000402BE00120E6
:108E100016490866FFF79AFB054606E0FFF796FB42
:108E2000401B022801D9032019E611480068C0F34D
:108E300040600028F2D016E000200C490866FFF7D9
:108E400085FB054606E0FFF781FB401B022801D9A0
:108E5000032004E606480068C0F340600028F2D111
:108E600001E00120FBE50020F9E500000000474299
:108E70000038024070B504462546681EB0F1807F78
:108E800001D301200FE0681E4FF0E02148610F215F
:108E90004FF0FF3000F02CFC00204FF0E021886103
:108EA00007200861002070BD10B504460CB90120F0
:108EB00010BDA06900B100E000BF94F8390028B9E6
:108EC000002084F83800204600F028F8242084F898
:108ED00039002068C06820F400502168C86020462E
:108EE00000F0D2F92068006920F490402168086100
:108EF0002068406920F02A00216848612068C06825
:108F000040F400502168C8600020E063202084F80D
:108F1000390084F83A000020CAE7000010B586B096
:108F20000446142101A8FFF7A1F91B4920688842D3
:108F30002FD100BF002000901848006840F4003096
:108F4000164908600846006800F40030009000BF31
:108F500000BF00BF0020009010481038006840F0AB
:108F600001000E49103908600846006800F0010051
:108F7000009000BF00BF0C20019002200290012051
:108F80000390032004900720059001A90448FFF7EF
:108F9000DFF906B010BD0000004400404038024038
:108FA000000002402DE9F84304460D4616461F46D0
:108FB0004FF0000994F8390020285DD105B116B9A9
:108FC0000120BDE8F88300BF94F83800012801D1E2
:108FD0000220F6E7012084F8380000BF0020E0639B
:108FE000212084F83900FFF7B1FA8146A684E6848F
:108FF00000BF002084F8380000BF2BE0E08C401E4A
:10900000E084A068B0F5805F16D14B460022802135
:109010002046009700F02CFB08B10320D1E7A846BA
:10902000B8F80000C0F3080021684860206908B95A
:10903000AD1C0FE06D1C0DE04B4600228021204648
:10904000009700F015FB08B10320BAE715F8010BF3
:1090500021684860E08C0028D0D14B460022402196
:109060002046009700F004FB08B10320A9E7202068
:1090700084F839000020A4E70220A2E700BFFEE741
:1090800000B587B0142102A8FFF7F0F800BF002058
:1090900001902F48006840F004002D490860084600
:1090A000006800F00400019000BF00BF00BF002076
:1090B00001900846006840F080000860084600689B
:1090C00000F08000019000BF00BF00BF00200190B1
:1090D0000846006840F0010008600846006800F09B
:1090E0000100019000BF00BF00BF002001900846B2
:1090F000006840F0020008600846006800F00200C6
:10910000019000BF00BF002220211248FFF718FA8B
:109110004FF400500290104803900020049002A9E0
:109120000E48FFF715F9202002900120039000203F
:109130000490059002A90748FFF70AF9002211469A
:109140002820FFF791FA2820FFF77EFA07B000BD2C
:1091500030380240000002400000211000080240A8
:1091600010B50B480B4908604FF4E130486000210E
:1091700008488160C16001610C2141610021816169
:10918000C161FFF791FE08B1FFF7BDF810BD000007
:10919000004400403000002000BFFEE770477047E9
:1091A000704710B5FFF7D8F910BD000000B593B0B7
:1091B000342106A8FFF75AF8142101A8FFF756F842
:1091C00000BF002000902648006840F080502449ED
:1091D00008600846006800F08050009000BF00BFA3
:1091E00000BF002000901F48006820F4404040F479
:1091F00080401C4908600846006800F44040009028
:1092000000BF00BF022006900120099010200A90A4
:1092100002200C9000210D9110210E914FF4A871A5
:109220000F910421109102211191129106A8FFF7CC
:10923000E1FB08B1FFF767F80F20019002200290D0
:10924000002003904FF480500490002005900221EC
:1092500001A8FFF75BFA08B1FFF755F813B000BD9E
:1092600040380240007000400548006840F470003B
:1092700003490860034802498039086070470000CC
:1092800088ED00E0008000082DE9F84F04462068D2
:10929000006920F44050E1680843216808612169B1
:1092A000A068084361690843E169084300902068A9
:1092B000C06849F20C618843009908432168C8607E
:1092C0002068406920F44070A16908432168486122
:1092D000E069B0F5004F75D1E3492068884203D0BA
:1092E000E249206888426FD1FFF7E8FA8146022000
:1092F0006168A0FB01510B461920A9FB00712A46A9
:109300003846FEF77BFF6421B0FBF1F04FEA001A0C
:1093100002206168A0FB01510B461920A9FB0071D6
:109320002A463846FEF76AFF074602206168A0FB1E
:1093300001510B461920A9FB00B12A465846FEF7F9
:109340005DFF6421B0FBF1F000EBC00101EB001008
:10935000A7EB8000322101EBC0006421B0FBF1F0EB
:1093600000F0F8000AEB400A02206168A0FB0151FE
:109370000B461920A9FB00712A463846FEF73EFF2E
:10938000074602206168A0FB01510B461920A9FB8A
:1093900000B12A465846FEF731FF6421B0FBF1F0D8
:1093A00000EBC00101EB0010A7EB8000322101EBC4
:1093B000C0006421B0FBF1F000F0070050442168C8
:1093C00088604FE16EE0FFE7FFF768FA8146022010
:1093D0006168A0FB01510B461920A9FB00712A46C8
:1093E0003846FEF70BFF6421B0FBF1F04FEA001A9C
:1093F00002206168A0FB01510B461920A9FB0071F6
:109400002A463846FEF7FAFE074602206168A0FBAE
:1094100001510B461920A9FB00B12A465846FEF718
:10942000EDFE6421B0FBF1F000EBC00101EB001098
:10943000A7EB8000322101EBC0006421B0FBF1F00A
:1094400000F0F8000AEB400A02206168A0FB01511D
:109450000B461920A9FB00712A463846FEF7CEFEBE
:10946000074602206168A0FB015003461920A9FBB2
:1094700000B12A465846FEF7C1FE6421B0FBF1F068
:1094800000EBC00101EB0010A7EB8000322101EBE3
:10949000C0006421B0FBF1F000F0070050442168E7
:1094A0008860DFE070492068884203D06F492068F7
:1094B00088426BD1FFF702FA814604206168A0FB65
:1094C00001510B461920A9FB00712A463846FEF7C8
:1094D00095FE824604206168A0FB01510B461920CD
:1094E000A9FB00712A463846FEF788FE6421B0FBCE
:1094F000F1F000EBC00101EB0010AAEB800032217B
:1095000001EB00106421B0FBF1F000F0F00A042040
:109510006168A0FB015003461920A9FB00712A468F
:109520003846FEF76BFE6421B0FBF1F00AEB001A3F
:1095300004206168A0FB01510B461920A9FB0071B2
:109540002A463846FEF75AFE074604206168A0FB0B
:10955000015003461920A9FB00B12A465846FEF7E0
:109560004DFE6421B0FBF1F000EBC00101EB0010F7
:10957000A7EB8000322101EB00106421B0FBF1F079
:1095800000F00F005044216888606BE0FFF786F917
:10959000814604206168A0FB015003461920A9FB05
:1095A00000712A463846FEF729FE8246042061688B
:1095B000A0FB015003461920A9FB00712A4638463A
:1095C000FEF71CFE6421B0FBF1F000EBC00101EBE3
:1095D0000010AAEB8000322101EB00106421B0FBE7
:1095E000F1F000F0F00A04206168A0FB015003468E
:1095F0001920A9FB00712A463846FEF7FFFD6421B9
:10960000B0FBF1F00AEB001A04206168A0FB0170C6
:1096100003461920A9FB005001463A462846FEF7AA
:10962000EDFD074604206168A0FB015003461920A8
:10963000A9FB00B12A465846FEF7E0FD6421B0FBC5
:10964000F1F000EBC00101EB0010A7EB800032212C
:1096500001EB00106421B0FBF1F000F00F0050446A
:1096600021688860BDE8F88F0010014000140140B7
:109670002DE9F04104460D4617469846069E21E026
:10968000701CF8B12EB1FEF761FFA0EB0800B042EC
:1096900018D92068C06820F4D0702168C86020689C
:1096A000406920F0010021684861202084F83900D9
:1096B00084F83A0000BF002084F8380000BF03207F
:1096C000BDE8F081206800682840A84201D101204F
:1096D00000E00020B842D3D00020F1E700BFFEE751
:1096E00002480068C0F30220704700000CED00E063
:1096F00010B5002804DB0A07130E054A135406E0D0
:109700000A07140E034A00F00F031B1FD45410BDA8
:1097100000E400E018ED00E002E008C8121F08C1F4
:10972000002AFAD170477047002001E001C1121FE2
:10973000002AFBD170470000FEF71AFFFFF736FD45
:10974000FFF79EFCFFF70CFD0EE00848FEF799FDC1
:1097500084B24FF0FF33224604490548FFF722FC4C
:109760004FF47A70FEF7D0FDEFE700000000002014
:10977000300000200000000000000000010203048F
:10978000060708090000000001020304AC97000866
:10979000000000203000000018970008DC97000847
:1097A00030000020400400002897000820757365F1
:1097B0007220636164652069732072756E6E696ED4
:1097C0006720776F726C64200A0D000000000000B3
:0C97D00010000000010000000024F40064
:04000005080081C5A9
:00000001FF
