:020000040800F2
:10000000808A002099020008D1130008811200089C
:10001000CD130008F5030008892400080000000043
:10002000000000000000000000000000D9010008EE
:10003000F90300080000000035020008BD1F000899
:10004000B3020008B3020008B3020008B3020008BC
:10005000B3020008B3020008B3020008B3020008AC
:10006000B3020008B3020008B3020008B30200089C
:10007000B3020008B3020008B3020008B30200088C
:10008000B3020008B3020008B3020008B30200087C
:10009000B3020008B3020008B3020008B30200086C
:1000A000B3020008B3020008B3020008B30200085C
:1000B000B3020008B3020008B3020008B30200084C
:1000C000B3020008B3020008B3020008B30200083C
:1000D000B3020008B3020008B3020008B30200082C
:1000E000FB030008B3020008B3020008B3020008D3
:1000F000B3020008B3020008B3020008B30200080C
:10010000B3020008B3020008B3020008B3020008FB
:10011000B3020008B3020008B3020008B3020008EB
:10012000B3020008B3020008B3020008B3020008DB
:10013000B30200080000000000000000B302000845
:10014000B3020008B3020008B3020008B3020008BB
:10015000B3020008B3020008B3020008B3020008AB
:10016000B3020008B3020008B3020008B30200089B
:10017000B3020008B3020008B30200080000000048
:1001800000000000B30200080000000000000000B2
:10019000B30200080000000000000000B3020008E5
:1001A000000000000000000000000000B302000892
:1001B000B3020008B3020008B3020008B30200084B
:1001C000B3020008DFF80CD000F002F90048004745
:1001D0008D280008808A00202C4B19680868B0E838
:1001E000F04F80F30988BFF36F8F4FF0000080F36A
:1001F000118870470000000008480068006880F31C
:1002000008884FF0000080F3148862B661B6BFF32F
:100210004F8FBFF36F8F00DF00BF00BF08ED00E01E
:10022000DFF80C00016841F470010160704700BF05
:1002300088ED00E0EFF30980BFF36F8F134B1A686E
:100240001EF0100F08BF20ED108A20E9F04F10605B
:1002500009B44FF0500080F31188BFF34F8FBFF304
:100260006F8F03F077F84FF0000080F3118809BC1E
:1002700019680868B0E8F04F1EF0100F08BFB0EC26
:10028000108A80F30988BFF36F8F70472400002025
:10029000EFF3058070470000064880470648004796
:1002A000FEE7FEE7FEE7FEE7FEE7FEE7FEE7FEE726
:1002B000FEE7FEE785200008C50100082DE9F05F94
:1002C0000546002092469B468846064681464024C5
:1002D0001BE0284641464746224600F069F853464F
:1002E0005A46C01A914110D311461846224600F0D2
:1002F00050F82D1A67EB01084F46224601200021D5
:1003000000F047F817EB00094E41201EA4F101044C
:10031000DFDC484631462A464346BDE8F09F40EAC6
:1003200001039B0703D009E008C9121F08C0042A73
:10033000FAD203E011F8013B00F8013B521EF9D25A
:100340007047D2B201E000F8012B491EFBD2704782
:100350000022F6E710B513460A4604461946FFF791
:10036000F0FF204610BD30B504460020034600E0F3
:100370005B1C934203D2E05CCD5C401BF8D030BDE7
:10038000034611F8012B00F8012B002AF9D1184679
:100390007047202A04DB203A00FA02F1002070475F
:1003A0009140C2F1200320FA03F3194390407047B3
:1003B000202A04DB203A21FA02F00021704721FABA
:1003C00002F3D040C2F12002914008431946704721
:1003D000064C074D06E0E06840F0010394E8070092
:1003E00098471034AC42F6D3FFF7F0FE403A0008CD
:1003F000603A000800BFFEE7704710B54FF40050A8
:1004000000F018F810BD704770B5044600F028F9E8
:1004100006462546681C10B104480078054400BF14
:1004200000F01EF9801BA842FAD370BD1C0000200A
:100430007047000010B5044604480068204020B111
:10044000024804602046FFF7F3FF10BD143C014052
:10045000F8B502460B460025002400200021D7E015
:10046000012606FA01F51E6806EA0504AC4273D1BE
:100470005E68012E08D05E68022E05D05E68112EDF
:1004800002D05E68122E13D190684F000326BE4042
:10049000B0434F00DE68BE40304390605068012694
:1004A0008E40B0431E79C6F300168E403043506034
:1004B000D0684F000326BE40B0434F009E68BE4048
:1004C0003043D0605E68022E02D05E68122E13D1D7
:1004D000CF0802F1200656F827004E07F70E0F2628
:1004E000BE40B0434F07FF0E1E69BE403043CF08E9
:1004F00002F1200646F8270010684F000326BE4090
:10050000B0431E7906F003064F00BE403043106032
:100510005E6806F08056B6F1805F78D100BF002695
:1005200000963D4E366846F480463B4F3E603E4660
:10053000366806F48046009600BF00BF374E8F082D
:1005400056F827008E07370F0F26BE40B043344EB3
:10055000B24202D100261FE059E0324EB24201D130
:10056000012619E0304EB24201D1022614E02F4E8E
:10057000B24201D103260FE02D4EB24201D1042632
:100580000AE02C4EB24201D1052605E02A4EB242C5
:1005900001D1062600E007268F073F0FBE403043FB
:1005A0001E4E8F0846F82700244E3068A0435E6830
:1005B00006F48036B6F5803F00D120431F4E3060F0
:1005C000361D3068A0435E6806F40036B6F5003F7D
:1005D00000D12043194E361D3060361D3068A043CF
:1005E0005E6806F48016B6F5801F00D12043134ED6
:1005F00008363060361D3068A0435E6806F4001689
:10060000B6F5001F00D120430C4E0C363060491C5B
:100610001029FFF425AFF8BD4438024008380140E6
:10062000000002400004024000080240000C0240AA
:10063000001002400014024000180240003C01403B
:1006400042690A408A4202D10A04826100E0816163
:1006500070470AB1816101E00B04836170470000BB
:10066000014800687047000014000020034800683B
:1006700003490978084401490860704714000020C4
:100680001C00002010B50D48006840F400700B49B4
:1006900008600846006840F480600860084600680A
:1006A00040F480700860032000F0A8F80F2000F0EC
:1006B00007F800F02BF8002010BD0000003C0240BD
:1006C00070B504460E4800784FF47A71B1FBF0F033
:1006D0000C490968B1FBF0F5284600F039FD08B176
:1006E000012070BD102C07D200222146501E00F0C0
:1006F00047F80548046001E00120F2E70020F0E738
:100700001C000020200000201800002008B500BFB9
:10071000002000901148006840F480400F490860B4
:100720000846006800F48040009000BF00BF00BF92
:1007300000200090081F006840F08050091F0860EA
:100740000846006800F08050009000BF00BF002203
:100750000F21901E00F014F808BD0000443802403C
:1007600001460846002809DB00F01F0301229A40D9
:1007700043099B0003F1E023C3F8002100BF704749
:100780002DE9F05F80460D461646002701F0F8FF80
:10079000074639462A46334601F00700C0F1070AEA
:1007A000BAF1040F02D94FF0040A01E0C0F1070AC0
:1007B000D14600F1040ABAF1070F02D24FF0000A45
:1007C00001E0A0F1030AD4464FF0010A0AFA09FA3F
:1007D000AAF1010A0AEA020A0AFA0CFA4FF0010B1E
:1007E0000BFA0CFBABF1010B0BEA030B4AEA0B040F
:1007F0002146404601F0CCFFBDE8F09F00BF00F06D
:100800000702064B19684FF6FF031940044B0B43D0
:1008100043EA0221014B196000BF70470CED00E074
:100820000000FA0570B504460D460CB9012070BDF4
:100830005848006800F00F00A84209D255490D70D1
:100840000846006800F00F00A84201D00120EEE742
:10085000207800F0020002281DD1207800F004006A
:10086000042805D14C48006840F4E0504A4908602B
:10087000207800F00800082805D14748006840F4B7
:100880006040454908604448006820F0F000A168D5
:10089000084341490860207800F00100A8B360686F
:1008A000012807D13C4808380068C0F34040B8B977
:1008B0000120BCE76068022802D06068032807D1E5
:1008C000354808380068C0F3406048B90120AEE7F9
:1008D000314808380068C0F3400008B90120A6E795
:1008E0002D48006820F00300616808432A49086029
:1008F000FFF7B6FE064609E0FFF7B2FE801B41F2A5
:100900008831884202D9032091E707E02248006835
:1009100000F00C006168B0EB810FEDD11D4800685C
:1009200000F00F00A84209D91A490D700846006866
:1009300000F00F00A84201D0012078E7207800F0F5
:100940000400042807D11448006820F4E050E1684E
:10095000084311490860207800F00800082808D1F1
:100960000D48006820F46040216940EAC1000A494E
:10097000086000F021F908490968C1F30311074A2A
:10098000515CC8400649086006480068FFF798FEB9
:1009900000204CE7003C024008380240643900085F
:1009A000200000201800002010B5FFF759FE044673
:1009B0006848006840F001006649086006E0FFF7FB
:1009C0004FFE001B022801D9032010BD61480068BA
:1009D00000F002000028F2D05E48006840F080007D
:1009E0005C490860FFF73CFE044600205949083185
:1009F000086008E0FFF734FE001B41F288318842AE
:100A000001D90320E1E753480830006800F00C00EA
:100A10000028EFD1FFF724FE04464E48006820F47A
:100A200050204C49086006E0FFF71AFE001B6428BE
:100A300001D90320C9E74748006800F400300028C6
:100A4000F2D1FFF70DFE04464248006820F08070A6
:100A50004049086006E0FFF703FE001B022801D9A9
:100A60000320B2E73B48006800F000700028F2D194
:100A7000FFF7F6FD04463748006820F080603549EE
:100A8000086006E0FFF7ECFD001B022801D90320F7
:100A90009BE73048006800F000600028F2D1FFF7C3
:100AA000DFFD04462B48006820F08050294908608B
:100AB00006E0FFF7D5FD001B022801D9032084E7DB
:100AC0002448006800F000500028F2D12248214953
:100AD000091D08601F49843108602048091D08600D
:100AE0001C480C30006820F4F8501A490C3108609A
:100AF0000846006820F4005008600846006820F4AA
:100B0000804008600846006840F41F0008600846FE
:100B1000006840F4001008600846006840F4800057
:100B200008600C487430006820F0010009497431F5
:100B300008600846006840F080700860084809496D
:100B4000086009480068FFF7BBFD08B101203CE7D9
:100B500000203AE700380240103000241030000432
:100B60000024F40020000020180000200148006844
:100B7000704700002000002000B5FFF7F7FF044990
:100B80000968C1F38221034A515CC84000BD0000DE
:100B9000083802407439000800B5FFF7E7FF044940
:100BA0000968C1F34231034A515CC84000BD0000EE
:100BB00008380240743900082DE9F0470024002568
:100BC0000026A146A2463F48006800F00C0030B164
:100BD000042807D0082808D00C286BD138E0DFF8AB
:100BE000E8A06AE0DFF8E4A067E03648001F00688C
:100BF00000F03F043348001F006800F4800078B123
:100C000032483049091F0968C1F38811A0FB0170FF
:100C10000146224600233846FFF750FB05460DE00B
:100C200029482849091F0968C1F38811A0FB0171EF
:100C3000224600233846FFF741FB05462148001FA6
:100C40000068C0F30140401C4600B5FBF6FA34E0F2
:100C50001C48001F006800F03F041A48001F00688D
:100C600000F4800078B119481649091F0968C1F3DA
:100C70008811A0FB01700146224600233846FFF789
:100C80001DFB05460EE010480E49091F0968C1F317
:100C90008811A0FB01700146224600233846FFF769
:100CA0000DFB05460748001F0068C0F30279B5FB3D
:100CB000F9FA02E0DFF810A000BF00BF5046BDE81F
:100CC000F0870000083802400024F40000127A0087
:100CD000F8B504460025207800F0010000286FD008
:100CE000FD48006800F00C0004281BD0FA4800689A
:100CF00000F00C00082807D1F748001F006800F436
:100D00008000B0F5800F0DD0F348006800F00C00B3
:100D10000C2813D1F048001F006800F48000B0F5E3
:100D2000800F0BD1EC4808380068C0F34040002821
:100D300059D06068002856D10120F8BD00BF606816
:100D4000B0F5803F08D1E4480838006840F48030AE
:100D5000E149083908601EE06068B0F5A02F0DD1A8
:100D6000DD480838006840F48020DB490839086015
:100D70000846006840F4803008600CE0D648083827
:100D8000006820F48030D4490839086008460068BB
:100D900020F48020086000BF606890B1FFF760FC1D
:100DA000054606E0FFF75CFC401B642801D90320E0
:100DB000C3E7C94808380068C0F340400028F1D0B4
:100DC00011E0FFF74DFC054606E0FFF749FC401B2C
:100DD000642801D90320B0E7BF4808380068C0F391
:100DE00040400028F1D1207800F0020002286BD1A9
:100DF000B948006800F00C00B8B1B748006800F0CE
:100E00000C00082805D1B448001F006800F48000D9
:100E100058B1B148006800F00C000C281CD1AE4855
:100E2000001F006800F48000B0B9AB4808380068C3
:100E3000C0F3400020B1E068012801D001207CE728
:100E4000A5480838006820F0F800216940EAC10090
:100E5000A1490839086037E0E06800B301209F49E4
:100E60000860FFF7FDFB054606E0FFF7F9FB401BB6
:100E7000022801D9032060E7974808380068C0F3CA
:100E800040000028F1D094480838006820F0F800AD
:100E9000216940EAC10090490839086014E0002047
:100EA0008E490860FFF7DCFB054606E0FFF7D8FB3C
:100EB000401B022801D903203FE787480838006813
:100EC000C0F340000028F1D1207800F00800082885
:100ED0002CD16069A8B1012081490860FFF7C0FBEF
:100EE000054606E0FFF7BCFB401B022801D90320A2
:100EF00023E779486C300068C0F340000028F1D047
:100F000014E0002076490860FFF7AAFB054606E0DA
:100F1000FFF7A6FB401B022801D903200DE76E480E
:100F20006C300068C0F340000028F1D1207800F058
:100F30000400042870D1002667483830006800F0AB
:100F4000805090B900BF002000906348383000689E
:100F500040F080506049383108600846006800F071
:100F60008050009000BF00BF01265E48006800F47A
:100F70008070B0B95B48006840F4807059490860DF
:100F8000FFF76EFB054606E0FFF76AFB401B0228F1
:100F900001D90320D1E65348006800F4807000288E
:100FA000F2D000BFA068012808D14B486830006823
:100FB00040F001004849683108601DE0A06805283C
:100FC0000DD145486830006840F00400424968315E
:100FD00008600846006840F0010008600CE03E48E8
:100FE0006830006820F001003B496831086008461D
:100FF000006820F00400086000BFA068A8B1FFF7F7
:101000002FFB054609E0FFF72BFB401B41F288311F
:10101000884202D9032090E626E02F486830006815
:10102000C0F340000028EED013E0FFF719FB05469F
:1010300008E0FFF715FB401B41F28831884201D9D7
:1010400003207AE6244868300068C0F34000002896
:10105000EFD1012E07D120483830006820F08050B1
:101060001D493831086000BFA069E8B31A4800681C
:1010700000F00C00082862D0A06902284AD10020A4
:1010800016490866FFF7ECFA054606E0FFF7E8FAAE
:10109000401B022801D903204FE60F48083800689A
:1010A000C0F340600028F1D1D4E907010843616A28
:1010B00040EA81110122A06AC2EB500041EA0041DE
:1010C0002C20005D41EA00613020005D41EA0070A3
:1010D0000149091F086008E0083802400000474243
:1010E000800E4742007000402BE001201649086640
:1010F000FFF7B6FA054606E0FFF7B2FA401B0228F2
:1011000001D9032019E611480068C0F340600028A7
:10111000F2D016E000200C490866FFF7A1FA054658
:1011200006E0FFF79DFA401B022801D9032004E6E0
:1011300006480068C0F340600028F2D101E00120B9
:10114000FBE50020F9E500000000474200380240BE
:1011500070B504462546681EB0F1807F01D301209A
:101160000FE0681E4FF0E02148610F214FF0FF3083
:1011700001F00EFB00204FF0E0218861072008619C
:10118000002070BD10B504460CB9012010BDA06947
:1011900000B100E000BF94F8390028B9002084F8BD
:1011A0003800204600F028F8242084F83900206810
:1011B000C06820F400502168C860204600F070FF2D
:1011C0002068006920F49040216808612068406927
:1011D00020F02A00216848612068C06840F400506F
:1011E0002168C8600020E063202084F8390084F87A
:1011F0003A000020CAE7000010B586B0044614216A
:1012000001A8FFF7A5F81B49206888422FD100BF2D
:10121000002000901848006840F40030164908602B
:101220000846006800F40030009000BF00BF00BF17
:101230000020009010481038006840F001000E496E
:10124000103908600846006800F00100009000BFF7
:1012500000BF0C2001900220029001200390032087
:1012600004900720059001A90448FFF7F1F806B0A3
:1012700010BD000000440040403802400000024021
:1012800000BFFEE707E020210348FFF7D9F94FF43C
:10129000FA70FFF7B9F8F6E70000024007E04021D6
:1012A0000348FFF7CDF94FF4FA70FFF7ADF8F6E712
:1012B0000000024000B587B0142102A8FFF748F8EB
:1012C00000BF002001902F48006840F004002D4925
:1012D00008600846006800F00400019000BF00BFED
:1012E00000BF002001900846006840F080000860C0
:1012F0000846006800F08000019000BF00BF00BFFA
:10130000002001900846006840F00100086008468F
:10131000006800F00100019000BF00BF00BF002086
:1013200001900846006840F0020008600846006826
:1013300000F00200019000BF00BF002260211248AF
:10134000FFF787F94FF400500290104803900020F7
:10135000049002A90E48FFF77BF82020029001209C
:10136000039000200490059002A90748FFF770F849
:10137000002205212820FFF703FA2820FFF7F0F9C3
:1013800007B000BD303802400000024000002110CC
:101390000008024010B50B480B4908604FF4E130DB
:1013A0004860002108488160C16001610C214161F1
:1013B00000218161C161FFF7E5FE08B1FFF723F865
:1013C00010BD0000004400409800002000BFFEE770
:1013D000704700002DE9F04704460E461746984630
:1013E000DDF8209000BF2448007808B901F04EF8DD
:1013F00000BF21484069A04239D9EFF31181084666
:10140000202181F3118800BF00BF0CB304EB44021C
:101410001949603141F8326004EB440201EBC2012A
:101420004F6004EB44021449603101EBC201C1F882
:101430000880002204EB44030F49603101EBC30133
:101440000A6104EB44030C49603101EBC301CA603B
:1014500004EB44020849603101EBC201C1F8149069
:10146000C1B281F3118800BF00BF002501E04FF039
:10147000FF352846BDE8F0871C4000202DE9F047E5
:1014800004460E4617469846DDF8209000BF2448D3
:10149000007808B900F0FAFF00BF21480069A042B7
:1014A00039D9EFF311810846202181F3118800BF5B
:1014B00000BF0CB304EB44021949183141F8326003
:1014C00004EB440201EBC2014F6004EB44021449F7
:1014D000183101EBC201C1F80880002204EB44037B
:1014E0000F49183101EBC3010A6104EB44030C49B5
:1014F000183101EBC301CA6004EB440208491831FA
:1015000001EBC201C1F81490C1B281F3118800BF90
:1015100000BF002501E04FF0FF352846BDE8F08709
:101520001C4000202DE9F74F8346174600BF224894
:10153000007808B900F0AAFF00BF0BEB4B011E4872
:10154000603000EBC106DDF804903569D6F80CA0D8
:101550004FF00008554515D9B068441BBC4201D274
:10156000204600E038460446706841192246484645
:10157000FEF7D5FEA044A1443F1B2544B068A84215
:1015800000D10025AAEB0504BC4201D2204600E0B0
:10159000384604464CB17068411922464846FEF769
:1015A000BEFEA044A1443F1B2544B8F1000F00D06B
:1015B00035614046BDE8FE8F1C4000202DE9F84F04
:1015C00082468B461646CDF800B00AEB4A01264803
:1015D00000EBC104D4F81090E568A94533D8A068A1
:1015E000401E471BB7420AD361684819324600992A
:1015F000FEF795FEA819E0600120BDE8F88F4F4482
:10160000B7422FD3A068A0EB0508B04508D96168A0
:10161000481932460099FEF782FEA819E06010E0F2
:101620006168481942460099FEF779FEA6EB080268
:10163000009B03EB08016068FEF771FEA6EB080053
:10164000E0600120D9E7A9EB0500471EB74209D3A6
:101650006168481932460099FEF761FEA819E060FA
:101660000120CAE70020C8E73440002010B5064B2F
:10167000064A07480168006800F06AF84FF0005019
:1016800000F03EFB10BD0000152800089839000846
:101690002000002070B5EFF311800646202080F373
:1016A000118800BF00BF284800F096FF05462C4671
:1016B0002046264A516805E0CAB242F0800200F88E
:1016C000012BC9097F29F7D800F8011B04462046E1
:1016D0001E4A916805E0CAB242F0800200F8012B70
:1016E000C9097F29F7D800F8011B04462046174A8C
:1016F000116905E0CAB242F0800200F8012BC90965
:101700007F29F7D800F8011B04462046022105E096
:10171000CAB242F0800200F8012BC9097F29F7D82C
:1017200000F8011B044618222146284600F058FF05
:10173000F0B280F3118800BF00BF0448406A10B1C6
:101740000249486A804770BDFC840020D484002090
:10175000F8B504460D4617461E4600204FF4804358
:101760000E4A0FA100900120FFF788FE00200823F9
:101770000D4A0BA100900120FFF72CFE4FF0805086
:101780000A4908610A484068C86008460762446020
:101790008560466200200870F8BD0000D444002037
:1017A000537973566965770084000020D484002043
:1017B000001000E070B5EFF311800446202080F3A4
:1017C000118800BF00BF074800F006FF0546112240
:1017D0002946284600F004FFE0B280F3118800BFDC
:1017E00000BF70BDFC8400202DE9F0410446EFF3FA
:1017F00011800746202080F3118800BF00BF1148E8
:1018000000F0EAFE05462E460F480069201A8408BB
:101810003046214605E0CAB242F0800200F8012BB2
:10182000C9097F29F7D800F8011B0646082231466E
:10183000284600F0D5FEF8B280F3118800BF00BF43
:10184000BDE8F081FC840020D48400202DE9F04123
:101850000446EFF311800746202080F3118800BF73
:1018600000BF114800F0B8FE05462E460F4800693B
:10187000201A84083046214605E0CAB242F08002B0
:1018800000F8012BC9097F29F7D800F8011B06468B
:1018900004223146284600F0A3FEF8B280F31188F6
:1018A00000BF00BFBDE8F081FC840020D48400208C
:1018B0002DE9F0410446EFF311800746202080F324
:1018C000118800BF00BF114800F086FE05462E4675
:1018D0000F480069201A84083046214605E0CAB244
:1018E00042F0800200F8012BC9097F29F7D800F8DF
:1018F000011B064606223146284600F071FEF8B26A
:1019000080F3118800BF00BFBDE8F081FC84002097
:10191000D484002070B50C48006A78B10A48006A87
:10192000006858B10849096A0868804704460D46AE
:101930002A4621460D2000F039F804E003484168AA
:101940000C2000F005F870BDD4840020001000E0E9
:101950002DE9F04105460E46EFF311808046202028
:1019600080F3118800BF00BF0F4800F035FE044629
:1019700027463846314605E0CAB242F0800200F8F8
:10198000012BC9097F29F7D800F8011B07462A4611
:101990003946204600F024FE08F0FF0080F311884D
:1019A00000BF00BFBDE8F081FC8400202DE9F047B6
:1019B00006460F469046EFF311808146202080F3C3
:1019C000118800BF00BF174800F006FE05462C46F0
:1019D0002046394605E0CAB242F0800200F8012BE9
:1019E000C9097F29F7D800F8011B04462046414663
:1019F00005E0CAB242F0800200F8012BC9097F2934
:101A0000F7D800F8011B044632462146284600F06C
:101A1000E7FD09F0FF0080F3118800BF00BFBDE8BB
:101A2000F0870000FC84002070B50446EFF31180BD
:101A30000546202080F3118800BF00BF074800F052
:101A4000CBFD064622463146304600F0C9FDE8B2DD
:101A500080F3118800BF00BF70BD0000FC8400202F
:101A60002DE9F047064627480068002847D025485A
:101A70000468002703E0246904B902E07F1CB74230
:101A8000F9D300BF002C3AD0EFF31180814620201B
:101A900080F3118800BF00BF1B4800F09DFD804609
:101AA00045462846314605E0CAB242F0800200F8B9
:101AB000012BC9097F29F7D800F8011B05462846E4
:101AC000A16805E0CAB242F0800200F8012BC90902
:101AD0007F29F7D800F8011B054680222846216897
:101AE00000F00CFD054616222946404600F078FD20
:101AF00009F0FF0080F3118800BF00BF00BFBDE800
:101B0000F08700008C000020FC84002010B50748FE
:101B1000006848B10548046800BFE06808B1E068A3
:101B200080472469002CF8D110BD00008C000020F3
:101B300070B5EFF311800646202080F3118800BFB6
:101B400000BF0F4800F048FD0446254628460D4AD0
:101B5000117805E0CAB242F0800200F8012BC909F1
:101B60007F29F7D800F8011B05461B22294620468D
:101B700000F036FDF0B280F3118800BF00BF70BDE9
:101B8000FC840020900000202DE9F0410446EFF392
:101B900011800546202080F3118800BF00BF0B484C
:101BA00000F01AFD074680222146384600F0A6FCC8
:101BB00006460E223146384600F012FDE8B280F3A8
:101BC000118800BF00BFBDE8F0810000FC84002048
:101BD0002DE9F0410546EFF311800746202080F300
:101BE000118800BF00BF3C4800F0F6FC06463446B2
:101BF00020463A4B2A681B69D21A910805E0CAB2FE
:101C000042F0800200F8012BC9097F29F7D800F8BB
:101C1000011B04462046A96805E0CAB242F08002D2
:101C200000F8012BC9097F29F7D800F8011B0446E9
:101C300020222046696800F061FC04460922214602
:101C4000304600F0CDFC34462046244B2A681B6900
:101C5000D21A910805E0CAB242F0800200F8012BC6
:101C6000C9097F29F7D800F8011B04462046E96816
:101C700005E0CAB242F0800200F8012BC9097F29B1
:101C8000F7D800F8011B04462046296905E0CAB2CE
:101C900042F0800200F8012BC9097F29F7D800F82B
:101CA000011B04462046002105E0CAB242F0800232
:101CB00000F8012BC9097F29F7D800F8011B044659
:101CC00015222146304600F08BFCF8B280F31188D3
:101CD00000BF00BFBDE8F081FC840020D484002058
:101CE00010B50648006A38B10448006A406818B167
:101CF0000249096A4868804710BD0000D48400206A
:101D00000149086170470000D484002070B53D4847
:101D10000078002875D101203A490870EFF311804E
:101D20000446202080F3118800BF00BF0A223649F4
:101D30000120FFF743FCE0B280F3118800BF00BF31
:101D40000A20FFF771FEEFF311800646202080F392
:101D5000118800BF00BF2D4800F03EFC05462C4610
:101D60002046284A516805E0CAB242F0800200F8D5
:101D7000012BC9097F29F7D800F8011B044620462A
:101D8000204A916805E0CAB242F0800200F8012BB7
:101D9000C9097F29F7D800F8011B04462046194AD3
:101DA000116905E0CAB242F0800200F8012BC909AE
:101DB0007F29F7D800F8011B04462046022105E0E0
:101DC000CAB242F0800200F8012BC9097F29F7D876
:101DD00000F8011B044618222146284600F000FCAA
:101DE000F0B280F3118800BF00BF0648406A10B10E
:101DF0000449486A8047FFF78DFDFFF771FFFFF741
:101E000097FE70BDD48400207C390008FC8400203B
:101E100070B5EFF311800546202080F3118800BFD4
:101E200000BF0A4800F0D8FB04460948007838B1E2
:101E30000B222146204600F0D3FB00200449087005
:101E4000E8B280F3118800BF00BF70BDFC840020A1
:101E5000D48400202DE9F0410546EFF311800646B9
:101E6000202080F3118800BF00BF194800F0B4FBA8
:101E7000074680222946384600F040FB04462046AB
:101E8000012105E0CAB242F0800200F8012BC90925
:101E90007F29F7D800F8011B04462046002105E001
:101EA000CAB242F0800200F8012BC9097F29F7D895
:101EB00000F8011B04461A222146384600F090FB28
:101EC000F0B280F3118800BF00BFBDE8F0810000D0
:101ED000FC8400202DE9F84305460C4616461F46B3
:101EE000DDF82080052221A12046FEF73CFA08B942
:101EF000BDE8F8831F480068082803D31E48FFF791
:101F0000A9FFF5E71B48006800EB80001B4941F87A
:101F100020501848006800EB800001EB800044600E
:101F20001448006800EB800001EB800086601148D7
:101F3000006800EB800001EB8000C7600D4800687E
:101F400000EB800001EB8000C0F8108009480068B9
:101F5000401C084908603B46324621462846CDF8D9
:101F6000008000F00DF800BFC2E7000049444C4576
:101F70000000000094000020F0390008E0850020F7
:101F80002DE9F04186B004460D4616461F46DDF8A1
:101F90003080142101A8FEF7DBF901940295039625
:101FA0000497CDF8148001A8FFF712FE06B0BDE833
:101FB000F08100BF012000F0B8FCFBE710B5FEF790
:101FC00055FB00F0C3FC10BD00B593B0342106A84A
:101FD000FEF7BEF9142101A8FEF7BAF900BF0020F0
:101FE00000902648006840F0805024490860084668
:101FF000006800F08050009000BF00BF00BF0020CC
:1020000000901F48006820F4404040F480401C4984
:1020100008600846006800F44040009000BF00BF20
:10202000022006900120099010200A9002200C90B6
:1020300000210D9110210E914FF4A8710F910421F0
:10204000109102211191129106A8FEF741FE08B1EC
:10205000FEF7D9F90F200190022002900020039092
:102060004FF48050049000200590022101A8FEF753
:10207000D9FB08B1FEF7C7F913B000BD40380240E4
:10208000007000400548006840F470000349086093
:102090004FF00060014980390860704788ED00E02A
:1020A0002DE9F84F04462068006920F44050E168AB
:1020B0000843216808612169A068084361690843F1
:1020C000E169084300902068C06849F20C618843C8
:1020D000009908432168C8602068406920F4407076
:1020E000A169084321684861E069B0F5004F75D1E6
:1020F000E3492068884203D0E249206888426FD1D2
:10210000FEF74AFD814602206168A0FB01510B46A3
:102110001920A9FB00712A463846FEF7CFF8642142
:10212000B0FBF1F04FEA001A02206168A0FB0151F8
:102130000B461920A9FB00712A463846FEF7BEF867
:10214000074602206168A0FB01510B461920A9FB3C
:1021500000B12A465846FEF7B1F86421B0FBF1F011
:1021600000EBC00101EB0010A7EB8000322101EB76
:10217000C0006421B0FBF1F000F0F8000AEB400A67
:1021800002206168A0FB01510B461920A9FB0071D8
:102190002A463846FEF792F8074602206168A0FBFF
:1021A00001510B461920A9FB00B12A465846FEF7FB
:1021B00085F86421B0FBF1F000EBC00101EB0010E9
:1021C000A7EB8000322101EBC0006421B0FBF1F0ED
:1021D00000F007005044216888604FE16EE0FFE79F
:1021E000FEF7CAFC814602206168A0FB01510B4644
:1021F0001920A9FB00712A463846FEF75FF86421D2
:10220000B0FBF1F04FEA001A02206168A0FB015117
:102210000B461920A9FB00712A463846FEF74EF8F6
:10222000074602206168A0FB01510B461920A9FB5B
:1022300000B12A465846FEF741F86421B0FBF1F0A0
:1022400000EBC00101EB0010A7EB8000322101EB95
:10225000C0006421B0FBF1F000F0F8000AEB400A86
:1022600002206168A0FB01510B461920A9FB0071F7
:102270002A463846FEF722F8074602206168A0FB8E
:10228000015003461920A9FB00B12A465846FEF723
:1022900015F86421B0FBF1F000EBC00101EB001078
:1022A000A7EB8000322101EBC0006421B0FBF1F00C
:1022B00000F00700504421688860DFE07049206822
:1022C000884203D06F49206888426BD1FEF764FCD6
:1022D000814604206168A0FB01510B461920A9FB2F
:1022E00000712A463846FDF7E9FF824604206168FE
:1022F000A0FB01510B461920A9FB00712A46384664
:10230000FDF7DCFF6421B0FBF1F000EBC00101EB55
:102310000010AAEB8000322101EB00106421B0FB19
:10232000F1F000F0F00A04206168A0FB01500346C0
:102330001920A9FB00712A463846FDF7BFFF64212A
:10234000B0FBF1F00AEB001A04206168A0FB015118
:102350000B461920A9FB00712A463846FDF7AEFF4F
:10236000074604206168A0FB015003461920A9FB21
:1023700000B12A465846FDF7A1FF6421B0FBF1F0F9
:1023800000EBC00101EB0010A7EB8000322101EB54
:1023900000106421B0FBF1F000F00F005044216800
:1023A00088606BE0FEF7E8FB814604206168A0FBD3
:1023B000015003461920A9FB00712A463846FDF753
:1023C0007DFF824604206168A0FB0150034619206E
:1023D000A9FB00712A463846FDF770FF6421B0FB67
:1023E000F1F000EBC00101EB0010AAEB80003221FC
:1023F00001EB00106421B0FBF1F000F0F00A0420C2
:102400006168A0FB015003461920A9FB00712A4610
:102410003846FDF753FF6421B0FBF1F00AEB001AD8
:1024200004206168A0FB017003461920A9FB00503D
:1024300001463A462846FDF741FF074604206168F9
:10244000A0FB015003461920A9FB00B12A465846BB
:10245000FDF734FF6421B0FBF1F000EBC00101EBAC
:102460000010A7EB8000322101EB00106421B0FBCB
:10247000F1F000F00F00504421688860BDE8F88F4B
:10248000001001400014014000BFFEE710B5124CDF
:1024900003202061606111A0A0611349E1614FF444
:1024A000806121620021A1626162E1620BA020666D
:1024B0000E4961661021A16600212167E16661670E
:1024C0000BA1E01DFDF75CFF0AA12046FDF758FFB8
:1024D0002020A07110BD00001C4000205465726DCA
:1024E000696E616C00000000C4400020C4440020FC
:1024F00052545400534547474552000030B50B46EF
:10250000002100E0491C5D5C002DFBD1914200D907
:102510001146FF2902D200F8011B07E0FF2500F851
:10252000015B00F8011B0D0A00F8015B002404E0C8
:1025300013F8015B00F8015B641C8C42F8D330BDDA
:1025400038B5012269461046FEF7ECFF0446002C20
:1025500041DD9DF8000005281CD008DC01280DD0C5
:1025600002280ED003280FD0042829D10FE0062816
:1025700013D0072814D0802822D114E0FFF7C6FB1F
:1025800028E0FFF745FC25E0FFF7C4F922E0FFF75C
:10259000A7FB1FE0FFF77EF81CE0FFF7C9FA19E080
:1025A000FFF7B4FA16E0012269461046FEF7BAFFBB
:1025B0000446002C03DD9DF80000FFF751FA09E006
:1025C0009DF80000802804DB012269461046FEF7D2
:1025D000A9FF00BF00BF38BD0146081D70470000BD
:1025E0002DE9F04704460F4615464148007801287A
:1025F00000D10FE03E48007800B965E03C48007823
:10260000022806D100F07AF839480078012800D075
:102610005AE000BF202D06D23548C0690121A940EB
:10262000084000B150E0182D03D2601E044605702A
:1026300022E03E1B7F2E0BD9C6F3C711601E044655
:102640000170F0B240F08001601E0446017002E0AB
:10265000601E044606707F2D0BD9C5F3C711601E9E
:1026600004460170E8B240F08001601E044601702B
:1026700002E0601E044605701E48D0F804801C4825
:10268000C068A8EB000A3846514605E0CAB242F0DD
:10269000800200F8012BC9097F29F7D800F8011B37
:1026A00007463A1B21460120FEF788FF8146B9F113
:1026B000000F03D00E48C0F80C8004E00C480078EE
:1026C000401C0B49087000BF0B48D0F88410D0F8AC
:1026D0008800081A0AD00648807838B901200449D1
:1026E0008870FFF72DFF002001498870BDE8F08752
:1026F000D4840020001000E01C400020FEB5012022
:102700008DF800000DF1010630461B4A516905E0C5
:10271000CAB242F0800200F8012BC9097F29F7D81C
:1027200000F8011B0646154844681348C068271A7C
:102730003046394605E0CAB242F0800200F8012B6B
:10274000C9097F29F7D800F8011B06466846321AE6
:1027500069460120FEF732FF054635B10648C460E0
:102760000078401E0449087004E003484069401C9A
:10277000014948612846FEBDD4840020001000E0D5
:1027800002480068C0F30220704700000CED00E032
:1027900010B5002804DB0A07130E054A135406E09F
:1027A0000A07140E034A00F00F031B1FD45410BD78
:1027B00000E400E018ED00E002E008C8121F08C1C4
:1027C000002AFAD170477047002001E001C1121FB2
:1027D000002AFBD170472DE9F04100F07FFF002572
:1027E0000446012100202246A2FB016705FB01717E
:1027F00004FB001534464FF47A7200212046A0FBFA
:10280000026705FB027204FB012534462046294677
:10281000BDE8F08110B50348FFF7B6F902A0FFF755
:10282000B3F910BDAC390008492331353D537973F4
:102830005469636B00000000F8B500241DE004EB50
:102840008400104901EB8000006904EB84050E460A
:1028500006EB85050090EB6804EB840506EB850527
:10286000AA6804EB840506EB8505696804EB84051A
:1028700056F82500FFF784FB641C03480068844277
:10288000DDD3F8BDE0850020940000208AB01A480E
:10289000006840F0010018490860FDF7F3FEFFF7FB
:1028A00093FBFEF781F8FEF705FDFEF773FDFEF7DB
:1028B000DDFE1C22114903A8FDF731FD002103A80C
:1028C00000F04CF80E4908600020012103460A027E
:1028D000CDE900100BA10D4800F062FE002001219F
:1028E00003460A02CDE9001009A10B4800F058FE8A
:1028F00000F027F800BFFEE7001000E048390008AC
:10290000000000207461736B2D31000085120008F7
:102910007461736B2D3200009D1200080146002087
:10292000842901D0CA1C1044704770B5044625465E
:102930000DB1294600E00121084600F079FC002095
:1029400070BD10B500F0A6FC002010BD10B500F061
:10295000B5FE012801D000F009FE10BD7FB5044688
:102960000D46606998B1A06988B1B4F90800FFF715
:10297000D5FF0646D4E90510CDE9006102902B464B
:102980002269D4E9001000F03DFE039013E0B4F991
:102990000800FFF7C3FF064603A8CDE90060238ABD
:1029A0009AB22B46D4E9001000F0FAFD012802D0BB
:1029B000002004B070BD0398FBE700002DE9F04152
:1029C00005460E461C4807681C480068001D00F0BC
:1029D000F7FA50B91948006890F82C100120884087
:1029E00017490968814316480160681C38B936B137
:1029F00012480168091D134800F02CFB1AE07C19ED
:102A00000E4800684460BC4207D20C480168091DAA
:102A10000D48006800F004FB0CE008480168091D3F
:102A20000A48006800F0FCFA09480068844201D2B4
:102A300007480460BDE8F081380000202400002031
:102A40003C000020080400202C000020280000206A
:102A50005400002038B5044600F008FB2C480068FC
:102A6000401C2B4908602B48006840B92948046085
:102A70000846006801280DD100F04CF90AE026480C
:102A8000006838B923480068C06AE16A884201D802
:102A90002048046021480068401C204908606CB14F
:102AA0002046FEF7A1FE216B2068401A009004F139
:102AB00034012046D4E90B23FFF70CFA2046FEF739
:102AC000F7FE94F82C100120884015490968084346
:102AD00013490860E16A01EB8101124A02EB8100AF
:102AE000211D00F0B7FA00F0EBFA0B48006868B15E
:102AF00008480068C06AE16A884207D24FF08050F7
:102B000009490860BFF34F8FBFF36F8F38BD0000D6
:102B1000340000202400002040000020500000204D
:102B20003C0000202C03002004ED00E010B516E06E
:102B300000F09CFA0C48C068C468201D00F040FA00
:102B40000A480068401E0949086009480068401E9C
:102B50000749086000F0B4FA204600F00BF804487A
:102B600000680028E4D110BDF403002034000020E8
:102B70003000002010B5044694F8510030B9206BA5
:102B800000F0BCFA204600F0B9FA1AE094F85100BF
:102B9000012803D1204600F0B1FA12E094F8510068
:102BA000022801D1012000E0002050B900BF5020D0
:102BB00080F31188BFF34F8FBFF36F8F00BF00BF4B
:102BC000FEE710BD30B54FF47053174800F007040E
:102BD0002CB1C01D20F00700134C041B1B1B024628
:102BE000124C22600024114D6C60D018083820F07F
:102BF00007000F4C206000240D4D2D686C600C4DBB
:102C00002D682C601146441A4C60094C24680C60F5
:102C1000084D4C682C60084D4C682C604FF0004407
:102C2000064D2C6030BD00001C0400206000002018
:102C300068000020700000206C000020740000205C
:102C400000BFFFF773FF064800680128F9D94FF06D
:102C5000805004490860BFF34F8FBFF36F8FF0E7D8
:102C60002C03002004ED00E02DE9FF5F81460F46B4
:102C70009246DDE90E6B109CAAF10100216B01EB7D
:102C8000800828F0070808F0070008B9012000E0D4
:102C9000002050B900BF502080F31188BFF34F8F40
:102CA000BFF36F8F00BF00BFFEE7002507E0795D2F
:102CB00004F134004155785D00B902E06D1C102D1F
:102CC000F5D300BF002143200155072E00D306266F
:102CD000E66266640020A064201D00F09EF904F105
:102CE000180000F09AF92461C6F10700A06164623F
:102CF0000020E06484F8500049464046039A00F002
:102D000049F92060BBF1000F01D0CBF80040BDE8CD
:102D1000FF9F000010B5002407E004EB84010F4A78
:102D200002EB810000F06CF9641C072CF5D30C4811
:102D300000F066F90B4800F063F90B4800F060F909
:102D40000A4800F05DF90A4800F05AF904480949B8
:102D5000086004480849086010BD00002C030020EA
:102D6000B8030020CC030020E0030020F40300207F
:102D700008040020280000202C00002010B5014687
:102D8000164800E0006803688B42FBD302464368A4
:102D900013448B4204D143684C682344436001468A
:102DA0000A464B6813440468A34211D10C4C0368D3
:102DB0002468A34208D04B680468646823444B60CD
:102DC00003681B680B6005E0054B1B680B6001E0A6
:102DD00003680B60884200D0016010BD60000020D5
:102DE000680000200A490968096809B9012100E062
:102DF000002121B14FF0FF31064A116006E004497D
:102E00000968C968C868034A4168116070470000D2
:102E100028000020540000200E480068401C08B91B
:102E2000012000E0002050B900BF502080F311883D
:102E3000BFF34F8FBFF36F8F00BF00BFFEE700BF30
:102E4000502080F31188BFF34F8FBFF36F8F00BF07
:102E500000BFFEE7780000202DE9F04104464FF066
:102E6000000800F06FFA4648006808B9FFF7AAFEAC
:102E700044480068204000286BD1D4B1083404F0E5
:102E80000700B0B104F00700C0F10800044404F0EA
:102E9000070008B9012000E0002050B900BF502011
:102EA00080F31188BFF34F8FBFF36F8F00BF00BF58
:102EB000FEE7002C4DD034480068844249D8334E98
:102EC0003046056801E02E462D686868A04202D2AF
:102ED00028680028F7D12A480068854239D0306830
:102EE00000F10808286830606868001B102819D9AC
:102EF0002F1907F0070008B9012000E0002050B9A1
:102F000000BF502080F31188BFF34F8FBFF36F8F46
:102F100000BF00BFFEE76868001B78606C60384641
:102F2000FFF72CFF184968680968081A16490860F5
:102F30000846006816490968884203D212480068AA
:102F4000134908600F4968680968084368600020F1
:102F5000286000F073FC08F0070008B9012000E0C9
:102F6000002050B900BF502080F31188BFF34F8F6D
:102F7000BFF36F8F00BF00BFFEE74046BDE8F081A2
:102F800068000020740000206C0000206000002019
:102F900070000020001F4FF080730360001F21F0BD
:102FA00001030360001F054B036014380260001F1B
:102FB0006FF002030360203870470000192E0008EC
:102FC00001460A69D1E901309860D1E901035860EE
:102FD0005068884201D188685060002008611068FC
:102FE000401E106010687047034B0360034B0B607A
:102FF0008023136070470000D80000202C010020BF
:1030000000F1080141604FF0FF31816000F10801DB
:10301000C1600161002101607047002101617047BA
:1030200010B502460B685C1C0CB9106907E002F190
:10303000080000E04068446824689C42FAD944686B
:103040004C604C68A160886041600A611468641C2F
:10305000146010BD42684A6093688B609368596041
:103060009160086103685B1C0360704700BF5020DB
:1030700080F31188BFF34F8FBFF36F8F00BF0E48EF
:103080000068401C0C49086008460068012812D1FD
:103090000A480068C0B208B9012000E0002050B919
:1030A00000BF502080F31188BFF34F8FBFF36F8FA5
:1030B00000BF00BFFEE770477800002004ED00E08D
:1030C0000D48006850B900BF502080F31188BFF34D
:1030D0004F8FBFF36F8F00BF00BFFEE70648006849
:1030E000401E054908600846006820B9002080F3AA
:1030F000118800BF00BF70477800002070B50646F9
:103100003546002E3FD0083D2C461F4960680968AF
:10311000084008B1012000E0002050B900BF502055
:1031200080F31188BFF34F8FBFF36F8F00BF00BFD5
:10313000FEE7206808B9012000E0002050B900BF78
:10314000502080F31188BFF34F8FBFF36F8F00BF04
:1031500000BFFEE70C4960680968084098B1206824
:1031600088B90949606809688843606000F0EAF836
:103170000649606809680844044908602046FFF76A
:10318000FDFD00F05BFB70BD740000206C000020B2
:1031900000204FF0E02108618861064800684FF484
:1031A0007A71B0FBF1F0401E4FF0E021486107203A
:1031B000086170472000002070B5FDF769F80446EB
:1031C000102C16D304F1E02090F8F0531548007845
:1031D000854201DB012000E0002050B900BF5020F3
:1031E00080F31188BFF34F8FBFF36F8F00BF00BF15
:1031F000FEE70D48006800F4E0600C490968884269
:1032000001D8012000E0002050B900BF502080F319
:103210001188BFF34F8FBFF36F8F00BF00BFFEE772
:1032200070BD00007C0000200CED00E0800000205C
:1032300070B504460025F4B11448006808B90120AF
:1032400000E0002050B900BF502080F31188BFF388
:103250004F8FBFF36F8F00BF00BFFEE700F072F823
:1032600021462320FEF774FB00212046FFF7A6FB32
:1032700000F0E4FA05463DB94FF08050044908607B
:10328000BFF34F8FBFF36F8F70BD00005C00002055
:1032900004ED00E010B586B000200590049003AA6C
:1032A00004A905A8FFF7A0FE0022DDE904101346DB
:1032B000CDE9002102901CA11D48039A00F0A2F95B
:1032C0001C4908600846006808B1012400E0002499
:1032D000012C15D100BF502080F31188BFF34F8F10
:1032E000BFF36F8F00BF4FF0FF301349086001201C
:1032F0001249086000201249086000F083F810E0CD
:10330000601C08B1012000E0002050B900BF50202F
:1033100080F31188BFF34F8FBFF36F8F00BF00BFE3
:10332000FEE706B010BD000049444C450000000017
:10333000412C0008580000205400002040000020CC
:103340003800002002480068401C014908607047AE
:103350005C00002010B52448006818B10120234902
:10336000086040E000202149086021480068B0FA68
:1033700080F0C0F11F0101EB81001E4A52F82000CD
:1033800008B1012000E0002050B900BF502080F3B8
:103390001188BFF34F8FBFF36F8F00BF00BFFEE7F1
:1033A00001EB8102134B03EB8200426852684260DA
:1033B00000F108024368934202D1426852684260B9
:1033C0004268D2680C4B1A6005220CA118460068AE
:1033D0003430FCF7C8FF20B107480068FEF736FA22
:1033E00001E0FEF7E7F910BD5C0000204800002076
:1033F0003C0000202C0300202400002049444C45C0
:10340000000000001CB5524800685249884201D0B3
:10341000012000E0002050B900BF502080F3118847
:10342000BFF34F8FBFF36F8F00BF00BFFEE7484869
:1034300000684849491E884201D0012000E0002070
:1034400050B900BF502080F31188BFF34F8FBFF3F6
:103450006F8F00BF00BFFEE73F490846007801902C
:10346000FF200A4610700846007800909DF8000082
:1034700000F0F0009DF80020904201D1012000E012
:10348000002050B900BF502080F31188BFF34F8F48
:10349000BFF36F8F00BF00BFFEE79DF8000000F094
:1034A00050002E4A107007202D4A106009E02C4869
:1034B0000068401E2A4A10609DF800004006000E79
:1034C00000909DF8000000F080008028EFD0244894
:1034D0000068C0F10700042801D1012000E00020AD
:1034E00050B900BF502080F31188BFF34F8FBFF356
:1034F0006F8F00BF00BFFEE7194800680002184A3E
:1035000010601046008800F4E0601060124A0198D4
:1035100010700F482030006840F470000C492031D2
:1035200008600846006840F070400860FFF730FE11
:1035300000200C490860FCF773FE0B48006840F05F
:10354000404009490860FCF757FE00201CBD000000
:1035500000ED00E071C20F4100E400E07C000020BB
:10356000800000207800002034EF00E010B500BF9C
:10357000502080F31188BFF34F8FBFF36F8F00BFD0
:1035800000F0B6F818B14FF080500449086000BF51
:10359000002080F3118800BF10BD000004ED00E0A2
:1035A0002DE9FF4F85B0804689461746DDE912AB0D
:1035B000B800FFF751FC064656B15420FFF74CFC0B
:1035C00004460CB1266304E03046FFF797FD00E0A7
:1035D00000248CB1002084F85100CDE900ABCDE986
:1035E00002403A4649464046089BFFF73DFB2046CD
:1035F000FFF730FA012501E04FF0FF35284609B00A
:10360000BDE8F08F2DE9F04F85B00746884691461A
:103610009A46DDE90EB6109C0EB1012000E00020B4
:1036200050B900BF502080F31188BFF34F8FBFF314
:103630006F8F00BF00BFFEE70CB1012000E000204B
:1036400050B900BF502080F31188BFF34F8FBFF3F4
:103650006F8F00BF00BFFEE75420039003985428EB
:1036600001D1012000E0002050B900BF502080F3BC
:103670001188BFF34F8FBFF36F8F00BF00BFFEE70E
:10368000B4B1AEB125462C462E63022085F8510018
:10369000002004A953464A46CDE900B1CDE90250C5
:1036A00041463846FFF7E0FA2846FFF7D3F901E034
:1036B00000200490049805B0BDE8F08F0549096822
:1036C00009B9012005E00449096809B9022000E0B0
:1036D00000207047400000205C00002070B5FFF71C
:1036E0006BFD002501480468204670BD38000020AD
:1036F0002DE9F0414FF000084548006800287AD1D4
:1037000044480068451C4348056015BB42480068B2
:10371000006808B9012000E0002050B900BF502027
:1037200080F31188BFF34F8FBFF36F8F00BF00BFCF
:10373000FEE7394807683948006837490860374864
:10374000076037480068401C35490860FFF74AFBAE
:1037500000BF3448006885423FD300BF2E48006850
:10376000006808B9012000E0002020B14FF0FF30D0
:103770002C49086030E028480068C068C468666862
:10378000B54202D22748066026E0201DFFF718FC4C
:10379000A06A18B104F11800FFF712FC2046FEF7EA
:1037A00087F894F82C10012088401F4909680843C5
:1037B0001D490860E16A01EB81011C4A02EB8100AE
:1037C000211DFFF747FC1A49E06A0968C96A884267
:1037D000C4D34FF00108C1E700BF15480068C06AB4
:1037E00000EB8000114951F82000012801D94FF069
:1037F000010805E0FFE70F480068401C0D4908601C
:103800000D48006808B14FF001084046BDE8F0815E
:103810005C00002038000020280000202C00002040
:103820004C000020540000203C0000202C0300200D
:1038300024000020440000204800002070B500242F
:1038400000263848006850B900BF502080F3118826
:10385000BFF34F8FBFF36F8F00BF00BFFEE7FFF7CF
:1038600005FC30480068401E2E4908600846006884
:10387000002852D12C48006800284ED027E02B4861
:10388000C068C46804F11800FFF79AFB201DFFF719
:1038900097FB2046FEF70CF894F82C100120884086
:1038A00023490968084322490860E16A01EB810164
:1038B000204A02EB8100211DFFF7CCFB1E49E06A84
:1038C0000968C96A884202D301201C490860174868
:1038D000006808B9012000E000200028CFD00CB11A
:1038E000FFF780FA1648056865B100BFFFF700FFD3
:1038F00010B10120114908606D1E002DF6D1002085
:103900000F4908600D48006838B1012630070D499D
:103910000860BFF34F8FBFF36F8FFFF7D1FB3046C7
:1039200070BD00005C00002034000020E003002097
:103930003C0000202C030020240000204800002030
:103940004400002004ED00E0A0390008B31F000887
:1039500000000000000000008000000000000000E7
:10396000000000000000000000000000010203044D
:10397000060708090000000001020304000000001F
:10398000000000000000303132333435363738392A
:103990004142434445460000D72700083928000823
:1039A00064656661756C745461736B004E3D46725C
:1039B000656552544F532048656C6C6F2D576F727C
:1039C0006C64204170706C69636174696F6E2C4423
:1039D0003D53544D33324634343652452D4E5543C3
:1039E0004C454F2C4F3D4672656552544F53000075
:1039F00053595354454D564945573A20436F756CBA
:103A000064206E6F74207265636F726420746173DA
:103A10006B20696E666F726D6174696F6E2E204DDA
:103A20006178696D756D206E756D626572206F6667
:103A3000207461736B7320726561636865642E0026
:103A4000603A00080000002098000000B827000835
:103A5000F83A000898000020E8890000C82700080C
:103A60000000000000000000000000000000000056
:103A70000000000000000000100000000100000035
:103A80000024F4000000000000000000000000001E
:103A90000000000000000000000000000000000026
:103AA0000000000000000000000000000000000016
:103AB0000000000000000000000000000000000006
:103AC00000000000000000000000000000000000F6
:103AD0000000000000000000AAAAAAAA000000003E
:103AE00000000000000000000000000000000000D6
:083AF0000000000000000000CE
:04000005080001C529
:00000001FF
