:020000040800F2
:1000000088040020D9010008AD120008771100080B
:10001000A9120008E5020008F1180008000000001D
:10002000000000000000000000000000B112000805
:10003000E902000800000000AF120008B312000837
:10004000F3010008F3010008F3010008F3010008C0
:10005000F3010008F3010008F3010008F3010008B0
:10006000F3010008F3010008F3010008F3010008A0
:10007000F3010008F3010008F3010008F301000890
:10008000F3010008F3010008F3010008F301000880
:10009000F3010008F3010008F3010008F301000870
:1000A000F3010008F3010008F3010008F301000860
:1000B000F3010008F3010008F3010008F301000850
:1000C000F3010008F3010008F3010008F301000840
:1000D000F3010008F3010008C9180008F301000843
:1000E000F3010008F3010008F3010008F301000820
:1000F000F3010008F3010008F3010008F301000810
:10010000F3010008F3010008F3010008F3010008FF
:10011000F3010008F3010008F3010008F3010008EF
:10012000F3010008F3010008F3010008F3010008DF
:10013000F30100080000000000000000F3010008C7
:10014000F3010008F3010008F3010008F3010008BF
:10015000F3010008F3010008F3010008F3010008AF
:10016000F3010008F3010008F3010008F30100089F
:10017000F3010008F3010008F3010008000000008B
:1001800000000000F3010008000000000000000073
:10019000F30100080000000000000000F301000867
:1001A000000000000000000000000000F301000853
:1001B000F3010008F3010008F3010008F30100084F
:1001C000F3010008DFF80CD000F07AF8004800478F
:1001D0004D1900088804002006488047064800475B
:1001E000FEE7FEE7FEE7FEE7FEE7FEE7FEE7FEE7E7
:1001F000FEE7FEE761130008C50100082DE9F05F86
:100200000546002092469B46884606468146402485
:100210001BE0284641464746224600F041F8534637
:100220005A46C01A914110D311461846224600F092
:1002300028F82D1A67EB01084F46224601200021BD
:1002400000F01FF817EB00094E41201EA4F1010435
:10025000DFDC484631462A464346BDE8F09FD2B22D
:1002600001E000F8012B491EFBD270470022F6E79F
:1002700010B513460A4604461946FFF7F0FF20461C
:1002800010BD202A04DB203A00FA02F1002070475A
:100290009140C2F1200320FA03F3194390407047C4
:1002A000202A04DB203A21FA02F00021704721FACB
:1002B00002F3D040C2F12002914008431946704732
:1002C000064C074D06E0E06840F0010394E80700A3
:1002D00098471034AC42F6D3FFF778FFD0190008E6
:1002E000F019000800BFFEE770477047014691F81B
:1002F0003500022803D08020486501207047052082
:1003000081F835000868006820F001000A68106074
:100310000020F3E7F8B502460B4600250024002034
:100320000021D7E0012606FA01F51E6806EA050459
:10033000AC4273D15E68012E08D05E68022E05D0F3
:100340005E68112E02D05E68122E13D190684F00A5
:100350000326BE40B0434F00DE68BE40304390608D
:10036000506801268E40B0431E79C6F300168E40B9
:1003700030435060D0684F000326BE40B0434F006A
:100380009E68BE403043D0605E68022E02D05E6838
:10039000122E13D1CF0802F1200656F827004E077F
:1003A000F70E0F26BE40B0434F07FF0E1E69BE403A
:1003B0003043CF0802F1200646F8270010684F00AE
:1003C0000326BE40B0431E7906F003064F00BE4030
:1003D000304310605E6806F08056B6F1805F78D1D9
:1003E00000BF002600963D4E366846F480463B4FDF
:1003F0003E603E46366806F48046009600BF00BF69
:10040000374E8F0856F827008E07370F0F26BE404D
:10041000B043344EB24202D100261FE059E0324EC2
:10042000B24201D1012619E0304EB24201D102267A
:1004300014E02F4EB24201D103260FE02D4EB242FE
:1004400001D104260AE02C4EB24201D1052605E076
:100450002A4EB24201D1062600E007268F073F0F41
:10046000BE4030431E4E8F0846F82700244E3068A9
:10047000A0435E6806F48036B6F5803F00D1204385
:100480001F4E3060361D3068A0435E6806F40036AB
:10049000B6F5003F00D12043194E361D3060361DA1
:1004A0003068A0435E6806F48016B6F5801F00D160
:1004B0002043134E08363060361D3068A0435E6816
:1004C00006F40016B6F5001F00D120430C4E0C3682
:1004D0003060491C1029FFF425AFF8BD44380240B4
:1004E00008380140000002400004024000080240B9
:1004F000000C0240001002400014024000180240AC
:10050000003C01400AB1816101E00B048361704746
:1005100001480068704700000000002003480068A0
:100520000349097808440149086070470000002029
:100530000800002010B50D48006840F400700B4919
:1005400008600846006840F480600860084600685B
:1005500040F480700860032000F0A6F8002000F04E
:1005600007F800F02BF8002010BD0000003C02400E
:1005700070B504460E4800784FF47A71B1FBF0F084
:100580000C490968B1FBF0F5284600F055FC08B1AC
:10059000012070BD102C07D200222146501E00F011
:1005A00045F80548046001E00120F2E70020F0E78B
:1005B000080000200C0000200400002008B500BF47
:1005C000002000901048006840F480400E49086008
:1005D0000846006800F48040009000BF00BF00BFE4
:1005E00000200090081F006840F08050091F08603C
:1005F0000846006800F08050009000BF00BF072050
:1006000000F052F808BD0000443802400146084698
:10061000002809DB00F01F0301229A4043099B00D8
:1006200003F1E023C3F8002100BF70472DE9F05F1C
:1006300080460D461646002701F05CF9074639460C
:100640002A46334601F00700C0F1070ABAF1040F49
:1006500002D94FF0040A01E0C0F1070AD14600F1C7
:10066000040ABAF1070F02D24FF0000A01E0A0F12C
:10067000030AD4464FF0010A0AFA09FAAAF1010A5C
:100680000AEA020A0AFA0CFA4FF0010B0BFA0CFB09
:10069000ABF1010B0BEA030B4AEA0B04214640467F
:1006A00001F030F9BDE8F09F00BF00F00702064BF3
:1006B00019684FF6FF031940044B0B4343EA02212C
:1006C000014B196000BF70470CED00E00000FA0517
:1006D00070B504460D460CB9012070BD584800683D
:1006E00000F00F00A84209D255490D700846006875
:1006F00000F00F00A84201D00120EEE7207800F0C2
:10070000020002281DD1207800F00400042805D141
:100710004C48006840F4E0504A490860207800F0F6
:100720000800082805D14748006840F46040454962
:1007300008604448006820F0F000A168084341497F
:100740000860207800F00100A8B36068012807D194
:100750003C4808380068C0F34040B8B90120BCE705
:100760006068022802D06068032807D1354808383D
:100770000068C0F3406048B90120AEE7314808384E
:100780000068C0F3400008B90120A6E72D480068C2
:1007900020F00300616808432A490860FFF7B8FEAB
:1007A000064609E0FFF7B4FE801B41F2883188421B
:1007B00002D9032091E707E02248006800F00C000E
:1007C0006168B0EB810FEDD11D48006800F00F00AB
:1007D000A84209D91A490D700846006800F00F00B8
:1007E000A84201D0012078E7207800F00400042816
:1007F00007D11448006820F4E050E168084311492B
:100800000860207800F00800082808D10D4800682A
:1008100020F46040216940EAC1000A49086000F004
:100820003FF808490968C1F30311074A515CC84001
:100830000649086006480068FFF79AFE00204CE76A
:10084000003C024008380240B81900080C000020A3
:100850000400002001480068704700000C000020E0
:1008600000B5FFF7F7FF04490968C1F38221034A85
:10087000515CC84000BD000008380240C81900089B
:1008800000B5FFF7E7FF04490968C1F34231034AA5
:10089000515CC84000BD000008380240C81900087B
:1008A0002DE9F047002400250026A146A2463F4836
:1008B000006800F00C0030B1042807D0082808D0E8
:1008C0000C286BD138E0DFF8E8A06AE0DFF8E4A09C
:1008D00067E03648001F006800F03F043348001FFF
:1008E000006800F4800078B132483049091F096877
:1008F000C1F38811A0FB017001462246002338464F
:10090000FFF77CFC05460DE029482849091F0968C6
:10091000C1F38811A0FB0171224600233846FFF77E
:100920006DFC05462148001F0068C0F30140401CD3
:100930004600B5FBF6FA34E01C48001F006800F0E2
:100940003F041A48001F006800F4800078B119487D
:100950001649091F0968C1F38811A0FB01700146FF
:10096000224600233846FFF749FC05460EE01048B2
:100970000E49091F0968C1F38811A0FB01700146E7
:10098000224600233846FFF739FC05460748001F7A
:100990000068C0F30279B5FBF9FA02E0DFF810A0B5
:1009A00000BF00BF5046BDE8F08700000838024095
:1009B0000024F40000127A00F8B5044600252078DF
:1009C00000F0010000286FD0FD48006800F00C0026
:1009D00004281BD0FA48006800F00C00082807D152
:1009E000F748001F006800F48000B0F5800F0DD0BC
:1009F000F348006800F00C000C2813D1F048001FE9
:100A0000006800F48000B0F5800F0BD1EC48083886
:100A10000068C0F34040002859D06068002856D1D3
:100A20000120F8BD00BF6068B0F5803F08D1E44800
:100A30000838006840F48030E149083908601EE059
:100A40006068B0F5A02F0DD1DD480838006840F48B
:100A50008020DB49083908600846006840F480308F
:100A600008600CE0D6480838006820F48030D4498B
:100A7000083908600846006820F48020086000BF3C
:100A8000606890B1FFF744FD054606E0FFF740FDC2
:100A9000401B642801D90320C3E7C948083800680F
:100AA000C0F340400028F1D011E0FFF731FD0546CA
:100AB00006E0FFF72DFD401B642801D90320B0E7B5
:100AC000BF4808380068C0F340400028F1D12078C2
:100AD00000F0020002286BD1B948006800F00C0059
:100AE000B8B1B748006800F00C00082805D1B44838
:100AF000001F006800F4800058B1B148006800F0A1
:100B00000C000C281CD1AE48001F006800F48000C7
:100B1000B0B9AB4808380068C0F3400020B1E068C5
:100B2000012801D001207CE7A5480838006820F0A2
:100B3000F800216940EAC100A1490839086037E09E
:100B4000E06800B301209F490860FFF7E1FC05461B
:100B500006E0FFF7DDFC401B022801D9032060E717
:100B6000974808380068C0F340000028F1D0944846
:100B70000838006820F0F800216940EAC100904977
:100B80000839086014E000208E490860FFF7C0FCB7
:100B9000054606E0FFF7BCFC401B022801D90320F4
:100BA0003FE7874808380068C0F340000028F1D1CB
:100BB000207800F0080008282CD16069A8B1012035
:100BC00081490860FFF7A4FC054606E0FFF7A0FC9A
:100BD000401B022801D9032023E779486C300068C4
:100BE000C0F340000028F1D014E0002076490860EE
:100BF000FFF78EFC054606E0FFF78AFC401B022843
:100C000001D903200DE76E486C300068C0F3400046
:100C10000028F1D1207800F00400042870D10026CB
:100C200067483830006800F0805090B900BF00205D
:100C3000009063483830006840F080506049383197
:100C400008600846006800F08050009000BF00BFB8
:100C500001265E48006800F48070B0B95B48006807
:100C600040F4807059490860FFF752FC054606E0E1
:100C7000FFF74EFC401B022801D90320D1E6534860
:100C8000006800F480700028F2D000BFA06801283E
:100C900008D14B486830006840F00100484968318D
:100CA00008601DE0A06805280DD14548683000683F
:100CB00040F004004249683108600846006840F08E
:100CC000010008600CE03E486830006820F0010038
:100CD0003B49683108600846006820F0040008605D
:100CE00000BFA068A8B1FFF713FC054609E0FFF7B5
:100CF0000FFC401B41F28831884202D9032090E664
:100D000026E02F4868300068C0F340000028EED08D
:100D100013E0FFF7FDFB054608E0FFF7F9FB401B7A
:100D200041F28831884201D903207AE624486830AC
:100D30000068C0F340000028EFD1012E07D1204801
:100D40003830006820F080501D493831086000BFFD
:100D5000A069E8B31A48006800F00C00082862D0C7
:100D6000A06902284AD1002016490866FFF7D0FB87
:100D7000054606E0FFF7CCFB401B022801D9032003
:100D80004FE60F4808380068C0F340600028F1D1F2
:100D9000D4E907010843616A40EA81110122A06A8F
:100DA000C2EB500041EA00412C20005D41EA0061A5
:100DB0003020005D41EA00700149091F086008E029
:100DC0000838024000004742800E47420070004051
:100DD0002BE0012016490866FFF79AFB054606E05E
:100DE000FFF796FB401B022801D9032019E61148A2
:100DF0000068C0F340600028F2D016E000200C49E3
:100E00000866FFF785FB054606E0FFF781FB401B00
:100E1000022801D9032004E606480068C0F34060B8
:100E20000028F2D101E00120FBE50020F9E50000F7
:100E3000000047420038024070B504462546681E4F
:100E4000B0F1807F01D301200FE0681E4FF0E02158
:100E500048610F214FF0FF3000F054FD00204FF0AB
:100E6000E021886107200861002070BD7047000004
:100E70002DE9F0470446206805682068C6682068A8
:100E800047694FF00008C14605F00F08B8F1000FA0
:100E90000AD105F0200038B106F0200020B120462C
:100EA00000F096FABDE8F087B8F1000F72D007F0B5
:100EB000010018B906F4907000286BD005F001000D
:100EC00030B106F4807018B1E06B40F00100E063CF
:100ED00005F0040030B107F0010018B1E06B40F0FC
:100EE0000200E06305F0020030B107F0010018B124
:100EF000E06B40F00400E06305F0080048B106F044
:100F0000200010B907F0010018B1E06B40F00800B4
:100F1000E063E06B70B305F0200028B106F020001C
:100F200010B1204600F054FA20684069C0F38019DF
:100F3000E06B00F0080010B9B9F1000F23D0204693
:100F400000F026FA2068406900F04000402816D1E1
:100F50002068406920F0400021684861606B50B112
:100F60001748616B0865606BFFF7C0F910B1606BE3
:100F7000016D88470CE02046FFF778FF08E0204627
:100F8000FFF774FF04E02046FFF770FF0020E063E6
:100F900088E7FFE705F0800030B106F0800018B167
:100FA000204600F05DFC7DE705F0400030B106F022
:100FB000400018B1204600F0FBF973E700BF71E76D
:100FC0007D13000810B504460CB9012010BDA069BE
:100FD00000B100E000BF94F8390028B9002084F87F
:100FE0003800204600F028F8242084F839002068D2
:100FF000C06820F400502168C860204600F03CFA28
:101000002068006920F490402168086120684069E8
:1010100020F02A00216848612068C06840F4005030
:101020002168C8600020E063202084F8390084F83B
:101030003A000020CAE7000010B586B0044614212B
:1010400001A8FFF713F91F492068884237D100BF74
:10105000002000901C48006840F400301A490860E5
:101060000846006800F40030009000BF00BF00BFD9
:101070000020009014481038006840F00100124928
:10108000103908600846006800F00100009000BFB9
:1010900000BF0C2001900220029001200390032049
:1010A00004900720059001A90848FFF733F90022B2
:1010B00011462620FFF7BAFA2620FFF7A7FA06B056
:1010C00010BD0000004400404038024000000240D3
:1010D00010B5034693F83A0020282FD101B10AB980
:1010E000012010BD00BF93F83800012801D1022073
:1010F000F7E7012083F8380000BF99629A85DA8506
:101100000020D863222083F83A0000BF002083F833
:10111000380000BF1868C06840F480701C68E06048
:101120001868406940F001001C6860611868C06878
:1011300040F020001C68E0600020D2E70220D0E7E9
:1011400010B504460122D1020748FFF7DBF900225F
:101150004FF400610448FFF7D5F9FA220349044827
:10116000FFF7B6FF10BD00000008024000C00120DC
:1011700010000020704700BFFEE7000000B587B0F8
:10118000142102A8FFF772F800BF00200190344834
:10119000006840F00400324908600846006800F02A
:1011A0000400019000BF00BF00BF0020019008466E
:1011B000006840F0800008600846006800F0800089
:1011C000019000BF00BF00BF0020019008460068EA
:1011D00040F0010008600846006800F0010001903E
:1011E00000BF00BF00BF002001900846006840F02B
:1011F000020008600846006800F00200019000BF8D
:1012000000BF002220211748FFF77CF900224FF48D
:1012100070611548FFF776F94FF4005002901348BB
:1012200003900020049002A90F48FFF773F82020D4
:1012300002900120039000200490059002A9094823
:10124000FFF768F84FF470600290012003900020CF
:101250000490059002A90448FFF75CF807B000BDB0
:101260003038024000000240000802400000211017
:1012700010B50B480B4908604FF4E130486000217D
:1012800008488160C16001610C21416100218161D8
:10129000C161FFF797FE08B1FFF727F810BD000006
:1012A000004400401000002000BFFEE77047704778
:1012B000704710B5FFF732F910BD000000B593B0CC
:1012C000342106A8FEF7D2FF142101A8FEF7CEFFB5
:1012D00000BF002000902048006840F080501E4968
:1012E00008600846006800F08050009000BF00BF12
:1012F00000BF002000901948006820F4404040F4EE
:101300008040164908600846006800F4404000909C
:1013100000BF00BF022006900120099010200A9013
:1013200000200C9006A8FFF747FB08B1FEF7DDFF91
:101330000F2001900020029003904FF48050049001
:1013400000200590002101A8FFF7C2F908B1FEF7BF
:10135000CCFF13B000BD00004038024000700040D8
:101360000548006840F47000034908604FF00060D1
:10137000014980390860704788ED00E070B5054686
:10138000AC6B0020E085E0842046FFF76FFD70BD68
:101390000168C96821F490710268D16001684969E7
:1013A00021F0010102685161202180F83A10704754
:1013B00010B504462068C06820F040002168C8606D
:1013C000202084F839002046FFF7D4FE002010BD0D
:1013D00070B5044694F83A0022284AD1A068B0F5C6
:1013E000805F13D1A56A206940B920684068C0F3C6
:1013F00008002880A06A801CA06219E0206840686C
:10140000C0B22880A06A401CA06211E0206938B9EF
:1014100020684068C1B2A26A501CA062117007E047
:101420002068406800F07F01A26A501CA062117021
:10143000E08D401E80B2E085C8B92068C06820F009
:1014400020002168C8602068C06820F4807021688E
:10145000C8602068406920F00100216848612020B0
:1014600084F83A002046FFF76BFE002070BD002094
:10147000FCE70220FAE700002DE9F84F0446206857
:10148000006920F44050E16808432168086121693F
:10149000A068084361690843E16908430090206837
:1014A000C06849F20C618843009908432168C8600C
:1014B0002068406920F44070A169084321684861B0
:1014C000E069B0F5004F75D1E3492068884203D048
:1014D000E249206888426FD1FFF7D2F981460220A5
:1014E0006168A0FB01510B461920A9FB00712A4637
:1014F0003846FEF783FE6421B0FBF1F04FEA001A94
:1015000002206168A0FB01510B461920A9FB007164
:101510002A463846FEF772FE074602206168A0FBA5
:1015200001510B461920A9FB00B12A465846FEF787
:1015300065FE6421B0FBF1F000EBC00101EB00108F
:10154000A7EB8000322101EBC0006421B0FBF1F079
:1015500000F0F8000AEB400A02206168A0FB01518C
:101560000B461920A9FB00712A463846FEF746FEB5
:10157000074602206168A0FB01510B461920A9FB18
:1015800000B12A465846FEF739FE6421B0FBF1F05F
:1015900000EBC00101EB0010A7EB8000322101EB52
:1015A000C0006421B0FBF1F000F007005044216856
:1015B00088604FE16EE0FFE7FFF752F981460220B5
:1015C0006168A0FB01510B461920A9FB00712A4656
:1015D0003846FEF713FE6421B0FBF1F04FEA001A23
:1015E00002206168A0FB01510B461920A9FB007184
:1015F0002A463846FEF702FE074602206168A0FB35
:1016000001510B461920A9FB00B12A465846FEF7A6
:10161000F5FD6421B0FBF1F000EBC00101EB00101F
:10162000A7EB8000322101EBC0006421B0FBF1F098
:1016300000F0F8000AEB400A02206168A0FB0151AB
:101640000B461920A9FB00712A463846FEF7D6FD45
:10165000074602206168A0FB015003461920A9FB40
:1016600000B12A465846FEF7C9FD6421B0FBF1F0EF
:1016700000EBC00101EB0010A7EB8000322101EB71
:10168000C0006421B0FBF1F000F007005044216875
:101690008860DFE070492068884203D06F49206885
:1016A00088426BD1FFF7ECF8814604206168A0FB0B
:1016B00001510B461920A9FB00712A463846FEF756
:1016C0009DFD824604206168A0FB01510B46192054
:1016D000A9FB00712A463846FEF790FD6421B0FB55
:1016E000F1F000EBC00101EB0010AAEB8000322109
:1016F00001EB00106421B0FBF1F000F0F00A0420CF
:101700006168A0FB015003461920A9FB00712A461D
:101710003846FEF773FD6421B0FBF1F00AEB001AC6
:1017200004206168A0FB01510B461920A9FB007140
:101730002A463846FEF762FD074604206168A0FB92
:10174000015003461920A9FB00B12A465846FEF76E
:1017500055FD6421B0FBF1F000EBC00101EB00107E
:10176000A7EB8000322101EB00106421B0FBF1F007
:1017700000F00F005044216888606BE0FFF770F8BC
:10178000814604206168A0FB015003461920A9FB93
:1017900000712A463846FEF731FD82460420616812
:1017A000A0FB015003461920A9FB00712A463846C8
:1017B000FEF724FD6421B0FBF1F000EBC00101EB6A
:1017C0000010AAEB8000322101EB00106421B0FB75
:1017D000F1F000F0F00A04206168A0FB015003461C
:1017E0001920A9FB00712A463846FEF707FD64213F
:1017F000B0FBF1F00AEB001A04206168A0FB017055
:1018000003461920A9FB005001463A462846FEF738
:10181000F5FC074604206168A0FB0150034619202F
:10182000A9FB00B12A465846FEF7E8FC6421B0FB4C
:10183000F1F000EBC00101EB0010A7EB80003221BA
:1018400001EB00106421B0FBF1F000F00F005044F8
:1018500021688860BDE8F88F001001400014014045
:10186000014691F8390021282CD18868B0F5805FB5
:101870000FD10A6A1088C0F308000B685860086925
:1018800018B9086A801C086209E0086A401C0862EE
:1018900005E00B6A581C086218780B685860C88C01
:1018A000401E80B2C88458B90868C06820F0800023
:1018B0000B68D8600868C06840F040000B68D860CA
:1018C000002070470220FCE710B501229102064873
:1018D000FEF718FE0548FFF7CBFA00224FF48061AF
:1018E0000148FEF70FFE10BD000802401000002066
:1018F00000BFFEE702480068C0F302207047000006
:101900000CED00E010B5002804DB0A07130E054AB1
:10191000135406E00A07140E034A00F00F031B1FBE
:10192000D45410BD00E400E018ED00E002E008C867
:10193000121F08C1002AFAD170477047002001E049
:1019400001C1121F002AFBD170470000FEF7F2FD13
:10195000FFF7B4FC002004E0AA21124A1154411CF4
:10196000C8B23228F8DBFFF709FCFFF781FCFA2246
:101970000D490E48FFF7ACFB13E0012220210C4873
:10198000FEF7C0FD002005E006490A5C09490A543B
:10199000411CC8B23228F7DB002220210448FEF7A0
:1019A000B1FDEAE75000002000C001201000002037
:1019B00000000240000500200000000000000000C0
:1019C00001020304060708090000000001020304E5
:1019D000F019000800000020100000002C19000879
:1019E000001A000810000020780400003C190008CC
:1019F0000000000010000000010000000024F400BE
:04000005080001C529
:00000001FF
