:020000040800F2
:10000000E8040020D9010008851600083B15000807
:1000100081160008E50200082D1C00080000000001
:100020000000000000000000000000008916000829
:100030000304000800000000871600088B16000863
:10004000F3010008F3010008F3010008F3010008C0
:10005000F3010008F3010008F3010008F3010008B0
:10006000F3010008F3010008F3010008F3010008A0
:10007000F3010008F3010008F3010008F301000890
:10008000E9020008F3010008F3010008F301000889
:10009000F3010008F3010008F3010008F301000870
:1000A000F3010008F3010008F3010008F301000860
:1000B000F3010008F3010008F3010008F301000850
:1000C000F3010008F3010008F3010008F301000840
:1000D000F3010008F3010008F3010008F301000830
:1000E000F3010008F3010008F3010008F301000820
:1000F000F3010008F3010008F3010008F301000810
:10010000F3010008F3010008F3010008F3010008FF
:10011000F3010008F3010008F3010008F3010008EF
:10012000F3010008F3010008F3010008F3010008DF
:10013000F30100080000000000000000F3010008C7
:10014000F3010008F3010008F3010008F3010008BF
:10015000F3010008F3010008F3010008F3010008AF
:10016000F3010008F3010008F3010008F30100089F
:10017000F3010008F3010008F3010008000000008B
:1001800000000000F3010008000000000000000073
:10019000F30100080000000000000000F301000867
:1001A000000000000000000000000000F301000853
:1001B000F3010008F3010008F3010008F30100084F
:1001C000F3010008DFF80CD000F07AF8004800478F
:1001D000891C0008E80400200648804706480047BC
:1001E000FEE7FEE7FEE7FEE7FEE7FEE7FEE7FEE7E7
:1001F000FEE7FEE751170008C50100082DE9F05F92
:100200000546002092469B46884606468146402485
:100210001BE0284641464746224600F041F8534637
:100220005A46C01A914110D311461846224600F092
:1002300028F82D1A67EB01084F46224601200021BD
:1002400000F01FF817EB00094E41201EA4F1010435
:10025000DFDC484631462A464346BDE8F09FD2B22D
:1002600001E000F8012B491EFBD270470022F6E79F
:1002700010B513460A4604461946FFF7F0FF20461C
:1002800010BD202A04DB203A00FA02F1002070475A
:100290009140C2F1200320FA03F3194390407047C4
:1002A000202A04DB203A21FA02F00021704721FACB
:1002B00002F3D040C2F12002914008431946704732
:1002C000064C074D06E0E06840F0010394E80700A3
:1002D00098471034AC42F6D3FFF778FFD41C0008DF
:1002E000F41C000800BFFEE710B5024800F08CF8CF
:1002F00010BD000050000020014608781038182377
:10030000B0FBF3F20848805CC865032A05D9086889
:100310006FF30900001D886503E008686FF30900AA
:100320008865886D70470000B41C000801460020F5
:100330008A6A8B69CBB932B1012A0DD0022A03D067
:10034000032A10D10EE000BFCB6A03F08073B3F133
:10035000807F00D1012007E0CB6AB3F1C07F00D1DC
:10036000012001E000E000BF34E08B69B3F5005FDD
:100370001AD132B1012A07D0022A03D0032A11D19F
:100380000AE000BF01200EE0CB6A03F08073B3F1F6
:10039000807F00D1012006E0CB6AB3F1C07F00D19D
:1003A000012000E000BF15E032B1012A05D0022A89
:1003B00004D0032A0CD103E000BF00BF012008E0F5
:1003C000CB6A03F08073B3F1807F00D1012000E09D
:1003D00000BF00BF704730B50468246824F480244F
:1003E00005682C60046863608468402C04D104684C
:1003F000A2600468E16003E00468A1600468E26050
:1004000030BD704770470000F8B5044600200090EA
:100410008C4800684FF41651B0FBF1F7A56D2E68BB
:1004200094F85C1008208840304098B1206800683B
:1004300000F0040070B12068006820F0040021681A
:10044000086094F85C1008208840A860606D40F057
:100450000100606594F85C1001208840304068B16C
:100460002068406900F0800040B194F85C100120E1
:100470008840A860606D40F00200606594F85C10F0
:1004800004208840304068B12068006800F0020015
:1004900040B194F85C1004208840A860606D40F082
:1004A0000400606594F85C1010208840304078B3F8
:1004B0002068006800F0080050B394F85C10102029
:1004C0008840A8602068006800F4802080B120681F
:1004D000006800F4002028B9206CC8B12046216CC7
:1004E000884715E0A06C98B12046A16C88470FE0C2
:1004F0002068006800F4807028B92068006820F047
:10050000080021680860206C10B12046216C8847E3
:1005100094F85C10202088403040002865D0206886
:10052000006800F0100000285FD094F85C102020D4
:100530008840A86094F83500052828D12068006814
:1005400020F01600216808602068406920F08000D3
:1005500021684861206C08B9A06C28B12068006847
:1005600020F008002168086094F85C103F20884063
:10057000A86000BF002084F8340000BF012084F888
:100580003500206D10B12046216D8847F8BD2068E8
:10059000006800F4802080B12068006800F400202A
:1005A00028B9606C10B12046616C88471DE0E06B93
:1005B000D8B12046E16B884717E02068006800F456
:1005C000807068B92068006820F010002168086019
:1005D00000BF002084F8340000BF012084F83500FB
:1005E000E06B10B12046E16B8847606D38B3606DF9
:1005F00000F00100F0B1052084F8350020680068A3
:1006000020F001002168086000BF0098401C0090A5
:10061000B84200D905E02068006800F00100002819
:10062000F3D100BF00BF002084F8340000BF0120D8
:1006300084F83500E06C10B12046E16C884700BFBB
:10064000A4E700000C0000202DE9F041044600253D
:1006500000F0B8F9074614B90120BDE8F081606ADE
:1006600000B100BF00BF002084F8340000BF0220AA
:1006700084F835002068006820F0010021680860D7
:100680000AE000F09FF9C01B052805D9202060650D
:10069000032084F83500E0E72068006800F00100DE
:1006A0000028EED12068056821480540D4E9010101
:1006B0000843E16808432169084361690843A16967
:1006C0000843E1690843216A08430543606A042836
:1006D00003D1D4E90B010843054320680560206875
:1006E000456925F00705606A0543606A04280DD155
:1006F000A06A0543E06A48B12046FFF717FE28B11B
:1007000040206065012084F83500A6E72068456137
:100710002046FFF7F1FD064694F85C103F20884024
:10072000B06000206065012084F83500002094E767
:100730003F8010F02DE9F04704460D4616461F464F
:100740004FF00008D4F8589000BF94F83400012806
:1007500002D10220BDE8F087012084F8340000BFF8
:1007600094F83500012825D1022084F835000020B6
:1007700060653B46324629462046FFF72CFE94F83A
:100780005C103F208840C9F808002068006840F0ED
:10079000160021680860206C28B12068006840F0CD
:1007A0000800216808602068006840F001002168A6
:1007B000086006E000BF002084F8340000BF4FF05E
:1007C00002084046C6E70000F8B502460B46002581
:1007D000002400200021D7E0012606FA01F51E685A
:1007E00006EA0504AC4273D15E68012E08D05E684B
:1007F000022E05D05E68112E02D05E68122E13D133
:1008000090684F000326BE40B0434F00DE68BE40F4
:1008100030439060506801268E40B0431E79C6F385
:1008200000168E4030435060D0684F000326BE4013
:10083000B0434F009E68BE403043D0605E68022ED9
:1008400002D05E68122E13D1CF0802F1200656F8AE
:1008500027004E07F70E0F26BE40B0434F07FF0E8E
:100860001E69BE403043CF0802F1200646F827003B
:1008700010684F000326BE40B0431E7906F0030601
:100880004F00BE40304310605E6806F08056B6F1FF
:10089000805F78D100BF002600963D4E366846F452
:1008A00080463B4F3E603E46366806F480460096E2
:1008B00000BF00BF374E8F0856F827008E07370F4E
:1008C0000F26BE40B043344EB24202D100261FE094
:1008D00059E0324EB24201D1012619E0304EB24207
:1008E00001D1022614E02F4EB24201D103260FE0BF
:1008F0002D4EB24201D104260AE02C4EB24201D163
:10090000052605E02A4EB24201D1062600E0072660
:100910008F073F0FBE4030431E4E8F0846F827001A
:10092000244E3068A0435E6806F48036B6F5803FFA
:1009300000D120431F4E3060361D3068A0435E68F2
:1009400006F40036B6F5003F00D12043194E361D9F
:100950003060361D3068A0435E6806F48016B6F538
:10096000801F00D12043134E08363060361D30689A
:10097000A0435E6806F40016B6F5001F00D12043C0
:100980000C4E0C363060491C1029FFF425AFF8BD21
:100990004438024008380140000002400004024090
:1009A00000080240000C0240001002400014024007
:1009B00000180240003C01400AB1816101E00B04D3
:1009C0008361704701480068704700000000002004
:1009D00003480068034909780844014908607047E2
:1009E000000000200800002010B50D48006840F409
:1009F00000700B4908600846006840F48060086099
:100A00000846006840F480700860032000F0A6F8F3
:100A1000002000F007F800F02BF8002010BD0000C7
:100A2000003C024070B504460E4800784FF47A71DD
:100A3000B1FBF0F00C490968B1FBF0F5284600F075
:100A400055FC08B1012070BD102C07D200222146B0
:100A5000501E00F045F80548046001E00120F2E76F
:100A60000020F0E7080000200C0000200400002017
:100A700008B500BF002000901048006840F4804096
:100A80000E4908600846006800F48040009000BFEE
:100A900000BF00BF00200090081F006840F0805099
:100AA000091F08600846006800F08050009000BFF1
:100AB00000BF072000F052F808BD00004438024093
:100AC00001460846002809DB00F01F0301229A4076
:100AD00043099B0003F1E023C3F8002100BF7047E6
:100AE0002DE9F05F80460D461646002701F0A0F87C
:100AF000074639462A46334601F00700C0F1070A87
:100B0000BAF1040F02D94FF0040A01E0C0F1070A5C
:100B1000D14600F1040ABAF1070F02D24FF0000AE1
:100B200001E0A0F1030AD4464FF0010A0AFA09FADB
:100B3000AAF1010A0AEA020A0AFA0CFA4FF0010BBA
:100B40000BFA0CFBABF1010B0BEA030B4AEA0B04AB
:100B50002146404601F074F8BDE8F09F00BF00F068
:100B60000702064B19684FF6FF031940044B0B436D
:100B700043EA0221014B196000BF70470CED00E011
:100B80000000FA0570B504460D460CB9012070BD91
:100B90005848006800F00F00A84209D255490D706E
:100BA0000846006800F00F00A84201D00120EEE7DF
:100BB000207800F0020002281DD1207800F0040007
:100BC000042805D14C48006840F4E0504A490860C8
:100BD000207800F00800082805D14748006840F454
:100BE0006040454908604448006820F0F000A16872
:100BF000084341490860207800F00100A8B360680C
:100C0000012807D13C4808380068C0F34040B8B913
:100C10000120BCE76068022802D06068032807D181
:100C2000354808380068C0F3406048B90120AEE795
:100C3000314808380068C0F3400008B90120A6E731
:100C40002D48006820F00300616808432A490860C5
:100C5000FFF7B8FE064609E0FFF7B4FE801B41F23D
:100C60008831884202D9032091E707E022480068D2
:100C700000F00C006168B0EB810FEDD11D480068F9
:100C800000F00F00A84209D91A490D700846006803
:100C900000F00F00A84201D0012078E7207800F092
:100CA0000400042807D11448006820F4E050E168EB
:100CB000084311490860207800F00800082808D18E
:100CC0000D48006820F46040216940EAC1000A49EB
:100CD000086000F03FF808490968C1F30311074AAA
:100CE000515CC8400649086006480068FFF79AFE54
:100CF00000204CE7003C024008380240BC1C0008C1
:100D00000C0000200400002001480068704700002B
:100D10000C00002000B5FFF7F7FF04490968C1F394
:100D20008221034A515CC84000BD000008380240DF
:100D3000CC1C000800B5FFF7E7FF04490968C1F3C0
:100D40004231034A515CC84000BD000008380240EF
:100D5000CC1C00082DE9F047002400250026A14600
:100D6000A2463F48006800F00C0030B1042807D0CC
:100D7000082808D00C286BD138E0DFF8E8A06AE03A
:100D8000DFF8E4A067E03648001F006800F03F0489
:100D90003348001F006800F4800078B132483049C1
:100DA000091F0968C1F38811A0FB017001462246A2
:100DB00000233846FFF722FA05460DE02948284966
:100DC000091F0968C1F38811A0FB017122460023A5
:100DD0003846FFF713FA05462148001F0068C0F3A4
:100DE0000140401C4600B5FBF6FA34E01C48001FE9
:100DF000006800F03F041A48001F006800F48000FB
:100E000078B119481649091F0968C1F38811A0FB78
:100E100001700146224600233846FFF7EFF90546E8
:100E20000EE010480E49091F0968C1F38811A0FBA4
:100E300001700146224600233846FFF7DFF90546D8
:100E40000748001F0068C0F30279B5FBF9FA02E019
:100E5000DFF810A000BF00BF5046BDE8F0870000DB
:100E6000083802400024F40000127A00F8B5044665
:100E70000025207800F0010000286FD0FD480068B0
:100E800000F00C0004281BD0FA48006800F00C00A9
:100E9000082807D1F748001F006800F48000B0F56B
:100EA000800F0DD0F348006800F00C000C2813D11F
:100EB000F048001F006800F48000B0F5800F0BD1EF
:100EC000EC4808380068C0F34040002859D06068FA
:100ED000002856D10120F8BD00BF6068B0F5803F02
:100EE00008D1E4480838006840F48030E149083906
:100EF00008601EE06068B0F5A02F0DD1DD4808380D
:100F0000006840F48020DB49083908600846006822
:100F100040F4803008600CE0D6480838006820F4BF
:100F20008030D449083908600846006820F48020E1
:100F3000086000BF606890B1FFF744FD054606E019
:100F4000FFF740FD401B642801D90320C3E7C948CF
:100F500008380068C0F340400028F1D011E0FFF7E6
:100F600031FD054606E0FFF72DFD401B642801D941
:100F70000320B0E7BF4808380068C0F340400028AD
:100F8000F1D1207800F0020002286BD1B948006846
:100F900000F00C00B8B1B748006800F00C00082859
:100FA00005D1B448001F006800F4800058B1B14872
:100FB000006800F00C000C281CD1AE48001F00682F
:100FC00000F48000B0B9AB4808380068C0F34000B6
:100FD00020B1E068012801D001207CE7A54808384D
:100FE000006820F0F800216940EAC100A1490839F1
:100FF000086037E0E06800B301209F490860FFF710
:10100000E1FC054606E0FFF7DDFC401B022801D9A4
:10101000032060E7974808380068C0F340000028C4
:10102000F1D094480838006820F0F800216940EABF
:10103000C10090490839086014E000208E4908601A
:10104000FFF7C0FC054606E0FFF7BCFC401B02288A
:1010500001D903203FE7874808380068C0F3400003
:101060000028F1D1207800F0080008282CD1606910
:10107000A8B1012081490860FFF7A4FC054606E0FD
:10108000FFF7A0FC401B022801D9032023E7794881
:101090006C300068C0F340000028F1D014E000205C
:1010A00076490860FFF78EFC054606E0FFF78AFCEC
:1010B000401B022801D903200DE76E486C30006800
:1010C000C0F340000028F1D1207800F0040004288B
:1010D00070D1002667483830006800F0805090B921
:1010E00000BF0020009063483830006840F0805016
:1010F0006049383108600846006800F08050009070
:1011000000BF00BF01265E48006800F48070B0B9DF
:101110005B48006840F4807059490860FFF752FC52
:10112000054606E0FFF74EFC401B022801D90320CC
:10113000D1E65348006800F480700028F2D000BF68
:10114000A068012808D14B486830006840F00100D1
:101150004849683108601DE0A06805280DD1454860
:101160006830006840F00400424968310860084671
:10117000006840F0010008600CE03E4868300068FC
:1011800020F001003B49683108600846006820F003
:101190000400086000BFA068A8B1FFF713FC054673
:1011A00009E0FFF70FFC401B41F28831884202D969
:1011B000032090E626E02F4868300068C0F3400026
:1011C0000028EED013E0FFF7FDFB054608E0FFF72F
:1011D000F9FB401B41F28831884201D903207AE6AD
:1011E000244868300068C0F340000028EFD1012E89
:1011F00007D120483830006820F080501D49383130
:10120000086000BFA069E8B31A48006800F00C004D
:10121000082862D0A06902284AD100201649086631
:10122000FFF7D0FB054606E0FFF7CCFB401B02288A
:1012300001D903204FE60F4808380068C0F340602A
:101240000028F1D1D4E907010843616A40EA81111D
:101250000122A06AC2EB500041EA00412C20005D4F
:1012600041EA00613020005D41EA00700149091F38
:10127000086008E00838024000004742800E4742FC
:10128000007000402BE0012016490866FFF79AFB2A
:10129000054606E0FFF796FB401B022801D9032014
:1012A00019E611480068C0F340600028F2D016E04B
:1012B00000200C490866FFF785FB054606E0FFF7AE
:1012C00081FB401B022801D9032004E60648006880
:1012D000C0F340600028F2D101E00120FBE50020CE
:1012E000F9E50000000047420038024070B50446AE
:1012F0002546681EB0F1807F01D301200FE0681EF3
:101300004FF0E02148610F214FF0FF3000F098FCD2
:1013100000204FF0E021886107200861002070BDA7
:10132000704710B504460CB9012010BDA06900B18A
:1013300000E000BF94F8390028B9002084F8380094
:10134000204600F027F8242084F839002068C0687F
:1013500020F400502168C860204600F073FA20682D
:10136000006920F49040216808612068406920F0FD
:101370002A00216848612068C06840F40050216854
:10138000C8600020E063202084F8390084F83A0027
:101390000020CAE710B586B00446142101A8FEF764
:1013A00065FF2949206888424CD100BF0020009089
:1013B0002648006840F40030244908600846006868
:1013C00000F40030009000BF00BF00BF002000907C
:1013D0001E481038006840F001001C4910390860B0
:1013E0000846006800F00100009000BF00BF0C201C
:1013F0000190022002900120039003200490072016
:10140000059001A91248FFF7DFF912481249086058
:101410004FF00060486000210F488160C1604FF4C8
:1014200080610161002141618161C16101624162AC
:10143000FFF70AF908B1FEF7E5FF00BF0648606351
:10144000846300BF06B010BD004400404038024035
:1014500000000240886002405000002077B581B053
:101460000446154694F83A00202850D1029800B15D
:1014700015B9012004B070BD00BF94F838000128F0
:1014800001D10220F6E7012084F8380000BF02985D
:10149000A062A5850020E063222084F83A001D4860
:1014A000616BC8631C48616B08641C48616BC8644D
:1014B0000020616B086502AE32682368191D2B4657
:1014C000606BFFF737F900BF0020009020680068CC
:1014D000009020684068009000BF00BF00BF00205F
:1014E00084F8380000BF2068C06840F4807021682C
:1014F000C8602068406940F00100216848612068A8
:10150000406940F04000216848610020B2E70220B5
:10151000B0E70000BD170008031800086D170008A9
:1015200010B50446322202490248FFF797FF10BD6A
:10153000B000002010000020704700BFFEE7000050
:1015400008B500BF002000900A48006840F4001071
:10155000084908600846006800F40010009000BFC9
:1015600000BF002211461020FFF7BAFA1020FFF743
:10157000A7FA08BD3038024000B587B0142102A890
:10158000FEF774FE00BF002001902B48006840F079
:101590000400294908600846006800F00400019032
:1015A00000BF00BF00BF002001900846006840F067
:1015B000800008600846006800F08000019000BFCD
:1015C00000BF00BF002001900846006840F0010005
:1015D00008600846006800F00100019000BF00BFED
:1015E00000BF002001900846006840F0020008603B
:1015F0000846006800F00200019000BF00BF002212
:1016000020210E48FFF7D8F94FF4005002900C4803
:1016100003900020049002A90A48FFF7D5F8202083
:1016200002900120039000200490059002A9034835
:10163000FFF7CAF807B000BD303802400000024092
:10164000000021100008024010B50B480B4908604B
:101650004FF4E1304860002108488160C1600161B9
:101660000C21416100218161C161FFF75AFE08B17F
:10167000FEF7C8FE10BD000000440040100000202E
:1016800000BFFEE770477047704710B5FFF7A0F93D
:1016900010BD000000B593B0342106A8FEF7E6FDAA
:1016A000142101A8FEF7E2FD00BF002000902648AB
:1016B000006840F08050244908600846006800F047
:1016C0008050009000BF00BF00BF002000901F4866
:1016D000006820F4404040F480401C4908600846FF
:1016E000006800F44040009000BF00BF0220069058
:1016F0000120099010200A9002200C9000210D91E9
:1017000010210E914FF4A8710F9104211091022124
:101710001191129106A8FFF7A9FB08B1FEF772FE1E
:101720000F20019002200290002003904FF480507F
:10173000049000200590022101A8FFF723FA08B1C8
:10174000FEF760FE13B000BD40380240007000405C
:101750000548006840F47000034908604FF00060DD
:10176000014980390860704788ED00E070B5064691
:101770000025B46B20684069C0F3C01594F83900A7
:10178000212805D125B10020E084204600F050F842
:1017900020684069C0F3801594F83A00222805D1EA
:1017A00025B10020E085204600F032F8E06B40F0E3
:1017B0001000E0632046FFF7B3FD70BD70B505462D
:1017C000AC6B2868006800F48070B0B90020E08538
:1017D0002068C06820F480702168C8602068406973
:1017E00020F00100216848612068406920F0400035
:1017F00021684861202084F83A002046FFF790FED7
:1018000070BD70B50446A56B2846FFF795FE70BD08
:101810000168C96821F490710268D1600168496962
:1018200021F0010102685161202180F83A107047CF
:101830000168C96821F0C0010268D160202180F8E8
:10184000391070472DE9F84F04462068006920F4EC
:101850004050E1680843216808612169A068084395
:1018600061690843E169084300902068C06849F253
:101870000C618843009908432168C860206840696A
:1018800020F44070A169084321684861E069B0F51F
:10189000004F75D1E3492068884203D0E2492068AF
:1018A00088426FD1FFF746FA814602206168A0FBAB
:1018B00001510B461920A9FB00712A463846FEF754
:1018C0009DFC6421B0FBF1F04FEA001A0220616830
:1018D000A0FB01510B461920A9FB00712A4638468E
:1018E000FEF78CFC074602206168A0FB01510B4605
:1018F0001920A9FB00B12A465846FEF77FFC642157
:10190000B0FBF1F000EBC00101EB0010A7EB800091
:10191000322101EBC0006421B0FBF1F000F0F800CF
:101920000AEB400A02206168A0FB01510B46192016
:10193000A9FB00712A463846FEF760FC07460220E4
:101940006168A0FB01510B461920A9FB00B12A4692
:101950005846FEF753FC6421B0FBF1F000EBC001E8
:1019600001EB0010A7EB8000322101EBC0006421E5
:10197000B0FBF1F000F007005044216888604FE1AF
:101980006EE0FFE7FFF7C6F9814602206168A0FB21
:1019900001510B461920A9FB00712A463846FEF773
:1019A0002DFC6421B0FBF1F04FEA001A02206168BF
:1019B000A0FB01510B461920A9FB00712A463846AD
:1019C000FEF71CFC074602206168A0FB01510B4694
:1019D0001920A9FB00B12A465846FEF70FFC6421E6
:1019E000B0FBF1F000EBC00101EB0010A7EB8000B1
:1019F000322101EBC0006421B0FBF1F000F0F800EF
:101A00000AEB400A02206168A0FB01510B46192035
:101A1000A9FB00712A463846FEF7F0FB0746022074
:101A20006168A0FB015003461920A9FB00B12A46BA
:101A30005846FEF7E3FB6421B0FBF1F000EBC00178
:101A400001EB0010A7EB8000322101EBC000642104
:101A5000B0FBF1F000F00700504421688860DFE03F
:101A600070492068884203D06F49206888426BD152
:101A7000FFF760F9814604206168A0FB01510B4625
:101A80001920A9FB00712A463846FEF7B7FB8246AB
:101A900004206168A0FB01510B461920A9FB0071CD
:101AA0002A463846FEF7AAFB6421B0FBF1F000EBB2
:101AB000C00101EB0010AAEB8000322101EB001005
:101AC0006421B0FBF1F000F0F00A04206168A0FB93
:101AD000015003461920A9FB00712A463846FEF73B
:101AE0008DFB6421B0FBF1F00AEB001A0420616861
:101AF000A0FB01510B461920A9FB00712A4638466C
:101B0000FEF77CFB074604206168A0FB01500346FA
:101B10001920A9FB00B12A465846FEF76FFB642145
:101B2000B0FBF1F000EBC00101EB0010A7EB80006F
:101B3000322101EB00106421B0FBF1F000F00F0046
:101B40005044216888606BE0FFF7E4F88146042088
:101B50006168A0FB015003461920A9FB00712A46C9
:101B60003846FEF74BFB824604206168A0FB01501B
:101B700003461920A9FB00712A463846FEF73EFBB2
:101B80006421B0FBF1F000EBC00101EB0010AAEB07
:101B90008000322101EB00106421B0FBF1F000F075
:101BA000F00A04206168A0FB015003461920A9FB3C
:101BB00000712A463846FEF721FB6421B0FBF1F0A4
:101BC0000AEB001A04206168A0FB0170034619208B
:101BD000A9FB005001463A462846FEF70FFB074690
:101BE00004206168A0FB015003461920A9FB00B145
:101BF0002A465846FEF702FB6421B0FBF1F000EBE9
:101C0000C00101EB0010A7EB8000322101EB0010B6
:101C10006421B0FBF1F000F00F00504421688860AF
:101C2000BDE8F88F001001400014014000BFFEE73E
:101C300002480068C0F30220704700000CED00E08D
:101C400010B5002804DB0A07130E054A135406E0FA
:101C50000A07140E034A00F00F031B1FD45410BDD3
:101C600000E400E018ED00E002E008C8121F08C11F
:101C7000002AFAD170477047002001E001C1121F0D
:101C8000002AFBD170470000FEF7AEFEFFF702FD11
:101C9000FFF772FCFFF754FCFFF7D6FC3222034932
:101CA0000348FFF7DBFB00BFFEE70000B0000020A9
:101CB000100000200006101600061016000000009C
:101CC00000000000010203040607080900000000EC
:101CD00001020304F41C00080000002010000000B2
:101CE000681C0008041D000810000020D804000033
:101CF000781C000800000000100000000100000037
:041D00000024F400C7
:04000005080001C529
:00000001FF
