:020000040800F2
:1000000090040020D9010008491400085513000885
:1000100045140008E5020008351A00080000000039
:100020000000000000000000000000004D14000867
:10003000E9020008000000004B1400084F140008FB
:10004000F3010008F3010008F3010008F3010008C0
:10005000F3010008F3010008F3010008F3010008B0
:10006000F3010008F3010008F3010008F3010008A0
:10007000F3010008F3010008F3010008F301000890
:10008000F3010008F3010008F3010008F301000880
:10009000F3010008F3010008F3010008F301000870
:1000A000F3010008F3010008F3010008F301000860
:1000B000ED140008F3010008F3010008F301000843
:1000C000F3010008F3010008F3010008F301000840
:1000D000F3010008F3010008F3010008F301000830
:1000E000F3010008F3010008F3010008F301000820
:1000F000F3010008F3010008F3010008F301000810
:10010000F3010008F3010008F3010008F3010008FF
:10011000F3010008F3010008F3010008F3010008EF
:10012000F3010008F3010008F3010008F3010008DF
:10013000F30100080000000000000000F3010008C7
:10014000F3010008F3010008F3010008F3010008BF
:10015000F3010008F3010008F3010008F3010008AF
:10016000F3010008F3010008F3010008F30100089F
:10017000F3010008F3010008F3010008000000008B
:1001800000000000F3010008000000000000000073
:10019000F30100080000000000000000F301000867
:1001A000000000000000000000000000F301000853
:1001B000F3010008F3010008F3010008F30100084F
:1001C000F3010008DFF80CD000F07AF8004800478F
:1001D000911A00089004002006488047064800470E
:1001E000FEE7FEE7FEE7FEE7FEE7FEE7FEE7FEE7E7
:1001F000FEE7FEE7D1140008C50100082DE9F05F15
:100200000546002092469B46884606468146402485
:100210001BE0284641464746224600F041F8534637
:100220005A46C01A914110D311461846224600F092
:1002300028F82D1A67EB01084F46224601200021BD
:1002400000F01FF817EB00094E41201EA4F1010435
:10025000DFDC484631462A464346BDE8F09FD2B22D
:1002600001E000F8012B491EFBD270470022F6E79F
:1002700010B513460A4604461946FFF7F0FF20461C
:1002800010BD202A04DB203A00FA02F1002070475A
:100290009140C2F1200320FA03F3194390407047C4
:1002A000202A04DB203A21FA02F00021704721FACB
:1002B00002F3D040C2F12002914008431946704732
:1002C000064C074D06E0E06840F0010394E80700A3
:1002D00098471034AC42F6D3FFF778FF0C1B0008A8
:1002E0002C1B000800BFFEE770470000F8B502466F
:1002F0000B460025002400200021D7E0012606FA45
:1003000001F51E6806EA0504AC4273D15E68012E51
:1003100008D05E68022E05D05E68112E02D05E689D
:10032000122E13D190684F000326BE40B0434F00F9
:10033000DE68BE4030439060506801268E40B04376
:100340001E79C6F300168E4030435060D0684F00CF
:100350000326BE40B0434F009E68BE403043D0608D
:100360005E68022E02D05E68122E13D1CF0802F111
:10037000200656F827004E07F70E0F26BE40B04362
:100380004F07FF0E1E69BE403043CF0802F1200622
:1003900046F8270010684F000326BE40B0431E7980
:1003A00006F003064F00BE40304310605E6806F062
:1003B0008056B6F1805F78D100BF002600963D4E92
:1003C000366846F480463B4F3E603E46366806F44B
:1003D0008046009600BF00BF374E8F0856F82700B2
:1003E0008E07370F0F26BE40B043344EB24202D1C3
:1003F00000261FE059E0324EB24201D1012619E039
:10040000304EB24201D1022614E02F4EB24201D149
:1004100003260FE02D4EB24201D104260AE02C4EF5
:10042000B24201D1052605E02A4EB24201D106268C
:1004300000E007268F073F0FBE4030431E4E8F0857
:1004400046F82700244E3068A0435E6806F48036E4
:10045000B6F5803F00D120431F4E3060361D306816
:10046000A0435E6806F40036B6F5003F00D1204395
:10047000194E361D3060361D3068A0435E6806F4A4
:100480008016B6F5801F00D12043134E0836306029
:10049000361D3068A0435E6806F40016B6F5001FEE
:1004A00000D120430C4E0C363060491C1029FFF45B
:1004B00025AFF8BD44380240083801400000024032
:1004C0000004024000080240000C024000100240FC
:1004D0000014024000180240003C014042690A40FA
:1004E0008A4202D10A04826100E0816170470AB148
:1004F000816101E00B0483617047000001480068DE
:100500007047000000000020034800680349097894
:1005100008440149086070470000002008000020DE
:1005200010B50D48006840F400700B49086008469B
:10053000006840F4806008600846006840F48070FD
:100540000860032000F0A6F8002000F007F800F093
:100550002BF8002010BD0000003C024070B504469E
:100560000E4800784FF47A71B1FBF0F00C4909683D
:10057000B1FBF0F5284600F055FC08B1012070BD34
:10058000102C07D200222146501E00F045F80548E5
:10059000046001E00120F2E70020F0E708000020FD
:1005A0000C0000200400002008B500BF00200090CF
:1005B0001048006840F480400E4908600846006812
:1005C00000F48040009000BF00BF00BF00200090FA
:1005D000081F006840F08050091F08600846006846
:1005E00000F08050009000BF00BF072000F052F8DC
:1005F00008BD00004438024001460846002809DBD7
:1006000000F01F0301229A4043099B0003F1E023FD
:10061000C3F8002100BF70472DE9F05F80460D460A
:100620001646002701F008FA074639462A4633469F
:1006300001F00700C0F1070ABAF1040F02D94FF028
:10064000040A01E0C0F1070AD14600F1040ABAF138
:10065000070F02D24FF0000A01E0A0F1030AD446CE
:100660004FF0010A0AFA09FAAAF1010A0AEA020A93
:100670000AFA0CFA4FF0010B0BFA0CFBABF1010B71
:100680000BEA030B4AEA0B042146404601F0DCF971
:10069000BDE8F09F00BF00F00702064B19684FF657
:1006A000FF031940044B0B4343EA0221014B19603D
:1006B00000BF70470CED00E00000FA0570B504467D
:1006C0000D460CB9012070BD5848006800F00F00BD
:1006D000A84209D255490D700846006800F00F0085
:1006E000A84201D00120EEE7207800F002000228A5
:1006F0001DD1207800F00400042805D14C48006882
:1007000040F4E0504A490860207800F008000828CA
:1007100005D14748006840F46040454908604448B6
:10072000006820F0F000A168084341490860207883
:1007300000F00100A8B36068012807D13C480838E0
:100740000068C0F34040B8B90120BCE760680228E7
:1007500002D06068032807D1354808380068C0F324
:10076000406048B90120AEE7314808380068C0F35E
:10077000400008B90120A6E72D48006820F00300DA
:10078000616808432A490860FFF7B8FE064609E099
:10079000FFF7B4FE801B41F28831884202D9032062
:1007A00091E707E02248006800F00C006168B0EBB8
:1007B000810FEDD11D48006800F00F00A84209D953
:1007C0001A490D700846006800F00F00A84201D0D9
:1007D000012078E7207800F00400042807D11448AD
:1007E000006820F4E050E16808431149086020786F
:1007F00000F00800082808D10D48006820F4604087
:10080000216940EAC1000A49086000F03FF8084940
:100810000968C1F30311074A515CC84006490860E2
:1008200006480068FFF79AFE00204CE7003C0240B3
:1008300008380240F41A00080C00002004000020D0
:1008400001480068704700000C00002000B5FFF769
:10085000F7FF04490968C1F38221034A515CC8408B
:1008600000BD000008380240041B000800B5FFF777
:10087000E7FF04490968C1F34231034A515CC840AB
:1008800000BD000008380240041B00082DE9F047B5
:10089000002400250026A146A2463F48006800F03B
:1008A0000C0030B1042807D0082808D00C286BD1E0
:1008B00038E0DFF8E8A06AE0DFF8E4A067E0364857
:1008C000001F006800F03F043348001F006800F478
:1008D000800078B132483049091F0968C1F3881196
:1008E000A0FB01700146224600233846FFF786FC34
:1008F00005460DE029482849091F0968C1F38811F8
:10090000A0FB0171224600233846FFF777FC05461D
:100910002148001F0068C0F30140401C4600B5FBA1
:10092000F6FA34E01C48001F006800F03F041A4843
:10093000001F006800F4800078B119481649091FAB
:100940000968C1F38811A0FB01700146224600230B
:100950003846FFF753FC05460EE010480E49091FC4
:100960000968C1F38811A0FB0170014622460023EB
:100970003846FFF743FC05460748001F0068C0F3F0
:100980000279B5FBF9FA02E0DFF810A000BF00BF62
:100990005046BDE8F0870000083802400024F4000B
:1009A00000127A00F8B504460025207800F0010016
:1009B00000286FD0FD48006800F00C0004281BD010
:1009C000FA48006800F00C00082807D1F748001F1B
:1009D000006800F48000B0F5800F0DD0F348006887
:1009E00000F00C000C2813D1F048001F006800F440
:1009F0008000B0F5800F0BD1EC4808380068C0F3D8
:100A00004040002859D06068002856D10120F8BD28
:100A100000BF6068B0F5803F08D1E448083800683E
:100A200040F48030E149083908601EE06068B0F5A4
:100A3000A02F0DD1DD480838006840F48020DB4944
:100A4000083908600846006840F4803008600CE00F
:100A5000D6480838006820F48030D4490839086046
:100A60000846006820F48020086000BF606890B1EC
:100A7000FFF744FD054606E0FFF740FD401B6428F4
:100A800001D90320C3E7C94808380068C0F34040D3
:100A90000028F1D011E0FFF731FD054606E0FFF731
:100AA0002DFD401B642801D90320B0E7BF4808385A
:100AB0000068C0F340400028F1D1207800F0020027
:100AC00002286BD1B948006800F00C00B8B1B748F3
:100AD000006800F00C00082805D1B448001F006829
:100AE00000F4800058B1B148006800F00C000C28F8
:100AF0001CD1AE48001F006800F48000B0B9AB48BC
:100B000008380068C0F3400020B1E068012801D037
:100B100001207CE7A5480838006820F0F80021692A
:100B200040EAC100A1490839086037E0E06800B335
:100B300001209F490860FFF7E1FC054606E0FFF74A
:100B4000DDFC401B022801D9032060E797480838E4
:100B50000068C0F340000028F1D0944808380068CD
:100B600020F0F800216940EAC10090490839086086
:100B700014E000208E490860FFF7C0FC054606E03F
:100B8000FFF7BCFC401B022801D903203FE7874840
:100B900008380068C0F340000028F1D1207800F048
:100BA000080008282CD16069A8B10120814908609B
:100BB000FFF7A4FC054606E0FFF7A0FC401B022857
:100BC00001D9032023E779486C300068C0F3400066
:100BD0000028F1D014E0002076490860FFF78EFC71
:100BE000054606E0FFF78AFC401B022801D90320D6
:100BF0000DE76E486C300068C0F340000028F1D16A
:100C0000207800F00400042870D1002667483830AE
:100C1000006800F0805090B900BF00200090634849
:100C20003830006840F0805060493831086008462C
:100C3000006800F08050009000BF00BF01265E48B1
:100C4000006800F48070B0B95B48006840F48070C0
:100C500059490860FFF752FC054606E0FFF74EFCD5
:100C6000401B022801D90320D1E65348006800F454
:100C700080700028F2D000BFA068012808D14B483E
:100C80006830006840F001004849683108601DE0A4
:100C9000A06805280DD145486830006840F0040080
:100CA0004249683108600846006840F00100086069
:100CB0000CE03E486830006820F001003B49683194
:100CC00008600846006820F00400086000BFA068C3
:100CD000A8B1FFF713FC054609E0FFF70FFC401B26
:100CE00041F28831884202D9032090E626E02F485D
:100CF00068300068C0F340000028EED013E0FFF732
:100D0000FDFB054608E0FFF7F9FB401B41F2883187
:100D1000884201D903207AE6244868300068C0F38D
:100D200040000028EFD1012E07D12048383000685C
:100D300020F080501D493831086000BFA069E8B339
:100D40001A48006800F00C00082862D0A069022848
:100D50004AD1002016490866FFF7D0FB054606E099
:100D6000FFF7CCFB401B022801D903204FE60F48B8
:100D700008380068C0F340600028F1D1D4E90701C9
:100D80000843616A40EA81110122A06AC2EB500067
:100D900041EA00412C20005D41EA00613020005D05
:100DA00041EA00700149091F086008E00838024064
:100DB00000004742800E4742007000402BE00120B7
:100DC00016490866FFF79AFB054606E0FFF796FB13
:100DD000401B022801D9032019E611480068C0F31E
:100DE00040600028F2D016E000200C490866FFF7AA
:100DF00085FB054606E0FFF781FB401B022801D971
:100E0000032004E606480068C0F340600028F2D1E1
:100E100001E00120FBE50020F9E500000000474269
:100E20000038024070B504462546681EB0F1807F48
:100E300001D301200FE0681E4FF0E02148610F212F
:100E40004FF0FF3000F000FE00204FF0E0218861FD
:100E500007200861002070BD7047704730B502461A
:100E60000B4600BF92F83C00012801D1022030BDA2
:100E7000012082F83C0000BF022082F83D0010688B
:100E800044681068816824F070041868044310688E
:100E90004460184D1068A8421BD01068B0F1804F14
:100EA00017D0154D1068A84213D0144D1068A842F1
:100EB0000FD0134D1068A8420BD0124D1068A842F5
:100EC00007D0114D1068A84203D0104D1068A842F9
:100ED00005D121F08001586801431068816001202C
:100EE00082F83D0000BF002082F83C0000BF00BF38
:100EF000BDE7000000000140000400400008004081
:100F0000000C004000040140004001400018004077
:100F100010B504460CB9012010BD94F83D0028B965
:100F2000002084F83C00204600F00CF8022084F8F1
:100F30003D00211D206800F0E1FA012084F83D0009
:100F40000020E9E738B504462068B0F1804F17D19A
:100F500000BF002000900B48006840F001000949E4
:100F600008600846006800F00100009000BF00BF64
:100F7000002211461C20FFF74FFB1C20FFF73CFB13
:100F800038BD0000403802400146022081F83D0093
:100F90000868806800F00702062A05D00868006823
:100FA00040F001000B681860012081F83D0000202E
:100FB00070472DE9F04104460D4600BF94F83C000F
:100FC000012802D10220BDE8F081012084F83C0014
:100FD00000BF022084F83D002068866826F077066E
:100FE00026F47F46206886602868502833D00CDCC1
:100FF000202850D004DC00284BD0102851D149E0E3
:10100000302849D040284CD139E060282DD07028B4
:1010100007D0B0F5805F03D0B0F5005F41D10DE09F
:1010200040E0D5E902136A68206800F0D3FA20682E
:10103000866846F077062068866033E0D5E90213BB
:101040006A68206800F0C6FA2068806840F4804032
:101050002168886026E0EA686968206800F0CEFAB6
:101060005021206800F0C1FA1CE0EA686968206835
:1010700000F0D7FA6021206800F0B7FA12E0EA68C1
:101080006968206800F0BAFA4021206800F0ADFAE3
:1010900008E000BF00BF00BF2968206800F0A5FA83
:1010A00000E000BF00BF012084F83D0000BF002029
:1010B00084F83C0000BF00BF85E7704710B50446C8
:1010C00020680069C0F34000D8B12068C068C0F350
:1010D0004000B0B16FF00200216808610120207764
:1010E0002068806900F0030018B12046FFF7E5FF93
:1010F00005E0204600F0ADF8204600F0ABF80020F7
:10110000207720680069C0F38000D8B12068C068EB
:10111000C0F38000B0B16FF00400216808610220C4
:1011200020772068806900F4407018B12046FFF7EE
:10113000C4FF05E0204600F08CF8204600F08AF855
:101140000020207720680069C0F3C000D8B1206873
:10115000C068C0F3C000B0B16FF00800216808613A
:10116000042020772068C06900F0030018B12046F1
:10117000FFF7A3FF05E0204600F06BF8204600F0E3
:1011800069F80020207720680069C0F30010D8B10A
:101190002068C068C0F30010B0B16FF01000216883
:1011A0000861082020772068C06900F4407018B1F9
:1011B0002046FFF782FF05E0204600F04AF820466F
:1011C00000F048F8002020772068006900F0010056
:1011D00058B12068C06800F0010030B16FF0010024
:1011E00021680861204600F036F820680069C0F3E5
:1011F000C01058B12068C068C0F3C01030B16FF0A3
:101200008000216808612046FFF726FE20680069FB
:10121000C0F3801058B12068C068C0F3801030B1AE
:101220006FF0400021680861204600F015F8206842
:101230000069C0F3401058B12068C068C0F3401086
:1012400030B16FF02000216808612046FFF705FEED
:1012500010BD704770477047704710B504460CB911
:10126000012010BDA06900B100E000BF94F8390072
:1012700028B9002084F83800204600F027F8242000
:1012800084F839002068C06820F400502168C860E4
:10129000204600F0DBF92068006920F490402168C6
:1012A00008612068406920F02A00216848612068B0
:1012B000C06840F400502168C8600020E06320202E
:1012C00084F8390084F83A000020CAE710B586B0E7
:1012D0000446142101A8FEF7C9FF1B492068884273
:1012E0002FD100BF002000901848006840F4003063
:1012F000164908600846006800F40030009000BFFE
:1013000000BF00BF0020009010481038006840F077
:1013100001000E49103908600846006800F001001D
:10132000009000BF00BF0C2001900220029001201D
:101330000390032004900720059001A90448FEF7BC
:10134000D5FF06B010BD0000004400404038024008
:101350000000024000BFFEE730B587B014216846A8
:10136000FEF784FF1E480024016841F0040101607B
:10137000016801F004010591016841F080010160FC
:10138000016801F080010591016841F001010160EF
:10139000016801F001010591016841F0020101605D
:1013A0000068104D00F00200059000222021284620
:1013B000FFF79DF84FF4005000900B48CDE9010471
:1013C00069460A48FEF792FF202000900120CDE9EF
:1013D0000104694628460394FEF788FF07B030BD34
:1013E0003038024000000240000021100008024096
:1013F00010B586B00024124800940194029403941E
:1014000004944FF080410594016040F23F61C0E9CF
:10141000011442F20F71C0E903148461FFF778FDF3
:101420004FF48050009069460548FFF7C2FD0494D0
:1014300004A903480594FFF711FD06B010BD000094
:101440001000002000BFFEE770477047704710B5DE
:10145000FFF75AF810BD000010B594B0342168466B
:10146000FEF704FF14210DA8FEF700FF1648002424
:10147000016841F080510160006800F080501290D6
:101480001248016821F4404141F480410160006844
:10149000069400F440401290022000900120039036
:1014A000102004906846FFF77DFA0F20CDE90D0467
:1014B0004FF48050CDE90F4000210DA81194FFF7A3
:1014C000FDF814B010BD000040380240007000402C
:1014D0000548006840F47000034908604FF0006060
:1014E000014980390860704788ED00E010B5024876
:1014F000FFF7E4FD10BD00001000002010B50268E9
:10150000294B98420ED0B0F1804F0BD0274B984218
:1015100008D0274B984205D0264B984202D0264B44
:10152000984203D122F070024B681A431E4B984236
:1015300020D0B0F1804F1DD01C4B98421AD01C4BCC
:10154000984217D01B4B984214D01B4B984211D095
:101550001A4B98420ED01A4B98420BD0194B984216
:1015600008D0194B984205D0184B984202D0184B1E
:10157000984203D122F44072CB681A4322F08003D0
:101580004C6943EA040202608B68C3620B688362A1
:10159000054B984202D0084B984201D10B69036376
:1015A0000123436110BD0000000001400004004021
:1015B00000080040000C00400004014000400140D1
:1015C000004401400048014000180040001C004059
:1015D0000020004030B50C46816821F47F4142EA8A
:1015E000032525432943816030BD0A46816821F0E7
:1015F000700142F0070319438160704730B50B4614
:101600001446026A056A25F001050562816921F028
:10161000F00141EA041122F00A021A4381610262D8
:1016200030BD30B50B461446056A25F0100505623D
:101630008169026A21F4704141EA043122F0A0027A
:1016400042EA03128161026230BD00002DE9F84FC9
:1016500004462068006920F44050E168084321688E
:1016600008612169A068084361690843E16908438A
:1016700000902068C06849F20C61884300990843D3
:101680002168C8602068406920F44070A16908435F
:1016900021684861E069B0F5004F75D1E3492068E1
:1016A000884203D0E249206888426FD1FFF7DEF814
:1016B000814602206168A0FB01510B461920A9FB5D
:1016C00000712A463846FEF799FD6421B0FBF1F01F
:1016D0004FEA001A02206168A0FB01510B46192055
:1016E000A9FB00712A463846FEF788FD074602200E
:1016F0006168A0FB01510B461920A9FB00B12A46E5
:101700005846FEF77BFD6421B0FBF1F000EBC00111
:1017100001EB0010A7EB8000322101EBC000642137
:10172000B0FBF1F000F0F8000AEB400A022061681B
:10173000A0FB01510B461920A9FB00712A4638462F
:10174000FEF75CFD074602206168A0FB01510B46D5
:101750001920A9FB00B12A465846FEF74FFD642127
:10176000B0FBF1F000EBC00101EB0010A7EB800033
:10177000322101EBC0006421B0FBF1F000F0070062
:101780005044216888604FE16EE0FFE7FFF75EF8A4
:10179000814602206168A0FB01510B461920A9FB7C
:1017A00000712A463846FEF729FD6421B0FBF1F0AE
:1017B0004FEA001A02206168A0FB01510B46192074
:1017C000A9FB00712A463846FEF718FD074602209D
:1017D0006168A0FB01510B461920A9FB00B12A4604
:1017E0005846FEF70BFD6421B0FBF1F000EBC001A1
:1017F00001EB0010A7EB8000322101EBC000642157
:10180000B0FBF1F000F0F8000AEB400A022061683A
:10181000A0FB01510B461920A9FB00712A4638464E
:10182000FEF7ECFC074602206168A0FB015003466E
:101830001920A9FB00B12A465846FEF7DFFC6421B7
:10184000B0FBF1F000EBC00101EB0010A7EB800052
:10185000322101EBC0006421B0FBF1F000F0070081
:10186000504421688860DFE070492068884203D0D6
:101870006F49206888426BD1FEF7F8FF814604204B
:101880006168A0FB01510B461920A9FB00712A4693
:101890003846FEF7B3FC824604206168A0FB015184
:1018A0000B461920A9FB00712A463846FEF7A6FC14
:1018B0006421B0FBF1F000EBC00101EB0010AAEBDA
:1018C0008000322101EB00106421B0FBF1F000F048
:1018D000F00A04206168A0FB015003461920A9FB0F
:1018E00000712A463846FEF789FC6421B0FBF1F00E
:1018F0000AEB001A04206168A0FB01510B46192075
:10190000A9FB00712A463846FEF778FC07460420FA
:101910006168A0FB015003461920A9FB00B12A46CB
:101920005846FEF76BFC6421B0FBF1F000EBC00100
:1019300001EB0010A7EB8000322101EB00106421C5
:10194000B0FBF1F000F00F005044216888606BE0BC
:10195000FEF77CFF814604206168A0FB015003462E
:101960001920A9FB00712A463846FEF747FC82463B
:1019700004206168A0FB015003461920A9FB0071F7
:101980002A463846FEF73AFC6421B0FBF1F000EB42
:10199000C00101EB0010AAEB8000322101EB001026
:1019A0006421B0FBF1F000F0F00A04206168A0FBB4
:1019B000015003461920A9FB00712A463846FEF75C
:1019C0001DFC6421B0FBF1F00AEB001A04206168F1
:1019D000A0FB017003461920A9FB005001463A46BE
:1019E0002846FEF70BFC074604206168A0FB015067
:1019F00003461920A9FB00B12A465846FEF7FEFB14
:101A00006421B0FBF1F000EBC00101EB0010A7EB8B
:101A10008000322101EB00106421B0FBF1F000F0F6
:101A20000F00504421688860BDE8F88F0010014025
:101A30000014014000BFFEE702480068C0F3022026
:101A4000704700000CED00E010B5002804DB0A0729
:101A5000130E054A135406E00A07140E034A00F059
:101A60000F031B1FD45410BD00E400E018ED00E08C
:101A700002E008C8121F08C1002AFAD17047704757
:101A8000002001E001C1121F002AFBD170470000B5
:101A9000FEF746FDFFF7E0FCFFF75EFCFFF7A8FC52
:101AA000124811490C2201604FF4E13141600021DC
:101AB0008160C160C0E904128161C161FFF7CDFBA3
:101AC0000A484038FFF760FA084C094D403C21684D
:101AD0000869C007FBD0086920F0010008612021D7
:101AE0002846FEF7FBFCF2E70044004050000020CF
:101AF000000002400000000000000000010203049A
:101B00000607080900000000010203042C1B00085E
:101B10000000002010000000701A00083C1B0008A4
:101B20001000002080040000801A0008000000005F
:0C1B300010000000010000000024F40080
:04000005080001C529
:00000001FF
