:020000040800F2
:1000000078040020D9010008E1010008E30100089C
:10001000E5010008E7010008E90100080000000010
:10002000000000000000000000000000EB010008DC
:10003000ED01000800000000EF010008991600081B
:10004000F3010008F3010008F3010008F3010008C0
:10005000F3010008F3010008F3010008F3010008B0
:10006000F3010008F3010008F3010008F3010008A0
:10007000F3010008F3010008F3010008F301000890
:10008000F3010008F3010008F3010008F301000880
:10009000F3010008F3010008F3010008F301000870
:1000A000F3010008F3010008F3010008F301000860
:1000B000F3010008F3010008F3010008F301000850
:1000C000F3010008F3010008F3010008F301000840
:1000D000F3010008F3010008F3010008F301000830
:1000E000F3010008F3010008F3010008F301000820
:1000F000F3010008F3010008F3010008F301000810
:10010000F3010008F3010008F3010008F3010008FF
:10011000F3010008F3010008F3010008F3010008EF
:10012000E5020008F3010008F3010008F3010008EC
:10013000F30100080000000000000000F3010008C7
:10014000F3010008F3010008F3010008F3010008BF
:10015000F3010008F3010008F3010008F3010008AF
:10016000F3010008F3010008F3010008F30100089F
:10017000F3010008F3010008F3010008000000008B
:1001800000000000F3010008000000000000000073
:10019000F30100080000000000000000F301000867
:1001A000000000000000000000000000F301000853
:1001B000F3010008F3010008F3010008F30100084F
:1001C000F3010008DFF80CD000F07AF8004800478F
:1001D000D1170008780400200648804706480047E9
:1001E000FEE7FEE7FEE7FEE7FEE7FEE7FEE7FEE7E7
:1001F000FEE7FEE75D170008C50100082DE9F05F86
:100200000546002092469B46884606468146402485
:100210001BE0284641464746224600F041F8534637
:100220005A46C01A914110D311461846224600F092
:1002300028F82D1A67EB01084F46224601200021BD
:1002400000F01FF817EB00094E41201EA4F1010435
:10025000DFDC484631462A464346BDE8F09FD2B22D
:1002600001E000F8012B491EFBD270470022F6E79F
:1002700010B513460A4604461946FFF7F0FF20461C
:1002800010BD202A04DB203A00FA02F1002070475A
:100290009140C2F1200320FA03F3194390407047C4
:1002A000202A04DB203A21FA02F00021704721FACB
:1002B00002F3D040C2F12002914008431946704732
:1002C000064C074D06E0E06840F0010394E80700A3
:1002D00098471034AC42F6D3FFF778FF7C1800083B
:1002E0009C18000810B5024800F0E2F810BD0000AC
:1002F00014000020704700000146087810381823C9
:10030000B0FBF3F20848805CC865032A05D9086889
:100310006FF30900001D886503E008686FF30900AA
:100320008865886D704700005C1800080146002051
:100330008A6A8B69CBB932B1012A0DD0022A03D067
:10034000032A10D10EE000BFCB6A03F08073B3F133
:10035000807F00D1012007E0CB6AB3F1C07F00D1DC
:10036000012001E000E000BF34E08B69B3F5005FDD
:100370001AD132B1012A07D0022A03D0032A11D19F
:100380000AE000BF01200EE0CB6A03F08073B3F1F6
:10039000807F00D1012006E0CB6AB3F1C07F00D19D
:1003A000012000E000BF15E032B1012A05D0022A89
:1003B00004D0032A0CD103E000BF00BF012008E0F5
:1003C000CB6A03F08073B3F1807F00D1012000E09D
:1003D00000BF00BF704730B50468246824F480244F
:1003E00005682C60046863608468402C04D104684C
:1003F000A2600468E16003E00468A1600468E26050
:1004000030BD704770B50446A56D00F00BFC064684
:1004100094F83500022808D08020606500BF0020D5
:1004200084F8340000BF012070BD2068006820F00F
:100430001600216808602068406920F0800021686B
:100440004861206C08B9A06C28B12068006820F0D1
:100450000800216808602068006820F00100216819
:1004600008600FE000F0DEFB801B05280AD9202081
:10047000606500BF002084F8340000BF032084F8CA
:100480003500D1E72068006800F001000028E9D1BC
:1004900094F85C103F208840A86000BF002084F8DA
:1004A000340000BF012084F835000020BCE70000C4
:1004B000F8B50446002000908C4800684FF41651AF
:1004C000B0FBF1F7A56D2E6894F85C100820884009
:1004D000304098B12068006800F0040070B12068D6
:1004E000006820F004002168086094F85C1008207F
:1004F0008840A860606D40F00100606594F85C1071
:1005000001208840304068B12068406900F08000D8
:1005100040B194F85C1001208840A860606D40F004
:100520000200606594F85C1004208840304068B197
:100530002068006800F0020040B194F85C100420CC
:100540008840A860606D40F00400606594F85C101D
:1005500010208840304078B32068006800F0080020
:1005600050B394F85C1010208840A86020680068A0
:1005700000F4802080B12068006800F4002028B9D1
:10058000206CC8B12046216C884715E0A06C98B15A
:100590002046A16C88470FE02068006800F4807056
:1005A00028B92068006820F0080021680860206CE5
:1005B00010B12046216C884794F85C1020208840B8
:1005C0003040002865D02068006800F01000002846
:1005D0005FD094F85C1020208840A86094F8350023
:1005E000052828D12068006820F0160021680860DE
:1005F0002068406920F0800021684861206C08B9BB
:10060000A06C28B12068006820F00800216808600C
:1006100094F85C103F208840A86000BF002084F858
:10062000340000BF012084F83500206D10B1204651
:10063000216D8847F8BD2068006800F4802080B1F3
:100640002068006800F4002028B9606C10B12046D2
:10065000616C88471DE0E06BD8B12046E16B8847AC
:1006600017E02068006800F4807068B920680068AE
:1006700020F010002168086000BF002084F83400DA
:1006800000BF012084F83500E06B10B12046E16B1B
:100690008847606D38B3606D00F00100F0B105204F
:1006A00084F835002068006820F0010021680860A7
:1006B00000BF0098401C0090B84200D905E02068B7
:1006C000006800F001000028F3D100BF00BF002047
:1006D00084F8340000BF012084F83500E06C10B1CC
:1006E0002046E16C884700BFA4E70000100000200E
:1006F0002DE9F0410446002500F094FA074614B9AC
:100700000120BDE8F081606A00B100BF00BF002099
:1007100084F8340000BF022084F8350020680068A7
:1007200020F00100216808600AE000F07BFAC01B9D
:10073000052805D920206065032084F83500E0E70E
:100740002068006800F001000028EED120680568EC
:1007500021480540D4E901010843E16808432169C3
:10076000084361690843A1690843E1690843216AB4
:1007700008430543606A042803D1D4E90B01084308
:100780000543206805602068456925F00705606A13
:100790000543606A04280DD1A06A0543E06A48B1A8
:1007A0002046FFF7C3FD28B140206065012084F892
:1007B0003500A6E7206845612046FFF79DFD064607
:1007C00094F85C103F208840B060002060650120F4
:1007D00084F83500002094E73F8010F02DE9F05FA9
:1007E0000446884617464FF0000A00F01BFA83467D
:1007F00094F83500022809D08020606500BF0020F1
:1008000084F8340000BF0120BDE8F09F2068006834
:1008100000F4807020B14FF4807060650120F3E730
:10082000B8F1000F05D194F85C10202000FA01F90E
:1008300004E094F85C10102000FA01F9A56D2E6810
:1008400042E0781C90B12FB100F0ECF9A0EB0B0066
:10085000B8420BD92020606500BF002084F8340026
:1008600000BF012084F835000320CDE72E6894F8FE
:100870005C1008208840304040B1606D40F00100BD
:10088000606594F85C1008208840A86094F85C10BB
:1008900001208840304040B1606D40F0020060654A
:1008A00094F85C1001208840A86094F85C10042043
:1008B0008840304040B1606D40F00400606594F8BD
:1008C0005C1004208840A86006EA090020B9606D29
:1008D00000F001000028B4D0606DA0B1606D00F0A0
:1008E000010080B12046FFF78DFD94F85C103020A8
:1008F0008840A86000BF002084F8340000BF0120B9
:1009000084F8350080E7B8F1000F0DD194F85C1041
:1009100030208840A86000BF002084F8340000BF69
:10092000012084F8350004E094F85C101020884021
:10093000A860504668E710B50346002400BF93F84E
:100940003400012801D1022010BD012083F83400B9
:1009500000BF93F83500012814D1062910D2DFE832
:1009600001F0030507090B0DDA630AE01A6408E0D9
:100970005A6406E09A6404E0DA6402E01A6500E072
:1009800000BF00E0012400BF002083F8340000BF56
:100990002046D9E72DE9F04704460D4616461F4686
:1009A0004FF00008D4F8589000BF94F834000128A4
:1009B00002D10220BDE8F087012084F8340000BF96
:1009C00094F83500012825D1022084F83500002054
:1009D00060653B46324629462046FFF7FCFC94F80A
:1009E0005C103F208840C9F808002068006840F08B
:1009F000160021680860206C28B12068006840F06B
:100A00000800216808602068006840F00100216843
:100A1000086006E000BF002084F8340000BF4FF0FB
:100A200002084046C6E70000F8B502460B4600251E
:100A3000002400200021D7E0012606FA01F51E68F7
:100A400006EA0504AC4273D15E68012E08D05E68E8
:100A5000022E05D05E68112E02D05E68122E13D1D0
:100A600090684F000326BE40B0434F00DE68BE4092
:100A700030439060506801268E40B0431E79C6F323
:100A800000168E4030435060D0684F000326BE40B1
:100A9000B0434F009E68BE403043D0605E68022E77
:100AA00002D05E68122E13D1CF0802F1200656F84C
:100AB00027004E07F70E0F26BE40B0434F07FF0E2C
:100AC0001E69BE403043CF0802F1200646F82700D9
:100AD00010684F000326BE40B0431E7906F003069F
:100AE0004F00BE40304310605E6806F08056B6F19D
:100AF000805F78D100BF002600963D4E366846F4F0
:100B000080463B4F3E603E46366806F4804600967F
:100B100000BF00BF374E8F0856F827008E07370FEB
:100B20000F26BE40B043344EB24202D100261FE031
:100B300059E0324EB24201D1012619E0304EB242A4
:100B400001D1022614E02F4EB24201D103260FE05C
:100B50002D4EB24201D104260AE02C4EB24201D100
:100B6000052605E02A4EB24201D1062600E00726FE
:100B70008F073F0FBE4030431E4E8F0846F82700B8
:100B8000244E3068A0435E6806F48036B6F5803F98
:100B900000D120431F4E3060361D3068A0435E6890
:100BA00006F40036B6F5003F00D12043194E361D3D
:100BB0003060361D3068A0435E6806F48016B6F5D6
:100BC000801F00D12043134E08363060361D306838
:100BD000A0435E6806F40016B6F5001F00D120435E
:100BE0000C4E0C363060491C1029FFF425AFF8BDBF
:100BF000443802400838014000000240000402402E
:100C000000080240000C02400010024000140240A4
:100C100000180240003C01400AB1816101E00B0470
:100C2000836170470148006870470000040000209D
:100C3000034800680349097808440149086070477F
:100C4000040000200C00002010B50D48006840F49E
:100C500000700B4908600846006840F48060086036
:100C60000846006840F480700860032000F0A6F891
:100C7000002000F007F800F02BF8002010BD000065
:100C8000003C024070B504460E4800784FF47A717B
:100C9000B1FBF0F00C490968B1FBF0F5284600F013
:100CA0002FFC08B1012070BD102C07D20022214674
:100CB000501E00F045F80548046001E00120F2E70D
:100CC0000020F0E70C0000201000002008000020A9
:100CD00008B500BF002000901048006840F4804034
:100CE0000E4908600846006800F48040009000BF8C
:100CF00000BF00BF00200090081F006840F0805037
:100D0000091F08600846006800F08050009000BF8E
:100D100000BF072000F052F808BD00004438024030
:100D200001460846002809DB00F01F0301229A4013
:100D300043099B0003F1E023C3F8002100BF704783
:100D40002DE9F05F80460D461646002700F014FDA1
:100D5000074639462A46334601F00700C0F1070A24
:100D6000BAF1040F02D94FF0040A01E0C0F1070AFA
:100D7000D14600F1040ABAF1070F02D24FF0000A7F
:100D800001E0A0F1030AD4464FF0010A0AFA09FA79
:100D9000AAF1010A0AEA020A0AFA0CFA4FF0010B58
:100DA0000BFA0CFBABF1010B0BEA030B4AEA0B0449
:100DB0002146404600F0E8FCBDE8F09F00BF00F08F
:100DC0000702064B19684FF6FF031940044B0B430B
:100DD00043EA0221014B196000BF70470CED00E0AF
:100DE0000000FA0570B504460D460CB9012070BD2F
:100DF0005848006800F00F00A84209D255490D700C
:100E00000846006800F00F00A84201D00120EEE77C
:100E1000207800F0020002281DD1207800F00400A4
:100E2000042805D14C48006840F4E0504A49086065
:100E3000207800F00800082805D14748006840F4F1
:100E40006040454908604448006820F0F000A1680F
:100E5000084341490860207800F00100A8B36068A9
:100E6000012807D13C4808380068C0F34040B8B9B1
:100E70000120BCE76068022802D06068032807D11F
:100E8000354808380068C0F3406048B90120AEE733
:100E9000314808380068C0F3400008B90120A6E7CF
:100EA0002D48006820F00300616808432A49086063
:100EB000FFF7B8FE064609E0FFF7B4FE801B41F2DB
:100EC0008831884202D9032091E707E02248006870
:100ED00000F00C006168B0EB810FEDD11D48006897
:100EE00000F00F00A84209D91A490D7008460068A1
:100EF00000F00F00A84201D0012078E7207800F030
:100F00000400042807D11448006820F4E050E16888
:100F1000084311490860207800F00800082808D12B
:100F20000D48006820F46040216940EAC1000A4988
:100F3000086000F019F808490968C1F30311074A6D
:100F4000515CC8400649086006480068FFF79AFEF1
:100F500000204CE7003C02400838024064180008BA
:100F600010000020080000202DE9F0470024002593
:100F70000026A146A2463F48006800F00C0030B1B0
:100F8000042807D0082808D00C286BD138E0DFF8F7
:100F9000E8A06AE0DFF8E4A067E03648001F0068D8
:100FA00000F03F043348001F006800F4800078B16F
:100FB00032483049091F0968C1F38811A0FB01704C
:100FC0000146224600233846FFF718F905460DE092
:100FD00029482849091F0968C1F38811A0FB01713C
:100FE000224600233846FFF709F905462148001F2D
:100FF0000068C0F30140401C4600B5FBF6FA34E03F
:101000001C48001F006800F03F041A48001F0068D9
:1010100000F4800078B119481649091F0968C1F326
:101020008811A0FB01700146224600233846FFF7D5
:10103000E5F805460EE010480E49091F0968C1F39E
:101040008811A0FB01700146224600233846FFF7B5
:10105000D5F805460748001F0068C0F30279B5FBC4
:10106000F9FA02E0DFF810A000BF00BF5046BDE86B
:10107000F0870000083802400024F40000127A00D3
:10108000F8B504460025207800F0010000286FD054
:10109000FD48006800F00C0004281BD0FA480068E6
:1010A00000F00C00082807D1F748001F006800F482
:1010B0008000B0F5800F0DD0F348006800F00C0000
:1010C0000C2813D1F048001F006800F48000B0F530
:1010D000800F0BD1EC4808380068C0F3404000286E
:1010E00059D06068002856D10120F8BD00BF606863
:1010F000B0F5803F08D1E4480838006840F48030FB
:10110000E149083908601EE06068B0F5A02F0DD1F4
:10111000DD480838006840F48020DB490839086061
:101120000846006840F4803008600CE0D648083873
:10113000006820F48030D449083908600846006807
:1011400020F48020086000BF606890B1FFF76AFD5E
:10115000054606E0FFF766FD401B642801D9032021
:10116000C3E7C94808380068C0F340400028F1D000
:1011700011E0FFF757FD054606E0FFF753FD401B62
:10118000642801D90320B0E7BF4808380068C0F3DD
:1011900040400028F1D1207800F0020002286BD1F5
:1011A000B948006800F00C00B8B1B748006800F01A
:1011B0000C00082805D1B448001F006800F4800026
:1011C00058B1B148006800F00C000C281CD1AE48A2
:1011D000001F006800F48000B0B9AB480838006810
:1011E000C0F3400020B1E068012801D001207CE775
:1011F000A5480838006820F0F800216940EAC100DD
:10120000A1490839086037E0E06800B301209F4930
:101210000860FFF707FD054606E0FFF703FD401BEA
:10122000022801D9032060E7974808380068C0F316
:1012300040000028F1D094480838006820F0F800F9
:10124000216940EAC10090490839086014E0002093
:101250008E490860FFF7E6FC054606E0FFF7E2FC72
:10126000401B022801D903203FE78748083800685F
:10127000C0F340000028F1D1207800F008000828D1
:101280002CD16069A8B1012081490860FFF7CAFC30
:10129000054606E0FFF7C6FC401B022801D90320E3
:1012A00023E779486C300068C0F340000028F1D093
:1012B00014E0002076490860FFF7B4FC054606E01C
:1012C000FFF7B0FC401B022801D903200DE76E4850
:1012D0006C300068C0F340000028F1D1207800F0A5
:1012E0000400042870D1002667483830006800F0F8
:1012F000805090B900BF00200090634838300068EB
:1013000040F080506049383108600846006800F0BD
:101310008050009000BF00BF01265E48006800F4C6
:101320008070B0B95B48006840F48070594908602B
:10133000FFF778FC054606E0FFF774FC401B022827
:1013400001D90320D1E65348006800F480700028DA
:10135000F2D000BFA068012808D14B48683000686F
:1013600040F001004849683108601DE0A068052888
:101370000DD145486830006840F0040042496831AA
:1013800008600846006840F0010008600CE03E4834
:101390006830006820F001003B4968310860084669
:1013A000006820F00400086000BFA068A8B1FFF743
:1013B00039FC054609E0FFF735FC401B41F2883156
:1013C000884202D9032090E626E02F486830006862
:1013D000C0F340000028EED013E0FFF723FC0546E1
:1013E00008E0FFF71FFC401B41F28831884201D919
:1013F00003207AE6244868300068C0F340000028E3
:10140000EFD1012E07D120483830006820F08050FD
:101410001D493831086000BFA069E8B31A48006868
:1014200000F00C00082862D0A06902284AD10020F0
:1014300016490866FFF7F6FB054606E0FFF7F2FBE4
:10144000401B022801D903204FE60F4808380068E6
:10145000C0F340600028F1D1D4E907010843616A74
:1014600040EA81110122A06AC2EB500041EA00412A
:101470002C20005D41EA00613020005D41EA0070EF
:101480000149091F086008E008380240000047428F
:10149000800E4742007000402BE00120164908668C
:1014A000FFF7C0FB054606E0FFF7BCFB401B022828
:1014B00001D9032019E611480068C0F340600028F4
:1014C000F2D016E000200C490866FFF7ABFB05469A
:1014D00006E0FFF7A7FB401B022801D9032004E622
:1014E00006480068C0F340600028F2D101E0012006
:1014F000FBE50020F9E5000000004742003802400B
:1015000070B504462546681EB0F1807F01D30120E6
:101510000FE0681E4FF0E02148610F214FF0FF30CF
:1015200000F032F900204FF0E021886107200861C7
:10153000002070BD08B500BF00200090184800686A
:1015400040F48000164908600846006800F48000F6
:10155000009000BF00BF1348134908600020486096
:101560008021114881600021C16001614161816178
:10157000C161016204214162032181620021C162D3
:101580000163FFF7B5F808B1FEF73BFF00221146F3
:101590003820FFF7D5FB3820FFF7C2FB08BD00005D
:1015A00030380240106402401400002000B587B0BB
:1015B000142102A8FEF75AFE00BF00200190324815
:1015C000006840F00400304908600846006800F0F8
:1015D0000400019000BF00BF00BF0020019008463A
:1015E000006840F0800008600846006800F0800055
:1015F000019000BF00BF00BF0020019008460068B6
:1016000040F0010008600846006800F00100019009
:1016100000BF00BF00BF002001900846006840F0F6
:10162000020008600846006800F00200019000BF58
:1016300000BF002220211548FFF7EEFA4FF40050BA
:101640000290134803900020049002A91148FFF76C
:10165000EBF90C200290022003900020049003205C
:1016600005900720069002A90848FFF7DDF9202021
:1016700002900120039000200490059002A90348E5
:10168000FFF7D2F907B000BD303802400000024039
:10169000000021100008024010B5FFF7C9FA10BD84
:1016A00000B593B0342106A8FEF7E0FD142101A88F
:1016B000FEF7DCFD00BF002000902648006840F0E7
:1016C0008050244908600846006800F0805000906F
:1016D00000BF00BF00BF002000901F48006820F43A
:1016E000404040F480401C4908600846006800F40F
:1016F0004040009000BF00BF0220069001200990EA
:1017000010200A9002200C9000210D9110210E91C2
:101710004FF4A8710F91042110910221119112919F
:1017200006A8FFF7ADFC08B1FEF76BFE0F20019095
:1017300002200290002003904FF48050049000207B
:101740000590022101A8FFF74DFB08B1FEF759FEF5
:1017500013B000BD403802400070004005480068EA
:1017600040F47000034908604FF00060014980397F
:101770000860704788ED00E002480068C0F302206E
:10178000704700000CED00E010B5002804DB0A07EC
:10179000130E054A135406E00A07140E034A00F01C
:1017A0000F031B1FD45410BD00E400E018ED00E04F
:1017B00002E008C8121F08C1002AFAD1704770471A
:1017C000002001E001C1121F002AFBD17047000078
:1017D000FFF73AFAFFF764FFFFF7E8FEFFF7AAFE0C
:1017E00000241A4A00211A48FFF7A5F82CE001232B
:1017F000184A19491648FFF7CDF84FF0FF3200217B
:101800001348FEF7EBFFFFF70DFA044600BFFFF7A2
:1018100009FA04F57A718842F9D901230D4A0E4973
:10182000491C0B48FFF7B6F84FF0FF32002108487B
:10183000FEF7D4FFFFF7F6F9044600BFFFF7F2F911
:1018400004F57A718842F9D9D1E70000F502000861
:1018500014000020140002400000002000061016B2
:101860000006101600000000000000000102030442
:101870000607080900000000010203049C18000884
:101880000000002014000000B0170008B018000885
:101890001400002064040000C017000800FF0000CE
:1018A0000000000010000000010000000024F4000F
:04000005080001C529
:00000001FF
